:020000040800F2
:1000000000500020CD4701086D480108B5310108B6
:100010006D4801086D4801086D48010800000000A6
:100020000000000000000000000000006D48010812
:100030006D480108000000006D480108BBF700088A
:100040006D4801086D4801086D4801086D480108B8
:100050006D4801086D480108BDA10008B9A100085C
:100060006D480108C9F700086D4801086D4801088E
:100070006D4801086D48010839BB00086D4801084A
:1000800065C500086D4801086D4801086D48010804
:100090006D4801086D4801086D480108B5A10008C8
:1000A0006D480108EDE500086D480108FDE5000810
:1000B000DDE50008CDE50008BDE500083157000882
:1000C00035570008295700082D5700086D480108CA
:1000D0006D48010831BB000829BB000821BB00089E
:1000E000CDF700086D4801086D48010800000000C8
:1000F0000000000000000000000000000000000000
:0C01000000000000000000005FF808F1A3
:100110002DE9F04F744B754EA3B03360002373602C
:100120000FF0E3FE069618B90FF000FF08F01CFA76
:1001300008F0E4FA6E4A6F4C13786F4D43F00103F8
:10014000137000230A930B930C934FF4E0130D9359
:100150002368A87B43F480332360A36943F0100332
:10016000A361236803F400330B930A9B01330A93C2
:100170000B9B1BB90A9BB3F5A06FF2D123685D49B5
:1001800013F4003301D0022315E00A6842F00102A3
:100190000A600A93236803F002030B930A9B01335E
:1001A0000A930B9B1BB90A9BB3F5A06FF2D123688E
:1001B0009A0739D501230C93504B51491A6842F0E4
:1001C00010021A601A6822F003021A601A6842F0DC
:1001D00002021A606368636063686360636843F483
:1001E00080636360474B1A68043B22F070425A6098
:1001F000454A1160616821F47C116160596841F0E1
:1002000000415960D96821F40041D9609B681B0402
:1002100049BF3E4B4FF4E01313604FF480130D932E
:100220000C9B012B01D117E0FEE7022B18D168B11E
:100230000D9BB3F5801F02D14FF4A01305E00D9B79
:10024000B3F5E01F02D14FF400130D930D996368CD
:100250000B4343F4803302E0636843F4601363604C
:10026000236843F0807323602168224B8F01FBD504
:10027000596821F003015960596841F00201596041
:1002800063681C4903F00C03082BF9D14B68204824
:1002900003F00C03042B03D0082B03D0184B12E0FF
:1002A000136810E04B684F68C3F38343FE0303F108
:1002B000020301D4174905E0496811F4003F1168B1
:1002C00018BF49084B43036063681349C3F3031322
:1002D0000B44197E0368CB4003601368084A9342BD
:1002E0001CD101221EE000BFAF7D000824080020C1
:1002F00086330020001002405810002000200240E9
:1003000000127A000410014028000020001BB700F2
:100310005800002000093D0060980108974A934268
:1003200002D10222964B1A70DFF8B0B2954B069AB2
:10033000CBF80C30A369DFF8A8C243F00103A36136
:10034000636A914F9360636A604643F080736362AF
:10035000A3694FF0000843F01C03A36122AB039391
:100360004FF6FF73039ACDF810C022F82C3D1146CA
:1003700003928DF85E800CF000FA384603990CF079
:10038000FCF9824803990CF0F8F90223DDF810C05B
:100390008DF843300DF1880A4FF400732AF8483D78
:1003A0004FF01009604651468DF84290CCF810305D
:1003B000CDF810C00CF0E1F9754A0398536843F08A
:1003C0000073536008F04AFE724A179B4146B3FB24
:1003D000F2F3714A71481360182216F084FD704BD5
:1003E0004FF47A721B68B3FBF2F36E4A013B536021
:1003F000F0238BF823300723C2F808801360AB6822
:10040000DFF8E081039EDFF8E0B1C8F800309BE838
:100410000F0086E80F00A369179843F00803A36153
:10042000A36918A943F00803A36108233B61C7F837
:1004300010900CF0A2F919981AA90CF09EF9D8F8AE
:100440000030180714D5584B93F88E31012B0FD874
:10045000554B93F88F21554B9B6813F0805300F058
:10046000F58505E0504B002283F88F2108F01AFB38
:1004700064200FF098F9A0224D48002116F033FDBA
:10048000E369002243F00703E361A36943F40063D7
:1004900043F00C03A361454B4FF0000903F10C013D
:1004A00002F8019001320E2AF5D1FF229A76DA760F
:1004B0001A775A773F4B404A49461A603F483C22D8
:1004C000D8F8004016F00FFD4946C4F38017052305
:1004D0003B4ADFF8E8E0885C0C224A4302F80E0051
:1004E00047B91E3801289FBFFF2003F1FF3302F8F0
:1004F0000E00DBB201310529EAD1324A95F80590A8
:100500001370314B069983F80090304B274A0B62E9
:100510002F49C0330B602F4BA10603EBC9035B7857
:1005200048BF01235362002340F2DC512A4A22F8DB
:1005300013100133082BF7D1504600211C2216F06E
:10054000D2FC14F4007BDFF8A4A004F400684FD0C0
:10055000A3040AD4B8F1000F0AD095F882210AF159
:100560000C03012A08BF534604E0CDF814A002E0B2
:100570000AF10C030593039B16933BE0001BB700A5
:10058000AF3300200005FA05000C014000100140C7
:100590000000014040420F00282D0020E4220020EE
:1005A0005800002010E000E058100020240800202F
:1005B000702D0020101B002048120020141B00206A
:1005C00043BF0108291000203803002068100020D4
:1005D0008C2E0020F8BC0108900F002000ED00E0F8
:1005E0000008014038180020889801086098010828
:1005F000CDF814B0B9F10E0F04D009F0EF09B9F13C
:10060000080F02D101238DF85230012007F092FA31
:1006100018B14088003018BF0120C4F340038DF8A2
:100620004630C4F3403300F001008DF84030C4F38D
:10063000C0338DF845008DF848708DF84330B8F11F
:10064000000F07D095F8828108F1FF36D6F1000837
:1006500048EB0608C4F300438DF84930069B1BF1B4
:10066000000B5B6A18BF4FF0010B003318BF01236A
:100670008DF84B30C4F30053B5F844018DF84C307D
:10068000B5F84631ADF85600ADF85030E004B5F895
:10069000523148BFBA48ADF84E30C4F3804348BF2A
:1006A000B0F84C018DF84730B5F8503148BFADF87F
:1006B0005600B3F5FA7FADF8543088BF0023069892
:1006C00088BFADF8563095F8D23104F0010180F8BA
:1006D0002830002380F82930AA48C4F3C0024370B0
:1006E0009DF852308DF84480002B8DF841108DF824
:1006F00042208DF84AB00CBF0023022301B902B199
:1007000001330AEB830ADAF838304FF0000B9A1EF7
:100710001A3306920793069B33F8024F06934FF65F
:10072000FF739C4200F08A819DF84520E3B2240AC1
:10073000E5B21AB19A1E012A40F27B819DF8482049
:1007400032B191491A018958904A914200F0718161
:100750009DF8490030B18C491A0189588B4A914261
:1007600000F067819DF8462052B18749049E01EB55
:1007700003114A68B24203D10A89102A00F0598154
:100780009DF8432052B18049049E01EB03114A6851
:10079000B24203D10A89022A00F04B819DF844201D
:1007A00052B179497A4E01EB03114A68B24203D142
:1007B0000A89022A00F03D81169E7EB1724F32688E
:1007C00007EB03177968914208D13A89B1889142C1
:1007D00000F02F81F188914200F02B81022C02D190
:1007E0009DF8402003E0012C04D19DF84120002A0F
:1007F00000F01F819DF84B20634C1E015AB19DF8FB
:10080000522042B9A3F10802012A04D8A259614931
:100810008A4208BF04259DF84C20344452B19DF80B
:1008200052203AB910B10C3B012B01E0043B032BE1
:1008300040F2E780012D48D1574FDFF84CA1FF234C
:1008400087F8703087F871300AEB06035A7B5868D6
:1008500003F108091B894FF00008ADF85C3017A9B7
:10086000022387F87480C7F880408DF85F308DF8D8
:100870005E2087F82C80C7F83080C7F83480C7F82E
:100880003880C7F86C8087F8728087F873800BF027
:1008900074FF5AF8060099F80210424609F0DBFA94
:1008A000204641462A460BF097F83C4BC7F88C800F
:1008B000C7F884303A4B2046C7F8883007F18401E6
:1008C00007F188020BF0D0F8B3E0022D48D15FFAAF
:1008D0008BF24FF01C0C0CFB02FC2F4B002703EBA0
:1008E0000C080893284B4FF001099A19517B506866
:1008F00002F1080A128988F875B08DF85E1088F840
:10090000767017A988F87E7088F87490C8F88040CF
:10091000CDF824C0ADF85C208DF85F500BF02DFFB2
:10092000194B9AF8021098593A4609F094FA204661
:1009300039464A460BF050F81A49089BDDF824C0A6
:10094000C8F8841018496344C8F8881003F184017A
:10095000C8F88C7020460A1D0BF086F8CB4468E07E
:10096000032D4CD19DF847300B4D104E03B395F835
:100970002A70204608214FF6FF72002333E000BFA3
:10098000581000204D080020A8BA010800040040BB
:10099000000C0140002C014024080020C5980008EC
:1009A000A5990008919E00089D9800083C2D002004
:1009B000BDF8542095F82A70B2F5FA7FBDF856308C
:1009C0000BD986492046B1FBF2F2082192B209F018
:1009D00097FA834B46F827000AE082492046B1FB8C
:1009E000F2F2012192B209F08BFA7F4B46F8270010
:1009F000C36095F82A30013385F82A3019E0042DB8
:100A000017D1BDF84E20774B784D93FBF2F220467C
:100A1000BDF85030012192B295F8296009F070FAC2
:100A200095F8293005EB86060133C6F8540185F8A0
:100A30002930069B079A93427FF46DAE6B4D6C4B49
:100A400095F82920002485F874216A4A1C701678CC
:100A50009846A6F11702022A19D82B6A00211859C4
:100A600003EB040912F062FE10B16B6A5BBB25E078
:100A7000614F99E80F00274487E80F0098F800308D
:100A800010340133C02C88F80030E6D1EDE75B4B21
:100A900013F836E003EBC603D3F804C088F800E08F
:100AA000BCF1000FE1D07445DFDA534F23011F443E
:100AB00063440FCB013487E80F00F4E7504F3B68E5
:100AC000DA0424D41DE04F4B4F4A13F8360003EBF1
:100AD000C6035C681070002CF0D000238342EDDA6E
:100AE000C3EBC3016218D2F800C0DFF844E1013360
:100AF00041F80EC001EB0E079188B9809279BA7166
:100B0000ECE706F0EF03082B404B25D126E098F8E0
:100B10000030012BF5D93E4C04EB031303F1100810
:100B200010344445EDD054F8100C4FF07C5112F0C5
:100B300069FC4FF07C5144F8100C54F8140C12F07E
:100B400061FC4FF07C5144F8140C54F80C0C12F07A
:100B500059FC44F80C0CE3E70E2E08D11A78182E35
:100B600042F010021A7008D10FF0EAF805E01A7886
:100B7000192E22F010021A70F5E70FF0C5F83B6845
:100B8000244C5B035EBF244B01221A70234B244884
:100B90001A78994642F004021A70224A1178904657
:100BA000022934BF142310238DF85E304FF0020366
:100BB0008DF85F30A3694FF4805243F00403ADF821
:100BC0005C2038BF0026A36128BF012617A90BF0BF
:100BD000D4FD154B76B3154A2DE000BF00127A0004
:100BE000C599000840420F00B5990008240800206C
:100BF0006C2D00203803002074020020F8BC01088E
:100C00003818002064A60108182E0020541800206F
:100C10007C02002000100240A00700208633002044
:100C200000080140AF330020943300203DF5000858
:100C3000192E0020724A00201A600EF0C9FD714B77
:100C4000714E93E80300039B4FF0030B83E803000E
:100C5000A369179843F00803A36118A90BF08DFD51
:100C6000E369304643F48043E3612369039943F425
:100C70008043236118238DF85E304FF42043ADF894
:100C80005C308DF85FB00BF078FD04224FF48043A8
:100C9000304603998DF85E2004924FF4805AADF8E7
:100CA0005C300BF06AFD1023304603998DF85E30FE
:100CB000ADF85CA00BF061FD2369322043F4804362
:100CC0002361236923F480432361504B198801F485
:100CD000415141F4457141EA0B011980998B21F48E
:100CE00000610904090C998307211982198889B2C6
:100CF00041F0400119809F23C6F810A08DF83C30C8
:100D000000238DF83D308DF83E308DF83F300EF0E9
:100D10004AFD049AC6F814A003980FA912F016F918
:100D2000C6F810A09DF85E309DF85D201B0243EAD6
:100D300002439DF85F201343354A934215D0322079
:100D40000EF031FDC6F814A0F52012F035F9FF20A1
:100D500012F032F97028C6F810A006D198F80030C9
:100D6000022B04BF2B4B83F800B098F80030032B04
:100D70000CBF1F20022006F060FE98F80030032B05
:100D800003D001200BF04EFF07E0022006F0D2FE58
:100D90000028F6D04388002BF3D03E684FF0100BAC
:100DA00006F40043039306F4006304931A4B0021F6
:100DB00018465A46069398F8008016F094F84FF6B5
:100DC000FF72069BADF83C2002224FF0000A16EAA3
:100DD00002018DF83E208DF83FA01E4620D022A9AA
:100DE00021F84CBD0D4808F0E5FA042333700722C2
:100DF000012386F801A0B370F2709A4611E000BF9B
:100E000051F50008A8980108000C01400038004086
:100E100015202000AF3300207C1B0020000801407B
:100E20008A46039B8BB122A9022221F84C2DA248AD
:100E300008F0C0FA01220AEB0201072386F805A098
:100E40003271B271F3715FFA81FAB8F1010F12D900
:100E5000202222A921F84C2D974808F0ABFA052250
:100E600001233272B3720AF10102072386F809A046
:100E7000F3725FFA82FA049B93B1022222A921F84D
:100E80004C2D8E4808F096FA092201233273B37371
:100E90000AF10102072386F80DA0F3735FFA82FAC4
:100EA0006268874842F4404262606269DFF81082FB
:100EB00042F001026261A26942F40072A26108F08C
:100EC00054F817A808F026F87E4A002417927E4AA4
:100ED000BAF1010F189294BF224680221C924FF45F
:100EE00080721D924FF480621E92202240461F9213
:100EF00017A94FF4005220921994CDF868A01B94C2
:100F0000219408F014F8D8F80020704942F001024A
:100F1000C8F800204A68BAF1010F22F4702294BF89
:100F20000020012022F4807242EA00224A60886890
:100F3000674A0AF1FF33024042F4602242F00202A3
:100F40008A60CA6ADBB222F4700242EA0353CB62BF
:100F5000012332199178002963D0305D591C09288A
:100F6000C9B2D278DFF864C112D9A0F10A0EDCF858
:100F70000CA00EEB4E0E4FF0070808FA0EF82AEA06
:100F8000080802FA0EF248EA0202CCF80C200FE040
:100F9000DCF8108000EB400A4FF0070E0EFA0AFE54
:100FA00028EA0E0E02FA0AF24EEA0202CCF81020EB
:100FB000062BDFF818E110D8013BDEF8342003EBF4
:100FC00083034FF01F0C0CFA03FC22EA0C0200FA18
:100FD00003F31343CEF8343022E00C2B10D8073B38
:100FE000DEF8302003EB83034FF01F0C0CFA03FCF8
:100FF00022EA0C0200FA03F31343CEF830300FE07C
:10100000A3F10D02DEF82C8002EB82021F23934035
:1010100028EA030C00FA02F34CEA0303CEF82C3062
:101020000B460434102C94D1284B9A6842F48072F9
:101030009A609A6842F001029A609A6842F0080247
:101040009A609968214A0C0744D5FAE7013A092ABF
:101050003FF60EAA0593DBF82C00039BC7F814900B
:101060001946186004980BF088FB049B3C201A4634
:10107000082313610EF097FB059BC7F810901F46DD
:1010800095F88F319F42BFF6EDA9049BDFF82CB095
:101090004FF00809CBF810907820C3F814900EF0A8
:1010A00077FB049BCBF814907820C3F810900EF0D7
:1010B0006FFB0137E4E700BF00080140000C01406E
:1010C000080002404C2401408C1B002000240140F9
:1010D000FDF7F1FF936843F004039360C14B9E68F2
:1010E00016F00406FAD1C04C9A68B4F8580142F4DC
:1010F000A0029A60002840F03D86B4F95A31002BD6
:1011000040F03886B4F95C31002B40F033863B6800
:1011100098031FD5C8200EF046FBAE200BF0EDFC67
:1011200008B10BF0EFFC85F87501C8200EF03BFB11
:10113000AE4B0021C5F87831AD4D0C22284615F094
:10114000D2FE0223EB700FF07EFF0EF005FBA94BE1
:101150000344AB60A84D94F868C12B68B4F86001F3
:10116000B3F956E094F85F1194F867216346CDF81F
:1011700000E009F00FF910B901200EF07DFB99F89D
:101180000030102243F0020389F800309B4B4FF0EF
:101190000A085A6108221A61DFF860921920D9F80A
:1011A0000C3008F1FF3883F01003C9F80C30D9F87F
:1011B0000C3083F00803C9F80C300EF0F4FA01206B
:1011C0000EF006FB19200EF0EEFA00200EF000FBE8
:1011D00018F0FF08E0D10823C9F810304FF0100ACA
:1011E000874BC9F810A01A68984612F0080F09D06A
:1011F000844BC9F814A01B689847834B0122C9F897
:1012000010A01A70814BDFF82C921B68187B12F02B
:10121000A5F87F4912F0F6F807F082F88246B9F88F
:10122000000012F09BF8514612F0ECF816F068F846
:10123000784B1880B9F8000012F090F80146764813
:1012400012F094F9754912F091F9754B70491860D4
:10125000744BD86812F0D6F8734912F0D3F8734B78
:10126000FF211860724B1B22184615F03CFEDFF878
:10127000C8E1002273460270D8F80020012112F064
:10128000020F8EF800101FBF417003218EF800106E
:10129000022118BF8170510741BF9EF8001001F173
:1012A000010E83F800E04FF0030E48BF00F801E0A4
:1012B00012F00A0F0ED01A7804218154511CC9B2C1
:1012C0004FF0050E00F801E0D11C02321970D2B2C5
:1012D0000621815439688F0641BF1A78571C1F7048
:1012E000072748BF87540A0608D51A780927875464
:1012F000971C01321F70D2B20A2787546779082FD2
:1013000001D00E2F08D11A7802F1010E83F800E007
:101310004FF00B0E00F802E01A7811F4803F4FF006
:101320000C0C00F802C002F1010E1CBFDFF808C16E
:1013300002325FFA8EFE83F800E01FBF8CF80020B7
:101340003B4A4FF00E0C02F80EC04A0748BF1A780D
:101350004FF0120C41BF02F1010E83F800E04FF094
:10136000100E00F802E01A7811F4806F02F1010EFD
:101370005FFA8EFE83F800E000F802C00ED094F809
:101380001CC2BCF1000F09D0DFF8ACC002328CF8EF
:101390000020274A4FF0130C02F80EC08A0541BF07
:1013A0001A7802F1010E83F800E04FF0150E48BFE5
:1013B00000F802E0182F41D11A784FF0160E00F80D
:1013C00002E002F1010E5FFA8EFE4FF0170C00F8FA
:1013D0000EC002F1030E0232D2B283F800E087544D
:1013E0002CE000BF0024014058100020DE11002036
:1013F000682A0020404B4C00A00F0020000C014048
:101400005018002020230020F4000020F4010020C8
:1014100035FA8E3C100200200AE81C4100401C46B0
:10142000280100206C220020BD378635F001002005
:10143000690F002024000020680F00200F0341BF27
:101440001A78571C1F70192748BF8754CA0541BF17
:101450001A78511C19701A2348BF8354002198220E
:10146000774815F040FD08F0C8FE7649764B77487E
:101470001960B4F84E21764B016076491A8000233A
:10148000754AD5F800E00B70B4F89411138093708E
:101490001FFA81FA0EF17902DFF80C926F48D9F841
:1014A0000070DFF808C207F5967720F813A04CF813
:1014B00023700133122BEFD1694F0EF1C90ED7F80B
:1014C00000C01CF4805F08BFB4F89AA1A0F806A081
:1014D0001378B3B9937892F803A0534511D20BB1A6
:1014E000013B01E00AF1010303EB830392F801A041
:1014F00003EB830303F561739BB20AF1040A20F83E
:101500001A3004327245E3D11CF0080F00F0FC8061
:1015100094F88E31062B00F2F180DFE803F0040727
:101520000E355172720045F2F05201E042F6F82297
:101530004C4B1A8008F0EAFEDFE042F6F822494BF5
:1015400009011A800A2391FBF3F10023A1F5B06190
:10155000454A42F823100133122BF9D1434A44493A
:1015600040201160434A13700EF016F8002800F076
:10157000C58001234FF0070B90F9000040218DE852
:1015800008083D4A3D4BB3E042F6F822354B402077
:101590001A803B4A354B1A60364B10221A700DF0F8
:1015A000FBFF002800F0AA8001234FF0000A90F909
:1015B000000040218DE80804324A4FF4E13397E0FF
:1015C00042F6F822274B40201A802F4A274B1A60F8
:1015D000284B08221A700DF0DFFF002800F08E80E3
:1015E00001234FF0000C90F9000040218DE8081015
:1015F000264A4FF4E13306F04DFA254BC3F87C013F
:1016000078E042F6F821174A062B118019494FF06D
:101610000C02DFF89CE01F4C1F480A704AD00023E0
:1016200023708EF8003003701C4B1B2119701C4B6B
:101630004FF4E1341A701B4B05221A7047E000BFCB
:10164000BC210020DE110020000E0020201C002004
:10165000040E00203B0D00202C1C002062330020D3
:101660003818002040020020F4190020300000202B
:10167000E58B000858220020618E0008A08601003A
:10168000D18B0008B58D0008B98B0008698D000862
:1016900024080020811A0020801A0020821A0020CD
:1016A00081190020831A002030100020840D0020B2
:1016B000821900200021217001708EF800103C4931
:1016C000212008703B493C4C0A703C4A13703C4A4C
:1016D0003C4B40201A600DF05FFF78B101234FF0C2
:1016E000000E90F900008DE808402346364A40215C
:1016F00006F0D0F9003018BF012028B9082006F004
:1017000001FF324A2F4B1A603B68314A13F4804F75
:101710001FBF122111702F482A4918BF086042F2DA
:101720000101194099B144F620602B4908809804C2
:1017300041BF082111702948224948BF0860D907D4
:1017400041BF0C21117026481E4948BF086011781E
:101750001C06A1F10401517040F18280214B224806
:101760004FF0000A214CC0F880315146152200F597
:10177000C270039384F801A0C4F804A0C4F808A0C0
:1017800015F0B1FB039BDFF868B0053B5046CBF882
:1017900000300CF092FCD9F800300220E3600DF02C
:1017A000FBFEDE4630BB802006F0ACFE51E000BF01
:1017B000821A00208119002090D00300831A002093
:1017C000E18A000830000020498C0008458C0008A0
:1017D00058220020158C000840020020358C00089B
:1017E000258C000848120020240800204401002015
:1017F0006401002090F805C06378C7490C2202FB01
:1018000003125278624504D00133DBB2042BF4D9C1
:1018100000236370DEF8003062781B7890F90000D6
:10182000002B4FF00C0303FB021314BF4FF0030E09
:101830004FF0010E00225B78CDF800E0019202210A
:1018400006F028F9B54B18600028ACD001200CF048
:1018500034FC2868B24B00F5C5721A600CF0D4FC59
:101860003B68980553D5AF4AAF4C059B10252360C4
:101870009369AE4843F001039361059B0EA91B8851
:101880008DF83A50ADF8383002238DF83B300AF02D
:1018900074FF2368A5485B880EA9ADF8383004238F
:1018A0008DF83A300AF069FF23680120197A0AF0AE
:1018B0004FFF23689E4A5B684FF0000A536117A8E8
:1018C0008DF86150012517938DF860A08DF8625056
:1018D00007F032FD23680FA85B7A8DF83EA08DF8E3
:1018E0003C3003238DF83D308DF83F5011F010FB54
:1018F000D9F800308F4A3C3B1360D8F800304FF0E5
:10190000FF3243F01003C8F800308B4B1A608B4B4A
:101910008B4A8C4C13608C4A803313603B680025E3
:10192000D903257040F1B28040F22A39DFF850A285
:10193000DFF8F0B10EF076FF4FF001084A4650464E
:10194000294684F8008015F0CEFADBF818307F487D
:1019500043F00403CBF818304023ADF83830182397
:101960008DF83B300EA903238DF83A3007F022FDA5
:10197000DBF81C30764A43F00203CBF81C30754B81
:10198000754C1B68ABF6947BB3FBF2F32288013BEA
:1019900022F45C721204120C22809BB21D22A285DA
:1019A0002385A4F81480238C23F001031B041B0C53
:1019B0002384238CA188228B23F0020322F073025C
:1019C00012041B04120C1B0C89B242F0600243EAA1
:1019D0000803A1802283A5862384238B23F0080398
:1019E0001B041B0C43F008032383B4F844306FEA54
:1019F00043436FEA53439BB2A4F84430DBF8A83F5B
:101A000043EA0803CBF8A83F584607F0AEFA17A8F8
:101A100007F080FA514BCDF860A0179380231C93F8
:101A20004FF480734FF0100A1D9358464FF4005343
:101A300017A92093CDF864A0CDF868901B951E954A
:101A40001F95219507F073FAA3890FA89BB243F461
:101A50000073A381DBF8003043F00203CBF80030C1
:101A60008DF83CA08DF83D808DF83E508DF83F807C
:101A700011F04EFA3A4B1A683A4B43F826200136D9
:101A8000202EF7D10AF086FD0AF084FD3B685A0546
:101A900040F18C80344C354BD4F8C46404201E6073
:101AA0000DF07AFD0421C4F8C80406F0F9F8304BB3
:101AB00084F8CC0408201E600DF06EFD2D4B08212B
:101AC000186006F0EDF82C4D84F8CD04002128466E
:101AD0002C2215F008FA8E236B704FF07C09E0235E
:101AE0004FF07D08EB7085F8009085F82B80234D32
:101AF0002C220021284615F0F6F98A236B7010205D
:101B0000A023EB7085F8009085F82B80C4F8D06492
:101B10000DF042FD102135E068940108642A002090
:101B20005C0E00200010024040010020000C01402B
:101B3000000401403C010020C40F0020841200205A
:101B40001C190020A1070020A82A0020000801403D
:101B500000366E01580000200004004034040040AC
:101B6000B0980108A2070020240800204418002093
:101B70009C180020E81800206C180020A1180020F4
:101B8000BD090020C4F8D40406F08AF884F8D8040B
:101B90002020C4F8DC640DF0FFFC2021C4F8E00430
:101BA00006F07EF884F8E40410F062FB814B824C6E
:101BB0001B78022B65D1814A00251388322023F03F
:101BC00040031B041B0C138013884FF4805623F032
:101BD00038031B041B0C138013889BB243F0400393
:101BE00013809F238DF83C308DF83D508DF83E508A
:101BF0008DF83F500DF0D7FD8DF85D50704D0422EB
:101C00006E6117A80FA911F0A1F92E619DF85E3041
:101C10009DF85D201B0243EA02429DF85F301343AA
:101C2000684A934219D00AD8A2F51A42033A93425D
:101C30000CD002F51A420232934209D01CE0624AEB
:101C4000934205D00132934207D015E0202300E0F3
:101C5000802323804FF4807302E04FF4807323804D
:101C60006380A38822881B02A3605343E360574B21
:101C7000012283F8E52404E0002323806380A3602D
:101C8000E360E4681CB3E40A26464FF00008A04570
:101C90000BDA08EB04056D100DF15C09E80249460A
:101CA00010220AF0DBFE0F2806DC0CF011FC474B7B
:101CB000F602C3F8E8640AE0002359F82320013251
:101CC00054D10133042BF8D12E462C46DFE73B6874
:101CD0003F4A13F4002318BF012313700DF03CFD9D
:101CE0003C4B18603C4B5A791946052A02BF3B4BC6
:101CF0004FF4C8721A803A4B4FF47A721A80394BFB
:101D0000C8221A80384A137843F008031370374A00
:101D1000137823F00203137040F602033A6813406D
:101D20006BB13348334B1860334B03201870334B7F
:101D30000120187032480023038032480380930347
:101D400041BF314B04221A71DA7844BF42F00102DC
:101D5000DA708B6801223B602C4B1A702C4A137886
:101D600063F07F03137023B0BDE8F08F05F1010825
:101D70002546AAE7274B00221A7000B211F0EEFAAE
:101D8000254911F03FFB1790B4F95A0111F0E6FA1A
:101D9000214911F037FB1890B4F95C0111F0DEFA1B
:101DA0001D4911F02FFB1D49199017A806F0C2FA22
:101DB000FFF7ADB9AF330020140000200038004019
:101DC000000C014018BA20001740EF002408002042
:101DD0003C3100203002002058100020120E00205C
:101DE000A6330020A433002054180020AD33002077
:101DF000D01100203C180020A01800204C0000202A
:101E0000000F0020020F0020682A0020A0070020F9
:101E1000863300202C00002035FA8E3C581B002011
:101E20009F492DE9F04F0A689E4C02F59C432033F0
:101E300023609D4B89B01E780191C6B19B4909680A
:101E40008A4240F20381013E1E70FFE0D9F8003063
:101E5000072D98BF595D964B88BF29461B6895484A
:101E60009847032D0CD904EB4505A8800136914B0A
:101E7000F5B21A78DFF86092AA421946E6D820E057
:101E8000D9F8002005F10E0302EB83039988DA8864
:101E90000028E8D04FF47A73401A5843531A90FB45
:101EA000F3F040F6C90300F57A70984205DC40F281
:101EB000EE239842B8BF184601E040F6CA0080B24F
:101EC000D1E742F201087C4B1B6803EA0808B8FA24
:101ED00088F87A4B4FEA58181B68B8F1000F06D102
:101EE00094F8292084F82820754A5078107094F8C6
:101EF00028701FB1724A177887F0010794F82BB049
:101F00000326BBFBF6F60F2206EB460684F82A20D2
:101F1000C6EB0B06D9F8002091F800A0DFF8C091BD
:101F2000F6B20025554559DA4FEA450C1FB165490F
:101F300031F8150000E03846918ADFF8A8E18142C7
:101F400002D8D18A81421ED25EF8250055498342CB
:101F500003D25D4931F80C0019E0E8B20392029314
:101F6000049107F0AFFB032D029B039A0FDC049949
:101F70004FF0010C91F82AE00CFA05FC2EEA0C0E49
:101F800081F82AE003E003F596714EF82510B8F1C8
:101F9000000F1CD194F8BC1029F8160031B9BBF120
:101FA000020F14D93F49012081F8BC00B9F8021092
:101FB000B9F800000844B9F804100844434980B255
:101FC00021F8150000B2032190FBF1F080B23E49E8
:101FD00009F1060921F815000135A3E794F82A2034
:101FE0003649A2F10F077A427A4184F8D620384B5D
:101FF0006AB1384A1268560109D40A68D9689A60E9
:10200000521AC82A1DD9012283F8212019E02C4A2E
:102010000120507010700A689968DA605B68521A83
:102020009A4282BF2A4B002283F821200025554581
:1020300007DAE8B207F046FB234B23F81500013519
:10204000F5E794F82B30013384F82B301A4E3368BF
:10205000DD0405D51F4B1B68D80701D410F0B8FB71
:10206000019B1F681C4B1A68907A00283CD01649C7
:10207000137B013831F810001BB1C0F53B6008300C
:1020800080B200B2A0F57A70B0F57A7FA8BF4FF4A5
:102090007A7020EAE07011F061F9104959E000BF50
:1020A00090330020100D0020281C0020241C00204C
:1020B0003000002058220020381800203010002066
:1020C00011000020140D002062330020CE0D0020EE
:1020D0002C1C0020640F0020201C002000007A44EB
:1020E0003C0D0020840D0020336819043AD5D4F843
:1020F000D810934B791A002934DB07F59C41203125
:10210000C3F8D8108F494D798F4931F81550A9B2CD
:10211000D57A91FBF5F593F8DC10013101F00F024F
:1021200083F8DC201A44034682F8DD50874A825C3B
:102130000130134410289BB2F8D11BB293FBF0F08E
:1021400000B26428A8BF642020EAE07011F006F90C
:102150007F4911F00BFA7F4911F054F911F03EFB61
:102160007D4B188033687D4D13F4807F00F00F8124
:102170007B4BDFF8F0919F4205D999F8022012B904
:10218000012289F8022099F80220002A00F0FF803D
:10219000744A95F8008092F82170C8F380087A1E7E
:1021A00057425741704A002F9246116818BF4FF0AE
:1021B000000BC1F38063019308BF4FF0030B99F844
:1021C0002020052A00F2DD80DFE802F0034E53797B
:1021D00088A5B8F1000F3AD0D4F8F000B4F8F410A4
:1021E0000DF077FA012809D16049614A096812683F
:1021F000C988642000FB0122C9F81020019B6BB143
:102200005A4A126812794AB110F064FE032289F822
:1022100020204FF47A72C9F81C20D0E7002F40F03C
:10222000B080534AD9F8101010684E4A88420AD933
:10223000029210F04FFE029A032182F8201040F61D
:10224000B831D161BBE7012182F82010B7E7019BCB
:102250004FF4806013B106F045F901E006F031F962
:102260000022C9F810208CE0002F49D110F032FE76
:10227000A5E727B1052289F82020012000E0384693
:10228000B8F1000F0CD0D4F8F0204FF0020BD18938
:10229000384A118051809180344909684988D18039
:1022A000334A1168D9F81420914202D8B8F1000FCE
:1022B00064D147F23052C9F81C20032221E02A7869
:1022C00042F002022A7010F083FA294AD9F81C1051
:1022D00012680A44C9F81820042212E0244A9FB167
:1022E0001168D9F8182091424BD9234A92781AB92B
:1022F000DAF80020D30744D42A7822F002022A70A8
:10230000052289F820205AE71268D9F81C100A44DF
:10231000C9F8182035E01549154A09681268C988B6
:10232000642000FB01224FF48060C9F810200022D5
:1023300089F8202089F8032006F0C3F83FE700BFA2
:10234000100D00207C1B00208C1B0020ED0D0020B8
:102350000000C84200C07F44C80F0020AD330020F9
:10236000404B4C002C1C0020640F00204C330020FC
:1023700030100020623300201100002000287FF47C
:102380001EAFBBF1000F02D058460DF03BFA8D4F47
:1023900007F5C370B7F84E110DF09BF9019783460E
:1023A00068B910F089FD884B0022C3F800B0C3F86B
:1023B00004B0C3F808B0854B1A605A609A602B7855
:1023C0005F0736D53368D80633D5814B1B78D906DD
:1023D0002FD4804B9B789BB1019B93F8DE31BBF1EE
:1023E000000F15D17BB17C4B1A68D4F8F8309B1ADA
:1023F000002B08DA10F0ECF9784B83F8FCB018E009
:10240000BBF1000F0DD110200DF0FCF901230EE0FF
:102410003BB1714A4FF47A71126801FB0323C4F88F
:10242000F83094F8FC3023B10DF0D8F9002384F88B
:10243000FC30019B93F8DCA193F8DD11B3F896E131
:10244000B3F898C100231846654A800832F9137022
:1024500001337745C4BF60F07F00C0B26745B8BFA5
:1024600040F04000042B9146EED194F8FD305B4AD9
:10247000834205D192F8FE30F92B04D8013300E0F5
:10248000002382F8FE30534B84F8FD009A7898467A
:10249000544FE2B93B68DA0708D5BBF1000F16D1FB
:1024A0002B78DB0713D50FF0E3FF10E02B785807EC
:1024B0000DD54A4B93F828304BB14B4BDB7833B9F1
:1024C00011B110F085F902E0BBF1000FF9D094F8DA
:1024D000FE30424A142BDFF824B140F0AA8098F86D
:1024E00002301AF1000A18BF4FF0010A6BB392F8DC
:1024F000FD305F2B11D12B7803F0040303F0FF01B3
:1025000013B110F065F908E00B20039102920DF071
:1025100079F9029A039982F8FE10BAF1000F14D0EB
:1025200094F8FD307D2B10D12B7803F0040303F0D9
:10253000FF0213B110F04CF907E00B2002920DF0EE
:1025400061F9264B029A83F8FE202B7803F00403EE
:1025500003F0FF01002B6CD194F8FD301F4A572B7C
:1025600015D1224B4FF47A721A803368190601D5BF
:102570000BF09AFE1E4B1B685A0742BF1D4A0A21E8
:10258000118013F0080354D11B4A138051E03068C6
:10259000400735D55A2B33D192F8FF302BB10123A8
:1025A00082F8FF1082F8003143E092F8013183F0A5
:1025B000010382F801310BB10C2000E00D200DF079
:1025C00021F936E0581000203C2C0020E42C00209B
:1025D000541800201100002030100020100D0020A1
:1025E00062330020640F00202C1C0020A633002042
:1025F00050180020A433002048100020A00F002015
:102600005D2B00F02A855B2B00F029855E2B00F006
:102610002885562B01D106F045FA98F80230002B98
:1026200000F0EF8494F8FD306F2B40F0E4840FF05D
:102630001FFF3368580736D594F80131B64A93B175
:102640002B7859070FD5019BB9F90610B3F89631CD
:10265000994208DD3B6813F0010302BF3221A2F862
:10266000041182F801313B68DA030DD594F8062194
:10267000A94B2AB993F8FF2012B93222A3F80421FA
:10268000012384F806310EE094F8FF30A24A53B1DA
:102690002B7803F0040303F0FF0123B9012382F830
:1026A000FF1082F80031DBF8009000233B6009F155
:1026B0007B0809F1CB0A98F8002098F8013018F847
:1026C000010C9A420BD241460CF0CEFF38B118F8FB
:1026D000022C012303FA02F23B6813433B6008F12A
:1026E0000408D045E7D18D4B1B7853B18C4B8D4FEF
:1026F0001A68984612F0020FDFF8409240F03383D8
:102700002BE309F1CA0709F589783A787B7817F83D
:10271000010C9A4225D239460CF0A6FF08B397F86F
:1027200004C00C21BB7801FB0C417F4A013B03EB49
:1027300043031344D1F80C2197F803909A4276484A
:102740000FD0C1F80C31002390F83821C1F81031B6
:10275000012303FA0CF322EA030381F8089180F8BD
:10276000383106374745D0D1704BDFF8D4A1D3F8C4
:1027700000806F4B4FF0000B1B68029394F82830D9
:102780000393DAF80030002B00F0DE8293F800901B
:10279000B9F1000F00F0D882DAF8042002998A1A01
:1027A000002A0CDB01F5FA72CAF8042094F83811FB
:1027B000012202FA0BF221EA020284F83821039A7C
:1027C000002A00F0C1821AF8042C59780432D2B2DF
:1027D000002940F07A82574931F91210564AB2F86E
:1027E000942102F1C800814201DD9F7814E0C83ACB
:1027F000914202DA99784F420EE094F83821012391
:1028000003FA0BF322EA030384F83831029B03F541
:10281000FA73CAF8043097E294F8383143FA0BF3AC
:10282000DB0700F19182002FCCBF022001200DF0C8
:102830000BF809F1FF32384B132A00F27D82DFE8F2
:1028400012F0140023003200440061008100E60011
:102850004B01B001E50114027B02440055008100E8
:10286000E6004B01B8001D01820198F800104046B7
:102870000F44FA2FA8BFFA2727EAE77788F80070F5
:102880000CF0D8FE01201EE098F8011040460F44DD
:10289000642FA8BF642727EAE77788F801700CF057
:1028A000C9FE02200FE098F8031040460F44642F41
:1028B000A8BF642727EAE77788F80370D3F83C11AC
:1028C0000CF070FE03203946CCE198F805100D207D
:1028D00039446429A8BF642121EAE17188F8051010
:1028E0000CF026FFB9F10D0F00F0268298F80410C5
:1028F0000E2039446429A8BF642121EAE17188F8D7
:102900000410AFE198F806100520394481F308015E
:1029100088F80610A6E100BF100D0020B233002099
:10292000640F00205018002024990108CC0F0020CB
:1029300030100020623300205810002018190020A9
:102940001C0E0020D3F840311A78022A22D13846D2
:10295000049310F003FDA94910F008FE049B596A86
:10296000059310F047FC0021049010F0E9FE059B50
:1029700048B9049AA249104610F000FF049A059B3A
:1029800010B19F4A00E000225A620F2011460CF05D
:10299000BBFE0AE099780F203944C829A8BFC82196
:1029A00021EAE17199700CF0C3FEB9F10F0F00F04C
:1029B000C381944BD3F8409199F80030022B1AD17F
:1029C000384610F0CBFC8D4910F0D0FDD9F820101E
:1029D00010F010FC0021074610F0B2FE30B9384666
:1029E000874910F0CBFE10B1854F00E00027C9F8F1
:1029F0002070122059E199F8011012203944C82999
:102A0000A8BFC82121EAE17189F801102AE1D3F8B1
:102A100040311A78022A22D13846049310F09EFCE5
:102A2000774910F0A3FD049B196B059310F0E2FBAE
:102A30000021049010F084FE059B48B9049A704967
:102A4000104610F09BFE049A059B10B16C4A00E002
:102A500000221A63102011460CF056FE0AE0197B82
:102A600010203944C829A8BFC82121EAE17119738F
:102A70000CF05EFEB9F1100F00F05E81614BD3F8EF
:102A8000409199F80030022B1AD1384610F066FCBC
:102A90005B4910F06BFDD9F82C1010F0ABFB002156
:102AA000074610F04DFE30B93846554910F066FE25
:102AB00010B1534F00E00027C9F82C701320F4E048
:102AC00099F80B1013203944C829A8BFC82121EA5E
:102AD000E17189F80B10C5E0D3F840311A78022A69
:102AE00022D13846049310F039FC474910F03EFDDE
:102AF000049BD96B059310F07DFB0021049010F02E
:102B00001FFE059B48B9049A3D49104610F036FE59
:102B1000049A059B10B13A4A00E00022DA631120C2
:102B200011460CF0F1FD0AE0997D11203944C829C5
:102B3000A8BFC82121EAE17199750CF0F9FDB9F13E
:102B4000110F00F0F9802F4BD3F8409199F8003025
:102B5000022B1AD1384610F001FC2B4910F006FD6B
:102B6000D9F8381010F046FB0021074610F0E8FDB8
:102B700030B93846224910F001FE10B1204F00E074
:102B80000027C9F8387014208FE099F81510142028
:102B90003944C829A8BFC82121EAE17189F8151074
:102BA00060E0D3F8409199F80030022B1AD13846F2
:102BB00010F0D4FB114910F0D9FCD9F8281010F00E
:102BC00019FB0021074610F0BBFD30B938460C490F
:102BD00010F0D4FD10B10A4F00E00027C9F82870AA
:102BE000092062E099F8031009203944C829A8BFD8
:102BF000C82121EAE17189F8031033E00000204187
:102C00000000C842100D002000007A44D3F8409123
:102C100099F80030022B1AD1384610F09FFBB449C6
:102C200010F0A4FCD9F8341010F0E4FA00210746A3
:102C300010F086FD30B93846AD4910F09FFD10B157
:102C4000AB4F00E00027C9F834700A202DE099F856
:102C50000D100A203944C829A8BFC82121EAE17112
:102C600089F80D100CF064FD66E0D3F8409199F8F6
:102C70000030022B1DD1384610F070FB9D4910F03A
:102C800075FCD9F8401010F0B5FA0021074610F095
:102C900057FD30B93846964910F070FD10B1944F89
:102CA00000E00027C9F840700B2039460CF02CFDDD
:102CB00042E099F817100B203944C829A8BFC82151
:102CC00021EAE17189F81710CCE7012934D198780D
:102CD000894B33F91230B3F5617F05DB40F63302DF
:102CE0009342A8BF134601E04FF46173B9F10C0F92
:102CF00022D14FF4966292FBF0F0A3F5617393FB3F
:102D0000F0F37E4ADFB21378BB4215D0042F34BFF4
:102D10003B4602231370019A09FB0323784A03F20E
:102D2000B673136005F0C6FC484639460CF000FD4A
:102D3000781CC0B20CF088FD94F83821012303FA06
:102D40000BF3134384F838310BF1010BBBF1040F83
:102D50000AF10C0A7FF415ADC8E43368D80510D524
:102D6000684BDB786BB13B6899070AD5B9F800303E
:102D700013F0010A0AD110F09FF8012005F0B2FB10
:102D800004E0012005F09DFB012300E00023D8F8BA
:102D9000002052070DD563B1012005F092FBB9F870
:102DA00000309B0708D410F087F8022005F09AFB4A
:102DB00002E0022005F085FBB9F80030524A13F01A
:102DC000030F4FF0100114BF516111613A6812F006
:102DD0000A0F27D0D8F80020D00609D559070AD401
:102DE000042005F07FFB494B1B88A4F8443102E026
:102DF000042005F066FBD8F800309A0607D5B9F82C
:102E000000305B0606D4402005F06CFB02E0402059
:102E100005F057FBD8F80030580642BF3B4B1B88E3
:102E2000A4F846313B68990609D4D8F800301A0551
:102E300040F1B0804FF4807005F054FBAEE0344BAD
:102E40001B789B076ED5334B1B78042B6AD9D8F8B7
:102E5000003013F4007A0FD0B9F80030DF063AD40E
:102E6000102005F03FFB202005F02BFB2A48011D18
:102E70000BF084F902232AE0B9F8007007F010077C
:102E8000BFB22FB1102005F01CFB012784F848A128
:102E9000D8F80030580512D5D4F84C311F495A895A
:102EA000B1F90030002BB8BF5B42934207DAB1F9A9
:102EB0000230002BB8BF5B429342C0F20B81B9F8DD
:102EC0000030990608D5202005F0FBFA002384F88D
:102ED0004831012700E0002794F850319BBB0E20B9
:102EE0000CF090FC0E4B012283F850212BE000BF28
:102EF0000000C84200007A44623300201C300020E9
:102F0000CC0F00202C1C0020000C01404810002099
:102F1000541800205A180020D40F00205010002010
:102F2000100D0020B9F8003003F03003002B3FF4FF
:102F30007CAF102005F0C5FA202005F0C2FA00236E
:102F400084F8483102E0002F3FF46FAF00221446AE
:102F50006D4B002023F814006C4B191D03F10A0778
:102F600021F814000021D15117447860B96023F88A
:102F7000140003F132075A33D151D150174413448E
:102F80007860B960586099601432002C7FF44DAFBE
:102F90000124DDE74FF4807005F093FA5C4B5A7919
:102FA0001C46082A01D00E2A02D1402005F089FAD9
:102FB00033685A0540F1A48094F81C321BB92B7871
:102FC00013F0040F03E0D8F8003013F4002F0BD0F7
:102FD000504B00221A703C2005F06AFF002800F0D8
:102FE0008F800EF0CDFCF6E70FF042F909B0BDE896
:102FF000F04F07F002B9BAF1000F02D07E2B3FF478
:1030000016AB94F8FD30972B06D1434B4FF4C872A2
:10301000A3F80221FFF70DBBA72B06D13F4A137877
:1030200043F004031370FFF704BB0022BB2B07928D
:1030300001D1022303E0B72B04D14FF6FE73ADF8A4
:103040001E301FE0BE2B01D1022303E0BD2B30D187
:103050004FF6FE73ADF81C3014E0012002E00220B0
:1030600000E003205FFA80F8019A08F1FF3382F84C
:10307000B43705F079FA05F041FB40460CF0E4FB6B
:10308000FFF7D7BADBF80030BDF81C10B3F85820B2
:103090000A44A3F85820BDF81E10B3F85A200A4479
:1030A000A3F85A2005F0FEFC002384F8FE30FFF759
:1030B000C0BA792B04D11A4AD37823F0010306E071
:1030C0007A2B7FF4B6AA164AD37843F00103D37063
:1030D000FFF7AFBAB9F800309B063FF5FDAE2020F0
:1030E00005F000FA0F4B10481A685B68011D436039
:1030F00002600BF043F8084B012783F84871EBE6B8
:1031000009B0BDE8F08F00BFA8330020620E002098
:10311000581000200F1B0020100D00205418002014
:10312000682A00205C180020DC0F0020B54B2DE938
:10313000F04FB3F90610B44B8FB01F6800937A8933
:1031400091420EDBB1F5FA6FFC79BFBF8B1A634376
:10315000A2F5FA6493FBF4F4ACBFC4F164046434E4
:1031600000E06424A94BAA4AB3F894B193F95E3104
:1031700012689BB2019215460293002240F2E6309B
:10318000A04B4FEA420C33F912E0CBEB0E0303F2F3
:10319000F316864203D8002BB8BF5B4201E04FF420
:1031A000FA73022A2ED0019E96F811611EB1B34225
:1031B000CCBF9B1B0023642093FBF0F8954E6FF06F
:1031C000630A36F818900AFB083A08F1010836F944
:1031D00018600FFA89F8C8EB060606FB0AF696FB9C
:1031E000F0F68D484E4420F80C60BE183679642005
:1031F00073438A4E93FBF6F364339BB2634393FBB2
:10320000F0F02CE0019890F812611EB1B342CCBFEF
:103210009B1B0023642093FBF0F0DFF82C926FF0EF
:10322000630808FB003A39F91060013039F91000E1
:10323000002BA0EB060000FB0AFA9AFBF8FA0298B2
:10324000C6EB0A0A0AFB00FA7348B8BF5B42A0F853
:1032500004A0B8794343714893FBF0F064306B7875
:103260004FF06408434393FBF8F36D4E022AB354C6
:10327000EB7A6C4E00FB03F393FBF8F3B3546B7DD6
:10328000654E00FB03F090FBF8F0674B9854674BDA
:103290000ED1DE4583F802800DDB5C4CB4F896213C
:1032A000914214DBB1F5FA6FA8BF4FF4FA610FE059
:1032B000DE459C5404DA36F80C305B4226F80C30BC
:1032C0000132032A05F101057FF458AFE5E7114605
:1032D000891A4FF47A735943C2F5FA62B1FBF2F1DD
:1032E000642391FBF3F2DFF874E16FF063073EF8BB
:1032F000120007FB021101323EF9122007B2D21B65
:10330000514391FBF3F30344F380494B424D1B8837
:1033100058063BD5474A484B10881B88181A00B2FC
:1033200010F01CF8454910F06DF8074604F0F8FF5E
:103330008046384604F081FF0746B5F9020010F0D8
:103340000DF88146B5F9000010F008F841468246B4
:1033500010F058F839468346484610F053F80146B5
:1033600058460FF045FF10F013FA414628804846B2
:1033700010F048F839468046504610F043F80146B0
:1033800040460FF037FF10F003FA68802C4D2B6891
:10339000990740F19E8045F207212A4B2A4F1A686F
:1033A0007B69D31A8B4240F394807A6106F070F9FE
:1033B000264BDFF8AC901A789846032AB9F800300B
:1033C00050D10A2B58D90023282088F800300CF05F
:1033D000EAF906F05DF91E4B188806F043F91D4B1B
:1033E0001A68D37890FBF3F0013008281A4BA8BF75
:1033F00008201870537980B243433B8313795843B4
:10340000788339E062330020CC0F00205810002070
:10341000A00F00201A2D0020501000200CFEFFFFEE
:10342000AC2C0020F60E0020C42C00202C2C0020F8
:1034300018190020560E00204810002035FA8E3C46
:103440003818002090330020E80E0020A01800203B
:10345000941B00203C1800204C000020022D00206E
:10346000401800200A2B07D803239A4A88F8003016
:10347000002313703B837B8398F80030964A012B1E
:103480000CD002D3022B1BD023E03A8BB9F80030CA
:103490009A421EDD012388F800300FE0B9F80010D1
:1034A0007B8B8B4202DD022313700FE08B4B1B8B57
:1034B0000133994202DD002313700AE0082006E080
:1034C0007B8BB9F8002001339A42E3DC07200CF033
:1034D00099F92D682A0573D5814B804F1B68FA69CD
:1034E000C2EB030845F20722904569DDFB61B6F99E
:1034F0000630B4F84E11A3F57A7B7A4B7A4ED3F8A6
:10350000009099F80A30012B03D042D3022B20D02F
:1035100041E0764B396A5A7B754B082033F812200C
:1035200091FBF0F392B2C91A8B183B6293FBF0F354
:10353000BA8440F6E4429BB25343B9F80820C2EB88
:1035400013334FF47A725343B9F9062093FBF2F325
:1035500020E0684BB9F808A01B78C6F800A05B070C
:1035600019D565480CF0B5F820B915F0100F18BF43
:103570004FF0000B0BFB0BF1322391FBF3F3B9F986
:1035800006205B445A434FF47A7392FBF3F353449F
:1035900000E0002333603368D7E90A0103FB08F831
:1035A0004FF47A7398FBF3F810EB080041EBE871E5
:1035B0000023C7E90A01514A10F030F9504B186056
:1035C000504E3368DF0427D5280622D54E4B1B7892
:1035D00099071ED54D4B187804281AD900224C4B58
:1035E0000521D718951C4FF00A0E122AD154E9B2C2
:1035F00087F801E004D0B0EB510F2A46EFD800E085
:1036000014215A18322002F8010CFF225A540F20BC
:1036100000E00A200CF0F6F83E4D2A68002A51D04E
:103620003D4B3E4F18683968984681424AD83C4B1A
:10363000DFF8F89019785268E1B94FF0010A83F881
:1036400000A0B9F80030D35C23B350460CF0C0F8AA
:10365000344B83F800A006F08BF8B9F80030CBB9F2
:103660002B681B78053B534514D80CF075F82E4B8E
:1036700018600FE04FF0000A83F800A0B9F800309E
:10368000D35C3BB150460CF0A3F8264B83F800A066
:1036900006F06EF82B68B9F800205B6823499B5C44
:1036A000FE2B02D100230B800CE0FF2B02D10CF08B
:1036B00095F807E0D8F800000A2505FB030301325E
:1036C0003B600A800B4D2B785A0733D5184B0822E4
:1036D0005A6166E04C000020A0180020E80E00208F
:1036E000903300203C180020481800207C1B00204C
:1036F0008C1B0020AD330020DE110020407E050031
:103700004C180020640F0020541800205A18002084
:103710003C300020382D002030100020302D0020BB
:103720002C2D0020501C0020F4320020342D0020CD
:10373000000C01403268D7075CBF43F001032B70D7
:103740009A4B9B4A1B781E075EBF2B7823F0010320
:103750002B70984B1B6813F0040F02D09649098810
:1037600051B99649098809B1980705D4944B1B882B
:10377000003318BF012333B1022313702B7823F0D9
:1037800001032B7004E02978C90758BF0223137086
:103790000BF0E2FF8B4B1B68C01A002801DB05F021
:1037A000E7FF0EF065FD884B1E780193002E00F0B8
:1037B000B280864E3368002B00F0D08630680CF063
:1037C000C9F8002800F0CA86804B814C18680CF0BC
:1037D000BEF8092801D03F2850D14FF000094F46CC
:1037E000D4F800807B4DB8F1000F05D07A482968E5
:1037F000424613F0C5FB10B9A94607B92F46774BCF
:1038000010359D42EFD3C7B1D7F800E0D9F800C01A
:1038100023681EF803501CF80300A8420DD15A1C5F
:103820006D4938B92D2B05D8694D2A602025CD5416
:10383000885402E0CD542260EAE723680BB14F457B
:1038400011D067480EF092F94F4507D857F8100B82
:103850000EF08CF909200EF081F9F5E761480EF0C1
:1038600085F94FF0000823689845A7D25A4B13F802
:1038700008000EF073F908F10108F4E72368002B43
:1038800040F05086042840F08D86534809F066FCCD
:1038900000F064BED8F80000DFF85CA10CF05AF824
:1038A00030B3DAF800000CF052F8DBF800300246D2
:1038B00093F8481000293FD1242840F0A18001222C
:1038C00083F84820DBF80030DFF828A193F848207F
:1038D000062ADFD193F8490001F02EFF8346002825
:1038E00000F0B9800EF09AF83B68002283F8482077
:1038F0003D4B93F8353053B159F8060004F092F877
:103900000CF0DEF904F006FE384A394BDA604C362A
:10391000982E00F02386DFF8E49006EB090393F875
:103920004A20012AF3D1334F56F809203B60324B2D
:10393000BB461A609846ADE7012904D14D2814BF53
:1039400000220222BCE7022904D13C2814BF002235
:103950000322B5E703290CD140284FF0000102D91A
:1039600083F84810AEE758711971D9719871042223
:10397000A6E7042906D1997983F849004A409A714B
:1039800005229DE705299DD15879197988429879B2
:1039900006D950409871481C18710B441A7291E76F
:1039A00090420CBF062200228AE700BF5418002074
:1039B000501C002050180020A4330020120E0020BC
:1039C000A6330020541C0020B233002038300020E1
:1039D000A42A0020C4A30108742A0020A4A5010879
:1039E00088BB01088DBB0108E80E00200400FA0521
:1039F00000ED00E0F8180020FC180020BC21002099
:103A00002B78BF4958073FF55DAF232ADAF800301D
:103A100014D10292019A01201070BA4803910360F8
:103A2000B9480363B9480EF0A1F8B9480EF09EF802
:103A30000399029A0B7843F002030B70B54B1B6895
:103A40001B78934201BFB44AB44B1A60B44A04BF16
:103A5000B44BDA6036E7DAF8002092F849304A2BA6
:103A600000F049815BD8332B00F0488421D8292B02
:103A700000F0E28309D8252B00F0B983272B00F052
:103A8000BD83232B40F08A85E3E12D2B00F0E583F5
:103A900007D82B2B40F082850DF092FF607100F06B
:103AA0003CBD2F2B00F09784312B00F0A98400F04F
:103AB00075BD3E2B00F015811DD8372B00F05284C8
:103AC00004D8352B00F0FE8100F068BD392B00F0E2
:103AD000A2833C2B40F06285DFF84C82D8F800A02E
:103AE0000DF06EFF8AF80000D8F8003018780CF05E
:103AF000D5F900F012BD432B00F0118405D8412BFD
:103B000040F04C854FF00008FDE3442B00F0C484E6
:103B1000482B40F043850AF029FD00F0FEBCD02B75
:103B200000F0DE8268D8CA2B00F006811CD84E2B2C
:103B300000F0B68310D84C2B40F030850DF040FFDC
:103B400084F8D4010DF03CFF84F8D5010DF042FF5C
:103B5000A4F8D60100F0E1BCC82B00F09180C92B7D
:103B600000F0DF8200F01ABDCD2B00F0C48204D833
:103B7000CC2B00F0CF8100F011BDCE2B00F0C48221
:103B8000CF2B40F00B850DF025FF6FF4AF6283184B
:103B90009BB2C62B98BFA4F894010DF01BFFA4F8AC
:103BA00040010DF017FFA4F842010DF013FFA4F837
:103BB00044010DF00FFFA4F8D6010DF001FF84F8C9
:103BC000EB010DF0FDFE0DF0FBFE84F8EC010DF0B5
:103BD000F7FE84F883010DF0F3FE84F890010DF0F8
:103BE000EFFE514BD3F800800DF0F4FE00EB8000A7
:103BF0004000A8F856000EE3D62B00F0DE810AD86C
:103C0000D22B27D0C0F0B482D32B33D0D42B00F0EA
:103C1000E08100F0C3BCF22B00F0238212D8EF2B1E
:103C200040F0BC84DFF80081D8F800A00DF0D2FE8F
:103C3000AAF85A00D8F800800DF0CCFEA8F8580079
:103C400000F06BBCF32B00F02C84FA2B00F06582A3
:103C500000F0A4BC2B78590700F15F840DF0B0FE92
:103C6000022884F8B40740F24182304B002283F8E6
:103C7000B4273BE20DF0AEFE2D4B188000F04DBC9A
:103C800092F805804FEA5808B8F1120F03D907F0EF
:103C900019F800F042BC4FF0000AC24507D20DF0FF
:103CA00099FE05AB23F81A000AF1010AF5E742462E
:103CB0000023434507DA05A931F813001D4921F80F
:103CC00013000133F5E7122A05D01A4B002123F81F
:103CD00012100132F7E70C4B012283F8342000F078
:103CE0001CBC0DF06DFE84F8DE010DF069FE84F859
:103CF000DD0100F012BC0DF06DFEA08100F00DBCE6
:103D0000AD33002038300020E80E0020BDBB010894
:103D10008DBB0108101B0020EFBEADDEF04F002070
:103D20000400FA0500ED00E0A00F0020581000206C
:103D3000540E00203C1A0020DE4B80461A689A463A
:103D40001278022A6AD1DAF8003008F1080B0293DF
:103D50000DF036FE0FF0FEFAD7490FF007FC029B7C
:103D600043F82B00DAF800B00DF02AFE08F10A0340
:103D70000BEB830B0FF0EEFAD0490FF0F7FBDAF8FC
:103D80000030CBF8040002930DF01AFE0FF0E2FAB7
:103D9000CB490FF0EBFB08F10E0B029B08F1010879
:103DA000B8F1030F43F82B00CDD1B8F1070FDAF8C3
:103DB00000B01AD10DF004FE0FF0CCFABE490FF09E
:103DC000D5FBCBF84400DAF800B00DF0F9FD0FF0A8
:103DD000C1FAB9490FF0CAFBCBF84800DAF800B0D5
:103DE0000DF0EEFD8BF84C0012E00DF0E9FDC34440
:103DF0008BF80100DAF800B00DF0E2FDC3448BF857
:103E00000B00DAF800B00DF0DBFDC3448BF81500B1
:103E100008F10108B8F10A0FC7D17EE3DAF800B063
:103E20000DF0CEFDC3448BF80100DAF800B00DF0C0
:103E3000C7FDC3448BF80B00DAF800B00DF0C0FDED
:103E4000C34408F10108B8F10A0F8BF81500E5D159
:103E500063E30DF0B5FD132883463FF618AFDFF896
:103E600054A2DAF800800DF0ABFD002395490C2236
:103E700002FB0312117A814220D1137808EB8B08E0
:103E800088F879300DF09CFD88F87A000DF098FDE7
:103E900088F87B000DF094FD8B4A8C4B88F87C00F1
:103EA0001A60DAF800008A4B0021186079300BF0B4
:103EB000FFFB884B80F0010018702EE301331C2BB0
:103EC000D4D1E4E60DF07CFD0B2882463FF6DFAE50
:103ED000784BD3F800800DF073FD03283FF6D7AE82
:103EE000062303FB0A8888F8CE000DF069FD88F8E8
:103EF000C9000DF065FD88F8CA000DF061FD88F875
:103F0000CB000DF05DFD88F8CC000DF059FD88F870
:103F1000CD0002E35379092B7FF6B9AE009BD3F8AD
:103F200000800DF04DFD009B88F80000D3F8008064
:103F30000DF046FD88F801000DF042FD009B64285D
:103F40001B68A8BF642018710DF03AFD009B64281F
:103F50001B68A8BF642058710DF032FD009BFF283C
:103F60001B68A8BFFF2098710DF02AFD009B6428F4
:103F7000D3F8008028BF642088F807000DF020FDEA
:103F8000009B88F80200D3F800800DF019FD009B1B
:103F900088F80300D3F800800DF01CFD3B68A8F8FA
:103FA0000A005B790A2B40F2B8824B4BD3F80080B1
:103FB0000DF006FD88F80800AFE280460DF00AFD1E
:103FC000464B23F8180008F10108B8F1080FF5D1A5
:103FD000A3E253790F2B7FF45AAE0DF0F1FC0728C2
:103FE00080463FF654AEDFF8CCA0DAF800B00DF012
:103FF000F1FC0E2303FB08F8C344ABF81901DAF80F
:1040000000B00DF0E7FCC344ABF81B01DAF800B0D8
:104010000DF0E0FCC344ABF81D01DAF800B00DF080
:10402000CFFCC3448BF81F01DAF800B00DF0C8FCD8
:10403000C3448BF82001DAF800B00DF0C1FCC34492
:104040008BF82101DAF800B00DF0BAFCC3448BF80C
:104050002201DAF800A00DF0C7FCD044C8F8230113
:104060005BE20DF0ADFC0F2880463FF610AE0DF080
:10407000A7FCC8EBC808A04488F8D0000DF0A0FC4D
:1040800088F8D1000DF09CFC88F8D2000DF098FC67
:1040900088F8D3000DF094FC88F8D4000DF090FC63
:1040A00088F8D5000DF08CFC88F8D6000BF048FE9F
:1040B00033E200BFA00F0020000020410000C842F2
:1040C00000007A4490990108981100204C0E0020BD
:1040D000500E002013000020CC0F00201E300020C6
:1040E0002B785B0700F119820BF020FF04F03CFAFB
:1040F00004F004FB11E22B78580700F10E82DA4B32
:104100004FF4C8721A8008E22B78590700F1058233
:10411000D64A137843F0040328E02B785A07E5D5F4
:104120003CE20DF04DFCD14B1A7810B142F0020286
:1041300001E022F002021A700DF042FCCC4BDFF8D5
:10414000508318700DF050FCC8F800000DF04CFCC6
:10415000C8F804000DF03EFCC64B18800DF03AFC88
:10416000C54BC64A1880137843F002031370D4E19C
:104170000DF026FC02900DF037FC83460DF034FC68
:1041800082460DF031FC80460DF024FC0DF022FC3F
:104190000DF016FC029BA3B9B94B1020C3F800B078
:1041A000C3F804A004F08DF9B04A137843F001037A
:1041B0001370B8F1000F00F0B081B24BC3F800806B
:1041C000ABE1102B40F0A981AF4BC3F800B0C3F8AE
:1041D00004A0B8F1000F02D0AA4BC3F80080AA488F
:1041E000AA4B0222011D1A7009F0C8FF95E1A060D8
:1041F0000DF0FAFBA3681843A0608EE10DF0EAFB16
:10420000A4F858010DF0E6FBA4F85A010DF0E2FB0A
:10421000A4F85C0181E10DF0D3FB84F878010DF086
:10422000CFFB84F87C010DF0CBFB84F87B010DF013
:10423000C7FB84F87D0170E10DF0CCFBA4F87E0192
:104240000DF0C8FBA4F880010DF0BAFB84F88201E0
:104250000DF0C0FBA4F884015FE10DF0B1FB84F820
:104260008E010DF0B7FBA4F898010DF0B3FBA4F894
:1042700094010DF0AFFBA4F896010DF0A1FBDAF864
:10428000003084F88F015B79082B40F246810DF0F5
:10429000A1FBA4F89A010DF09DFBA4F89C013CE160
:1042A00092F805800323B8FBF3F8B8F1120F3FF63C
:1042B000EEACDFF8E0A14FF0000BC34580F02D819C
:1042C0000DF07EFB8AF89E010DF084FB40F2ED2399
:1042D000984205DD40F6CA039842A8BF184601E09F
:1042E00040F2EE20A0F2EE20192390FBF3F00BF148
:1042F000010B8AF89F010AF1020ADEE70DF060FB6C
:1043000084F8900109E10DF05BFB04EB080308F170
:104310000108B8F1080F83F88601F4D1FDE00DF033
:104320004FFBC4F808B060710DF05EFBA368184342
:10433000A0600DF045FB84F88E010DF04BFBA4F856
:1043400058010DF047FBA4F85A010DF043FBA4F807
:104350005C010DF03FFBA4F87E010DF03BFBA4F8DF
:104360008001DAE053794FF0070AB3FBFAF2C2EBAF
:10437000C2029A1A12F0FF0F7FF489ACB3FBFAFA6B
:104380000AF1FF3A5FFA8AFABAF1FF0F00F0C5802E
:104390000DF016FB5FFA80FB4FFA8BF003F0CAFBBF
:1043A000804600283FF473AC80F800B00DF012FB9B
:1043B000A8F802000DF004FB88F804000DF000FBE3
:1043C00088F805000DF0FCFA88F807000DF0F8FAFF
:1043D00088F80600D4E7DFF8BC8008F1400A0DF049
:1043E000F9FAA8F8AC020DF0EBFA88F8AE020DF07D
:1043F000E7FA08F1040888F8AB02D045EFD18CE069
:104400000DF0DEFA1F2880463FF641AC3B685B7931
:10441000082B7FF43CAC0DF0DDFA08F18A0804EBC0
:10442000880800F03F00A8F806000DF0D3FAB8F8AD
:104430000630800100F4FE501843A8F806000DF085
:10444000BFFA000188F804000DF0BAFA98F80430B9
:1044500000F00F00184388F804000DF0B1FA88F856
:1044600005000CF0DFF958E0120E0020541800206F
:104470005A1800205818002056180020D20F00208B
:10448000D40F0020E40F0020DC0F0020580E002085
:104490005C18002058100020754B012283F835204D
:1044A0003BE00DF08DFAFF28824622D100238DF8E3
:1044B00013309DF81330052B14D89DF813006D4A66
:1044C0009DF81330012102EBC3035B6852F8300002
:1044D000994089B2482203F005FA9DF81330013360
:1044E000DBB2E4E764484FF48051042203F0FAF9A8
:1044F00013E005283FF6CBAB00200DF0B3FA0DF02A
:104500008DFAD8F800000BF01CFA18B932200BF025
:104510004AF9F6E7504603F0F3F900200DF0A2FA4D
:10452000FFF7E0B90C283FD00A2841D1534D544839
:104530000DF01CFB2846232112F00BFD08B1401B97
:1045400020602368002B36D14C48002130222360A4
:1045500012F0C9FC019B1B78002B5FD1494B1B68F3
:104560009B0614D5484B42491B688A6B9A1A002A4D
:104570000DDB464A1278042A09D903F5123303F5F4
:10458000F873434A8B63D36883F01003D360414BC5
:104590009B68002B69D04048984766E006F092FB84
:1045A000FFF7A0B90C2847D13C480DF0DFFA35E001
:1045B0000D2835D1BAE75A1EA95C202901D113462E
:1045C000C0E72E4A00212360D154354B354DD3F836
:1045D0000090D5F800A0DFF8A480504612F0C7FC88
:1045E000074651463A46404612F0CAFC2E4A28B9C0
:1045F00018F807304B445B785B0703D010359542C1
:10460000E7D306E0954204D2781CEB684044984713
:1046100002E026480DF0AAFA002395E7244807E0B7
:104620007F280DD1154A013B002122482360D15437
:104630000DF09CFAFFF7C2B87F2804D1FFF7BEB88F
:104640002F2B3FF6BBA8A0F12002D2B25E2A3FF684
:10465000B5A813B920283FF4B1A85A1C2260074A14
:10466000D0540DF07BFAFFF7A9B80FB0BDE8F08F7A
:10467000E80E0020ECBE010800080140742A00206A
:10468000D4CA010850180020903300205A18002086
:10469000000C01406C220020240F002092BB010876
:1046A0005C000020C4A30108A4A501089DBB01086B
:1046B0008DBB0108B9BB01089148F0B50368914A68
:1046C0009C8AA4B2E1B211F0010F2ED0198821F416
:1046D00000610904090C1980198889B241F48061CC
:1046E000198000211170517899B1917811B9D17860
:1046F000FF290ED1012191701179022901BF19887A
:1047000089B241F400611980517941F001011982A7
:10471000E1E0517901F0FE011982D378FF2B00F01E
:10472000DA80784BFF211970D5E08E073AD5BFF3B8
:104730005F8F1479E4B2012C13D1517889B191784B
:1047400079B1198821F480610904090C1980BFF33B
:104750005F8F198B1988947189B241F400711980A7
:104760001BE0198BBFF35F8F14796649022C0AD1C5
:104770004C7844B1897831B1198821F480610904F9
:10478000090C1980A1E014795E49032C05D14C78FD
:104790001CB18978002940F09880998889B241F449
:1047A000806197E04D0756D501219171517800291C
:1047B00037D09178002934D011791C8802291178DA
:1047C0001DD924F480642404240C1C801E8A95685E
:1047D000CCB2F6B249B26E54198889B241F4007174
:1047E00019800168A31C13700B8A0134DBB264B218
:1047F0002B558B889BB243F480638B8026E0A4B258
:1048000044F400741C801D8A9668CCB2EDB249B2A3
:1048100075541B8A611C49B2DBB2033473541470A3
:1048200014E09178374C09B9217B41B1198889B2DC
:1048300041F40071198013780133137006E0198870
:1048400089B241F4807119800123A37001680B883B
:10485000DB05FCD43FE001F0400101F0FF05E1B1D0
:1048600014781F8A9668E5B2691C64B2FFB23755A6
:10487000C9B21679117049B2CC1CA64201BF9C88FE
:1048800024F480642404240C08BF9C8013798B4298
:1048900021D11C4B02351D701DE027061BD5117858
:1048A0004CB2661C0AD0156901312C5DC9B21C825C
:1048B0001479117049B28C420DD106E0D17815708F
:1048C0001982517809B9117929B9998821F480613F
:1048D0000904090C9980137992F9004001339C4234
:1048E00008490CD100238B708B7933B101688B8818
:1048F00023F440731B041B0C8B8000231375F0BD45
:104900005C2A0020280F00202DE9F04F87B06C4C66
:1049100002916C4922888E690546C2EB26135B43DF
:104920005200C2EBE602B4F902601B135643B4F91D
:104930000420B4F90A0053439B1303EBE62606EB6D
:10494000860380331B12B6F5FA384FEAE6770493F4
:10495000CB6947F1FF39A8FB08AB039308FB09F3C8
:10496000B4F908200BEB430BE389A6610593D31739
:1049700008FB03F102FB0911A8FB02230B44C1173A
:104980001F030AFB01F300FB0B33AAFB0001160314
:10499000194447EA1257020A42EA016292194FEAA1
:1049A0002123E6887B410032A2FB060143F5004348
:1049B00006FB03114B100093CB170193DDE9002395
:1049C0001343B4F810E0B4F80CC06DD00FFA8EF0B9
:1049D000C1170AFB01F1AAFB002300FB0B11BDF973
:1049E00014600B44F71708FB07F106FB0911A8FB3D
:1049F00006670F4479047004801841EAD6315941A2
:104A0000039B0FFA8CF8C3F5801E7246D317002261
:104A100012184FEACE764FEAC3774FEAC8034B41EC
:104A200047EA5E07B61A67EB030740F63543A6FB75
:104A3000030103FB0711DDE900230EF0EFFEB4F9DB
:104A400016204E1302FB06FE470B47EAC147D31759
:104A500007FB03EEA2FB07235643734407FB0366E1
:104A6000A2FB07233344560E46EAC3168219B4F953
:104A700014604FEA636741EB07037143F71700FBCC
:104A80000717A6FB00013944C60C46EA41369219C5
:104A90004FEAE1474FEA1221B4F912207B4141EA83
:104AA000036113010B4400E000230DB11B0A2B60CE
:104AB000029B13B11A46049B136007B0BDE8F08F48
:104AC00000230020280F0020704770476B4B6C4A72
:104AD0002DE9F04F5E89146A4FEA062AB4EB0A0A00
:104AE0009C884FF000054FEA04481C894FF0000BEA
:104AF000A4FB0A6765EB0B0B04FB0B77F40944EA94
:104B0000476418EB04065C884FF000094FEAE7158C
:104B10004FEAC438DC8849EB050787B0CDE9046764
:104B2000A4FB0A6704FB0B77340A44EA076418EB1A
:104B300004064FEA27259C894FF0000949EB050739
:104B4000CDE90067AAFB046704FB0B77F40D44EA88
:104B5000472414F5FA664FEAE75545F10007B6F524
:104B6000FA6F77F10003CDE90267964666DADDE970
:104B70000489A4FB046704FB05F34FF0050C07EB65
:104B80004307A6FB0C230CFB07335F104FEA3206EA
:104B9000B8EB06084FEA920646EA837669EB070906
:104BA0009F10DDE90023921B63EB0703CDE900238F
:104BB000DDE90267334A4FF0FF33964277EB030398
:104BC000CDE9048927DA40F6AC520023A4185D41F0
:104BD00004FB05F3A4FB04456FF0060205EB430557
:104BE000664202FB0566A4FB0223334418EB02066F
:104BF00049EB0307CDE904670B26A4FB062306FB5C
:104C00000533DDE900455B104FEA3202A41A65EB7B
:104C10000305CDE90045DDE902450AFB0BF3AAFBDC
:104C20000AAB0BEB430B4FEADA7242EA4B02A41ACF
:104C30004FEAEB7365EB0305CDE90245DEF824404E
:104C4000009B019DA4FB032304FB05334FEA52584C
:104C500048EAC3284FEA6359DDE90423B8EB0202AE
:104C600069EB03039946D30B43EA494300B1036060
:104C700009B1029B0B6007B0BDE8F08F94220020C1
:104C8000280F002024FAFFFF2DE9F041324C334D6C
:104C900062892B8DB4F904809A1A2389B4F902E051
:104CA0005A43B4F91230D613B4F91420DB0232445B
:104CB00093FBF2F232440A26E2615643A2F57A628D
:104CC00002FB02F3B4F90EC002FB0EFE02FB08F277
:104CD000B4F90C801B130CFB03FC03FB08F31B143F
:104CE00003EB62320232E388921002F50042534332
:104CF0004CF25032B4F920704FEAEE2EB4F9004075
:104D00000EEBEC2C0CEB8404BC40ED6A0234A5EBFA
:104D1000A4043A4162434FEAD3384EBFB2FBF8F3E2
:104D20005400B4FBF8F340F6DE3448BF5B001A12BF
:104D3000524362430A4C08365C43241404EB22427B
:104D400002F6CF62361103EB221300B1036001B10A
:104D50000E60BDE8F08100BFA8220020280F0020CF
:104D600043E3FFFF13B50C4B04465B681B20022195
:104D700001AA984770B19DF804209DF8053043EAD8
:104D8000022303F54E5310334FF48C7293FBF2F36E
:104D90002333238002B010BD8022002037B5104B92
:104DA00004465D68187806216A46A847A8B19DF8B0
:104DB00000209DF80130012043EA022323809DF862
:104DC00002209DF8033043EA022363809DF804200B
:104DD0009DF8053043EA0223A38003B030BD00BF35
:104DE0008022002013B5104B04465B683B2006214F
:104DF0006A469847A8B19DF800209DF8013001202F
:104E000043EA022323809DF802209DF8033043EA01
:104E1000022363809DF804209DF8053043EA0223B5
:104E2000A38002B010BD00BF80220020B0F5807FBB
:104E30000ED0BB280ED861280ED829280ED81328EA
:104E40000ED809280ED8002814BF0620002070476D
:104E500000207047012070470220704703207047F0
:104E6000042070470520704710B5224C2368998AAA
:104E700089B211F4706F1EBF1F4A012082F8300002
:104E800011F4E06F2BD01A8B9A88890522F4806286
:104E90004FEA02424FEA12429A8020D41A889205C1
:104EA0001DD41A88D0050FD51A88D105FCD41A88CC
:104EB00092B242F400721A801A889205FCD40F4B09
:104EC000187807F0AFFE0AE01A8892B242F4007236
:104ED0001A809A8822F440721204120C9A80226876
:104EE000938A23F470631B041B0C9382024B0022F1
:104EF0001A7510BD5C2A0020280F0020602A0020AF
:104F0000054A08B5138801339BB21380034B187808
:104F100007F088FE002008BD620F0020602A0020F4
:104F200008B54FF4804004F037FA012801BF044B64
:104F30004FF480425A61034B08BF83F8310008BD2B
:104F400000040140280F002010B5054C23681869A3
:104F500004F022FA18B123681A69024B5A6110BD95
:104F60008C22002000040140F8B50E461746084C7C
:104F70004FF48055656140F080000EF01DF8384612
:104F8000002132460DF0E2FF25610120F8BD00BF8F
:104F9000000C014070B50E46054C4FF4805565611C
:104FA0000EF00AF830460EF007F82561012070BDBA
:104FB000000C014070B5FFF739FF104C0546192071
:104FC0000AF0F1FBA36815200021984710B90220D0
:104FD0000AF052FC45F01801A368C9B216209847A0
:104FE000A368002117209847A36801213D20984716
:104FF000A3683E200121BDE87040184780220020B0
:10500000F0B5284D85B095F83230002B47D1264CAD
:105010002368002B43D01A68244E12B1B1690A43A9
:10502000B2619A889868ADF8002002228DF80320BA
:10503000694604228DF8022007F09FFBB369002720
:1050400043F00103B36123680126187B197D07F043
:105050007FFB2368164993F915000AF057FC236873
:10506000144A1B695361029308230DEB03008DF86A
:105070000D308DF80C708DF80E6004F05DF923682A
:1050800001A85B7D8DF806708DF8043003238DF840
:1050900005308DF807600DF03BFF85F8326005B0F4
:1050A000F0BD00BF280F00208C220020001002401D
:1050B000494F00080004014037B50446FFF7A0FF40
:1050C000254B1A68254B9A420ED14FF40053ADF888
:1050D000043002238DF80730042321480DEB03012F
:1050E0008DF8063007F049FB2046FFF79FFE054686
:1050F0001C4C8021A3686B20984764200AF053FB66
:10510000A36807216820984764200AF04CFBA36835
:1051100000216B20984764200AF045FBA368012119
:105120006B209847A36818211B209847A36810217B
:105130001C209847A36829461A209847A368002195
:1051400019209847A368122137209847A3680121A6
:105150003820984703B030BD28000020001BB7005E
:10516000001001408022002008B5FFF749FF024BE4
:105170004FF480521A8008BD2400002070B5044608
:10518000FFF73EFF2046FFF751FE0546144C8021F5
:10519000A3686B20984764200AF005FBA3680021F0
:1051A00019209847A36803216B2098470F200AF025
:1051B000FAFAA36829461A209847A36818211B20E9
:1051C0009847A36810211C209847A3680221372024
:1051D0009847A36838200121BDE87040184700BFF8
:1051E0008022002008B5FFF70BFF074B5B7813B157
:1051F000012B03D008BD4FF4006201E04FF4805250
:10520000024B1A8008BD00BF7C2200202400002031
:1052100010B51E4C4000C0B2A36023611C4B6071EE
:10522000E1700120002121736070227120751868DF
:1052300084F8301040B383889B0515D40388D905C2
:105240000DD447F230530288920502D5013BFAD1C2
:1052500012E08BB103889BB243F480730380838890
:105260009BB243F44073838047F23053227D12B1E6
:10527000013BFBD100E013B9BDE8104040E6034B11
:1052800093F8300080F0010010BD00BF280F00200F
:105290005C2A002007B5F7216B4606227620FFF72F
:1052A000B7FF9DF800309DF801101B0343EA01137E
:1052B0009DF80210094A43EA1113D3619DF80330A7
:1052C0009DF804101B0343EA01139DF8051043EAFF
:1052D0001113936103B05DF804FB00BF280F002099
:1052E00007B5002101AB03227720FFF791FF9DF85E
:1052F00005309DF804001B0243EA00439DF80600B8
:10530000184303B05DF804FB08B5FFF7E9FF014B54
:10531000586208BD280F002008B5FFF7E1FF014BD8
:10532000186208BD280F0020104B13B51B78104CD5
:1053300013B194F83130B3B1032201AB7720F621D9
:10534000FFF766FF9DF805309DF804201B0243EA35
:1053500002439DF806201343064AB2F92020C2F109
:105360000802D340E36202B010BD00BF3400002049
:10537000280F0020A82200200B4B13B51B780B4CE4
:1053800013B194F8313063B1022201AB7720F621DA
:10539000FFF73EFF9DF804209DF8053043EA022305
:1053A000238502B010BD00BF34000020280F00206C
:1053B00030B505460C46134629462246BDE8304026
:1053C000682025E713B50622044601211C206B4600
:1053D000FFF71EFF08B39DF801309DF8002004215F
:1053E00043EA022242F38D0292FBF1F29DF8023071
:1053F00022809DF8032042EA032242F38D0292FBB1
:10540000F1F29DF8043062809DF8052042EA032302
:1054100043F38D0393FBF1F3A38002B010BD13B5EA
:1054200006220446022118206B46FFF7F1FEB8B1B0
:105430009DF800309DF801209B0803EB0223238098
:105440009DF802309DF803209B0803EB0223638044
:105450009DF804309DF805209B0803EB0223A380F0
:1054600002B010BD314B2DE9F3411B780546002BEE
:105470003CD0002426462746A04601345320322142
:1054800008226B46E4B2FFF7C3FE08B900204AE0E9
:105490009DF801209DF80030202C03EB02231BB265
:1054A0009DF8032098449DF8023003EB02231BB2C1
:1054B0001F449DF805209DF8043003EB02231BB226
:1054C0001E449DF8073003F07F0301D0002BD4D198
:1054D00098FBF4F897FBF4F796FBF4F6144BA5F859
:1054E00000806F80AE8083F833401CE0532032216F
:1054F00006226B46FFF78CFE0028C7D09DF80120DE
:105500009DF8003003EB02232B809DF803209DF8CB
:10551000023003EB02236B809DF805209DF80430D8
:1055200003EB0223AB8002B0BDE8F08192220020A1
:10553000280F002013B5204B400002ACC0B25871B8
:1055400004F8012DD970012200211A7359701A71C3
:105550001A751A4A1C6110689C6083F8301040B3B9
:105560008288920515D40288D4050DD447F23052B2
:105570000188890502D5013AFAD112E08AB1028880
:1055800092B242F480720280828892B242F44072F7
:10559000828047F23052197D11B1013AFBD100E00F
:1055A00012B9FFF7ADFC04E0034B93F8300080F034
:1055B000010002B010BD00BF280F00205C2A0020AF
:1055C0007620F4213122B5E7772048210122B1E786
:1055D000772058210122ADE7064B002193F82020C7
:1055E000054B9201343283F831107720F42102F018
:1055F000FC029FE7A8220020280F0020034B002276
:1056000083F831207720F4212E2293E7280F002001
:1056100003460A46682019468CE713B500222A2162
:105620001C20FFF787FF0E2102221C20FFF782FFBC
:105630000F2103221C20FFF77DFF2B2112221C20AB
:10564000FFF778FF164A02249369164843F00403D3
:1056500093612023ADF8043004230DEB03018DF892
:1056600006308DF8074007F088F822462C211C20D0
:10567000FFF760FF2D2101221C20FFF75BFF2E2189
:1056800000221C20FFF756FF2A2105221C20FFF7CD
:1056900051FF054B4FF480721A8002B010BD00BF5D
:1056A00000100240000801402400002008B50F212E
:1056B00008221820FFF73EFF0E2218201021FFF7C6
:1056C00039FF024B4FF480521A8008BD240000209D
:1056D00008B5134B53201B782D2108227BB1FFF70F
:1056E00029FF31210A225320FFF724FF2C210C220D
:1056F0005320FFF71FFF53203821902209E0FFF7C6
:1057000019FF31210A225320FFF714FF53202C21C7
:105710000A22FFF70FFF40F20912024B1A8008BD60
:105720009222002024000020FEF7C6BFFFF79CBB9A
:10573000FEF7C2BFFFF798BB2DE9F04F4B28A1B091
:10574000044600F0F38500F2B480302800F0638650
:1057500051D8222800F07C8423D8032800F0A281AD
:1057600014D8012800F09281022840F0BF8604205E
:105770000CF078F943200CF040F94C200CF03DF986
:1057800046200CF03AF94C2000F004BE042800F04A
:105790009281052840F0AA861A200CF063F90024B3
:1057A0009BE1282800F0908515D8242800F0778503
:1057B000262840F09B86D54C06200CF053F9B4F80F
:1057C00058010CF052F9B4F85A010CF04EF9B4F843
:1057D0005C0100F061BD2C2800F089852E2800F0C6
:1057E00004862A2840F0828601200CF03BF9C74B42
:1057F000587900F0CFBD3D2800F060831ED83628D0
:1058000000F0D9850BD8322800F0BE85342840F04E
:105810006D8648200CF026F9002500F03BBC3A28A4
:1058200000F0F9823B2800F00C84382840F05E86B6
:1058300004200CF017F9B54C00F037BD452800F0F6
:10584000428627D8402800F0A885422840F04E869E
:10585000AE4C10200CF006F960790CF0CEF8A06880
:105860000CF00CF994F88E010CF0C7F8B4F858015C
:105870000CF0FBF8B4F85A010CF0F7F8B4F85C013E
:105880000CF0F3F8B4F87E010CF0EFF8B4F88001F6
:1058900000F002BD472800F0F485C0F0E1854928FA
:1058A00040F0248602200CF0DDF8984B988900F037
:1058B000F3BC6F2800F00D8366D8682800F083825F
:1058C00024D8652800F0408115D84D2800F03D858A
:1058D000642840F00B8607200CF0C4F8E7200CF099
:1058E0008CF88A4B58790CF088F800200CF085F879
:1058F000042000F0F7BD662800F0D481672840F04E
:10590000F58510200CF0AEF80024F3E16B2800F0D0
:10591000448426D8692800F062826A2840F0E6852F
:1059200010200CF09FF87A4B7A4C187800F00200A7
:105930000CF063F8784B18780CF05FF820680CF0E6
:105940009DF860680CF09AF8744B18880CF08DF88C
:10595000734B18880CF089F8724BB3F8700000F0A4
:105960009BBC6D286F4C00F04D8200F25A820620DD
:105970000CF078F8B4F85C000CF077F8B4F85E003E
:105980000CF073F8684B44E2772800F0DB834DD8C5
:10599000732800F0F7833FD8702800F0C482722883
:1059A00040F0A485594C16200CF05CF8B4F8940132
:1059B0000CF05BF8B4F840010CF057F8B4F8420171
:1059C0000CF053F8B4F844010CF04FF8B4F8D601D9
:1059D0000CF04BF894F8EB010CF00FF800200CF0F1
:1059E0000CF894F8EC010CF008F894F883010CF032
:1059F00004F894F890010CF000F800200BF0FDFF83
:105A0000484B0A201B6CB3F9563093FBF0F080B280
:105A10000CF02BF800F049BC752800F00683414CCF
:105A200000F2E0834FF0000801275CE3A42800F0B7
:105A3000FF8314D8782800F06581A02840F05685AF
:105A40000C200CF00FF8394B18680CF017F8384B95
:105A500018680CF013F8374B186800F043BDF128B4
:105A600000F08B81FE2800F00A84F02840F03E858B
:105A70002C4C04200BF0F6FF236CB3F85A000BF00B
:105A8000F4FF236CB3F8580000F006BC03200BF0C1
:105A9000E9FF00200BF0B1FF20460BF0AEFF0D2018
:105AA00000F078BC0BF0DEFF01200BF0A6FF0B200E
:105AB0000BF0A3FFBAE306200BF0D4FF41200BF05C
:105AC0009CFF46200BF099FF4E200BF096FF4120E3
:105AD0000BF093FF184B1878DEE3184B185D013478
