:020000040800F2
:10000000005000209940010839410108812A010867
:100010003941010839410108394101080000000057
:10002000000000000000000000000000394101084D
:100030003941010800000000394101086BFB00084C
:1000400039410108394101083941010839410108A4
:100050003941010839410108A9950008A595000812
:100060003941010879FB000839410108394101088B
:10007000394101083941010825AF0008394101081B
:1000800051B90008394101083941010839410108D5
:10009000394101083941010839410108A195000899
:1000A00039410108F9D900083941010809DA000885
:1000B000E9D90008D9D90008C9D90008F5570008BE
:1000C000F9570008ED570008F157000839410108B9
:1000D000394101081DAF000815AF00080DAF000839
:1000E0007DFB00083941010839410108000000008A
:1000F0000000000000000000000000000000000000
:0C01000000000000000000005FF808F1A3
:100110002DE9F04F764B774EA3B033600023736028
:100120000EF08CFF18B90EF0ABFF08F0B7FA08F02C
:100130005BFB714A714C1378714D43F001031370EE
:1001400000230A930B930C934FF4E0130D93236851
:10015000A87B43F480332360A36943F01003A361B9
:10016000236803F400330B930A9B01330A930B9B20
:100170001BB90A9BB3F5A06FF2D123685F4913F452
:10018000003301D0022315E00A6842F001020A6040
:100190000A93236803F002030B930A9B01330A932B
:1001A0000B9B1BB90A9BB3F5A06FF2D123689B0789
:1001B00039D501230C93534B53491A6842F010026E
:1001C0001A601A6822F003021A601A6842F00202EA
:1001D0001A606368636063686360636843F48063A4
:1001E00063604A4B1A68043B22F070425A60484AE6
:1001F0001160616821F47C116160596841F000412F
:100200005960D96821F40041D9609B681F0449BF37
:10021000404B4FF4E01313604FF480130D930C9B8D
:10022000012B01D117E0FEE7022B18D168B10D9B1D
:10023000B3F5801F02D14FF4A01305E00D9BB3F579
:10024000E01F02D14FF400130D930D9963680B4327
:1002500043F4803302E0636843F46013636023680F
:1002600043F0807323602168244B8901FBD55968D2
:1002700021F003015960596841F002015960636837
:100280001E4903F00C03082BF9D14B68224803F0F8
:100290000C03042B03D0082B03D01B4B12E0136874
:1002A00010E04B684F68C3F38343FF0303F102037D
:1002B00001D41A4905E0496811F4003F116818BFDC
:1002C00049084B43036063681549C3F303130B44A8
:1002D000197E0368CB400360EB7B003318BF01231A
:1002E00033721368084A93421CD101221EE000BFFA
:1002F000837E000844080020AE3300200010024036
:10030000781000200020024000127A000410014002
:100310003C000020001BB7005800002000093D00F1
:1003200020910108974A934202D10222964B1A70FB
:10033000DFF8B0B2954BDFF8B0C2CBF80C30A36950
:10034000604643F00103A361636A4FF00008F36065
:10035000636A0DF1880A43F080736362A3694FF00A
:10036000100943F01C03A36122AB03934FF6FF7304
:10037000039ACDF810C022F82C3D114603928DF857
:100380005E800BF0F0FB824803990BF0ECFB814898
:1003900003990BF0E8FB0223DDF810C08DF8433021
:1003A0004FF400732AF8483D604651468DF842905C
:1003B000CCF81030CDF810C00BF0D5FB764A03987E
:1003C000536843F0007353600DF086FC734A179B2B
:1003D0004146B3FBF2F3724A72481360182216F0DA
:1003E000E2F9714B4FF47A721B68B3FBF2F36F4A78
:1003F000013B5360F0238BF823300723C2F80880B9
:100400001360AB68DFF8E481039FDFF8E4B1C8F85C
:1004100000309BE80F0087E80F00A3695C4A43F0B7
:100420000803A361A369179843F00803A361082395
:10043000136118A9C2F810900BF095FB19981AA92E
:100440000BF091FBD8F80030180714D5584B93F8EF
:100450008E31012B0FD8564B93F88F21554BDB680B
:1004600013F0805300F0F28505E0514B002283F831
:100470008F2108F08DFB64200FF06DFBA0224E4809
:10048000002116F090F9E369002243F00703E361CD
:10049000A36943F4006343F00C03A361454B4FF0A1
:1004A000000903F1100102F8019001320E2AF5D182
:1004B000FF229A77DA7783F8202083F821203F4BB8
:1004C0003F4A49461A603F483C22D8F8004016F09F
:1004D0006AF94946C4F3801705233B4ADFF8E4E094
:1004E000885C0C224A4302F80E0047B91E380128E6
:1004F0009FBFFF2003F1FF3302F80E00DBB2013192
:100500000529EAD1314A95F805901370304B3149ED
:1005100083F80090304B274A7362C0330B602F4B37
:10052000A10603EBC9035B7848BF01239362002354
:1005300040F2DC512A4A22F813100133082BF7D17C
:10054000504600211C2216F02EF914F4007BDFF82F
:10055000A4A004F400684FD0A3040AD4B8F1000F9B
:100560000AD095F882210AF10C03012A08BF5346EC
:1005700004E0CDF814A002E00AF10C030593039BFC
:1005800016933BE0001BB700D73300200005FA05A7
:10059000000C0140001001400000014040420F00EB
:1005A000602C0020F01F00205800002010E000E028
:1005B0007810002044080020A82C0020802900206A
:1005C0006812002084290020E7B8010849100020A3
:1005D00058030020C42D0020881000209CB601087C
:1005E000B00F002000ED00E0000801405818002086
:1005F0004891010820910108CDF814B0B9F10E0F0F
:1006000004D009F0EF09B9F1080F02D101238DF8E8
:100610005230012007F0F8FA18B14088003018BFB6
:100620000120C4F340038DF84630C4F3403300F09A
:1006300001008DF84030C4F3C0338DF845008DF8CB
:1006400048708DF84330B8F1000F07D095F88281DB
:1006500008F1FF37D7F1000848EB0708C4F300435F
:100660008DF84930B36A1BF1000B18BF4FF0010B36
:10067000003318BF01238DF84B30C4F30053B5F895
:1006800044018DF84C30B5F84631ADF85600ADF860
:100690005030E004B5F8523148BFB948ADF84E309B
:1006A000C4F3804348BFB0F84C018DF84730B5F82B
:1006B000503148BFADF85600B3F5FA7FADF854306D
:1006C00084BF0023ADF8563095F8D231AD4886F896
:1006D0002C30002386F82D3043709DF8523004F002
:1006E0000101002BC4F3C0028DF844808DF8411045
:1006F0008DF842208DF84AB00CBF0023022301B9C7
:1007000002B101330AEB830ADAF838304FF0000BFC
:100710009A1E1A3306920793069B33F8024F0693EC
:100720004FF6FF739C4200F089819DF84520E3B2AB
:10073000240AE5B21AB19A1E012A40F27A819DF884
:10074000482032B190491A018958904A914200F0EC
:1007500070819DF8490030B18B491A0189588B4A44
:10076000914200F066819DF8462052B18649049E70
:1007700001EB03114A68B24203D10A89102A00F042
:1007800058819DF8432052B17F49049E01EB03112B
:100790004A68B24203D10A89022A00F04A819DF8D0
:1007A000442052B178497A4E01EB03114A68B242B3
:1007B00003D10A89022A00F03C81169E7EB1724F55
:1007C000326807EB03177968914208D13A89B188FA
:1007D000914200F02E81F188914200F02A81022C92
:1007E00002D19DF8402003E0012C04D19DF8412066
:1007F000002A00F01E819DF84B20634C1E015AB167
:100800009DF8522042B9A3F10802012A04D8A25946
:1008100060498A4208BF04259DF84C20344452B1F7
:100820009DF852203AB910B10C3B012B01E0043B7A
:10083000032B40F2E680012D48D1574FDFF848A145
:10084000FF2387F8743087F875300AEB06035A7B6C
:10085000586803F108091B894FF00008ADF85C30B7
:1008600017A9022387F87880C7F884408DF85F3095
:100870008DF85E2087F83080C7F83480C7F838805C
:10088000C7F83C80C7F8708087F8768087F8778053
:100890000BF069F95AF8060099F80210424608F080
:1008A000D0FC204641462A460AF08CFA3B4BC7F85A
:1008B0009080C7F888303A4B2046C7F88C3007F153
:1008C000880107F18C020AF0C5FAB2E0022D48D186
:1008D0005FFA8BF24FF01C0C0CFB02FC2E4B002736
:1008E00003EB0C080893284B4FF001099A19517B30
:1008F000506802F1080A128988F879B08DF85E1004
:1009000088F87A7017A988F8827088F87890C8F803
:100910008440CDF824C0ADF85C208DF85F500BF01A
:1009200022F9194B9AF8021098593A4608F089FCB6
:10093000204639464A460AF045FA1A49089BDDF82E
:1009400024C0C8F8881018496344C8F88C1003F113
:100950008801C8F8907020460A1D0AF07BFACB4443
:1009600067E0032D4BD19DF847300B4D0F4EFBB187
:1009700095F82E70204608214FF6FF72002332E0D2
:1009800078100020710800204CB4010800040040D9
:10099000000C0140002C014044080020B18C0008EC
:1009A000918D00087D920008898C0008742C00202D
:1009B000BDF8542095F82E70B2F5FA7FBDF8563088
:1009C0000BD986492046B1FBF2F2082192B208F019
:1009D0008DFC834B46F827000AE082492046B1FB94
:1009E000F2F2012192B208F081FC7F4B46F8270019
:1009F000C36095F82E30013385F82E3019E0042DB0
:100A000017D1BDF84E20774B784D93FBF2F220467C
:100A1000BDF85030012192B295F82D6008F066FCC7
:100A200095F82D3005EB86060133C6F8580185F898
:100A30002D30069B079A93427FF46EAE6B4D6C4B44
:100A400095F82D20002485F878216A4A1C701678C4
:100A50009846A6F11702022A19D86B6A0021185984
:100A600003EB040912F0C8FA10B1AB6A5BBB25E0D6
:100A7000614F99E80F00274487E80F0098F800308D
:100A800010340133C02C88F80030E6D1EDE75B4B21
:100A900013F836E003EBC603D3F804C088F800E08F
:100AA000BCF1000FE1D07445DFDA534F23011F443E
:100AB00063440FCB013487E80F00F4E7504F3B68E5
:100AC000DA0424D41DE04F4B4F4A13F8360003EBF1
:100AD000C6035C681070002CF0D000238342EDDA6E
:100AE000C3EBC3016218D2F800C0DFF844E1013360
:100AF00041F80EC001EB0E079188B9809279BA7166
:100B0000ECE706F0EF03082B404B25D126E098F8E0
:100B10000030012BF5D93E4C04EB031303F1100810
:100B200010344445EDD054F8100C4FF07C5112F0C5
:100B3000CFF84FF07C5144F8100C54F8140C12F01C
:100B4000C7F84FF07C5144F8140C54F80C0C12F018
:100B5000BFF844F80C0CE3E70E2E08D11A78182ED3
:100B600042F010021A7008D10FF08CFA05E01A78E2
:100B7000192E22F010021A70F5E70FF067FA3B68A1
:100B8000244C5B035EBF244B01221A70234B244884
:100B90001A78994642F004021A70224A1178904657
:100BA000022934BF142310238DF85E304FF0020366
:100BB0008DF85F30A3694FF4805243F00403ADF821
:100BC0005C2038BF0026A36128BF012617A90AF0C0
:100BD000CAFF154B76B3154A2DE000BF00127A000C
:100BE000B18D000840420F00A18D0008440800208C
:100BF000A42C002058030020940200209CB6010879
:100C000058180020109F0108502D00207418002053
:100C10009C02002000100240C0070020AE330020DC
:100C200000080140D7330020BC330020C5F800087D
:100C3000512D0020724A00201A600EF0A1FF714B66
:100C4000714E93E80300039B4FF0030B83E803000E
:100C5000A369179843F00803A36118A90AF083FF5A
:100C6000E369304643F48043E3612369039943F425
:100C70008043236118238DF85E304FF42043ADF894
:100C80005C308DF85FB00AF06EFF04224FF48043B1
:100C9000304603998DF85E2004924FF4805AADF8E7
:100CA0005C300AF060FF1023304603998DF85E3007
:100CB000ADF85CA00AF057FF2369322043F480436B
:100CC0002361236923F480432361504B198801F485
:100CD000415141F4457141EA0B011980998B21F48E
:100CE00000610904090C998307211982198889B2C6
:100CF00041F0400119809F23C6F810A08DF83C30C8
:100D000000238DF83D308DF83E308DF83F300EF0E9
:100D100022FF049AC6F814A003980FA911F07CFDD5
:100D2000C6F810A09DF85E309DF85D201B0243EAD6
:100D300002439DF85F201343354A934215D0322079
:100D40000EF009FFC6F814A0F52011F09BFDFF205E
:100D500011F098FD7028C6F810A006D198F8003060
:100D6000022B04BF2B4B83F800B098F80030032B04
:100D70000CBF1F20022006F0CAFE98F80030032B9B
:100D800003D001200BF044F907E0022006F03CFFFD
:100D90000028F6D04388002BF3D03E684FF0100BAC
:100DA00006F40043039306F4006304931A4B0021F6
:100DB00018465A46069398F8008015F0F4FC4FF652
:100DC000FF72069BADF83C2002224FF0000A16EAA3
:100DD00002018DF83E208DF83FA01E4620D022A9AA
:100DE00021F84CBD0D480DF023F904233370072280
:100DF000012386F801A0B370F2709A4611E000BF9B
:100E0000D9F8000868910108000C01400038004042
:100E100015202000D7330020EC29002000080140D5
:100E20008A46039B8BB122A9022221F84C2DA348AC
:100E30000DF0FEF801220AEB0201072386F805A057
:100E40003271B271F3715FFA81FAB8F1010F12D900
:100E5000202222A921F84C2D98480DF0E9F805220E
:100E600001233272B3720AF10102072386F809A046
:100E7000F3725FFA82FA049B93B1022222A921F84D
:100E80004C2D8F480DF0D4F8092201233273B3732F
:100E90000AF10102072386F80DA0F3735FFA82FAC4
:100EA0006268884842F4404262606269DFF81482F6
:100EB00042F001026261A26942F40072A2610CF088
:100EC00092FE17A80CF064FE7F4A002417927F4A16
:100ED000BAF1010F189294BF224680221C924FF45F
:100EE00080721D924FF480621E92202240461F9213
:100EF00017A94FF4005220921994CDF868A01B94C2
:100F000021940CF052FED8F80020714942F0010201
:100F1000C8F800204A68BAF1010F22F4702294BF89
:100F20000020012022F4807242EA00224A60886890
:100F3000684A0AF1FF33024042F4602242F00202A2
:100F40008A60CA6ADBB222F4700242EA0353CB62BF
:100F5000012332199178002963D0305D591C09288A
:100F6000C9B2D278DFF868C112D9A0F10A0EDCF854
:100F70000CA00EEB4E0E4FF0070808FA0EF82AEA06
:100F8000080802FA0EF248EA0202CCF80C200FE040
:100F9000DCF8108000EB400A4FF0070E0EFA0AFE54
:100FA00028EA0E0E02FA0AF24EEA0202CCF81020EB
:100FB000062BDFF81CE110D8013BDEF8342003EBF0
:100FC00083034FF01F0C0CFA03FC22EA0C0200FA18
:100FD00003F31343CEF8343022E00C2B10D8073B38
:100FE000DEF8302003EB83034FF01F0C0CFA03FCF8
:100FF00022EA0C0200FA03F31343CEF830300FE07C
:10100000A3F10D02DEF82C8002EB82021F23934035
:1010100028EA030C00FA02F34CEA0303CEF82C3062
:101020000B460434102C94D1294B9A6842F48072F8
:101030009A609A6842F001029A609A6842F0080247
:101040009A609968224A0C0746D5FAE7013A092ABC
:101050003FF611AA05931A4BDBF82C00C3F8149045
:10106000039B1860194604980AF07DFD049B3C2000
:101070001A46082313610EF06EFD114BC3F8109051
:10108000059B1F4695F88F319F42BFF6EEA9049B42
:10109000DFF82CB04FF00809CBF810907820C3F897
:1010A00014900EF04DFD049BCBF814907820C3F8FB
:1010B00010900EF045FD0137E4E700BF0008014045
:1010C000000C0140080002404C240140FC29002093
:1010D00000240140FDF7F1FF936843F0040393609F
:1010E000C14B9E6816F00406FAD1C04C9A68B4F859
:1010F000580142F4A0029A60002840F03D86B4F9FD
:101100005A31002B40F03886B4F95C31002B40F0A6
:1011100033863B6898031FD5C8200EF01CFDAE2017
:101120000AF0E1FE08B10AF0E3FE85F87901C82073
:101130000EF011FDAE4B0021C5F87C31AD4D0C22F7
:10114000284615F030FB0223EB7010F0F2F80EF099
:10115000DBFCA94B0344AB60A84D94F868C12B6835
:10116000B4F86001B3F956E094F85F1194F8672180
:101170006346CDF800E008F003FB10B901200EF043
:1011800053FD99F80030102243F0020389F8003033
:101190009B4B4FF00A085A6108221A61DFF86092EF
:1011A0001920D9F80C3008F1FF3883F01003C9F882
:1011B0000C30D9F80C3083F00803C9F80C300EF06D
:1011C000CAFC01200EF0DCFC19200EF0C4FC00204B
:1011D0000EF0D6FC18F0FF08E0D10823C9F8103053
:1011E0004FF0100A874BC9F810A01A68984612F001
:1011F000080F09D0844BC9F814A01B689847834B8B
:101200000122C9F810A01A70814BDFF82C921B68DC
:10121000187B11F009FD7F4911F05AFD07F01AF90A
:101220008246B9F8000011F0FFFC514611F050FD64
:1012300015F0C6FC784B1880B9F8000011F0F4FCEA
:101240000146764811F0F8FD754911F0F5FD754B32
:1012500070491860744BD86811F03AFD734911F069
:1012600037FD734BFF211860724B1B22184615F097
:101270009AFADFF8C8E1002273460270D8F800201D
:10128000012112F0020F8EF800101FBF41700321E0
:101290008EF80010022118BF8170510741BF9EF8DF
:1012A000001001F1010E83F800E04FF0030E48BF7B
:1012B00000F801E012F00A0F0ED01A7804218154D0
:1012C000511CC9B24FF0050E00F801E0D11C0232EA
:1012D0001970D2B20621815439688F0641BF1A783D
:1012E000571C1F70072748BF87540A0608D51A786D
:1012F00009278754971C01321F70D2B20A278754DE
:101300006779082F01D00E2F08D11A7802F1010E4B
:1013100083F800E04FF00B0E00F802E01A7811F4A9
:10132000803F4FF00C0C00F802C002F1010E1CBF10
:10133000DFF808C102325FFA8EFE83F800E01FBFBB
:101340008CF800203B4A4FF00E0C02F80EC04A0702
:1013500048BF1A784FF0120C41BF02F1010E83F81A
:1013600000E04FF0100E00F802E01A7811F4806FE0
:1013700002F1010E5FFA8EFE83F800E000F802C071
:101380000ED094F81CC2BCF1000F09D0DFF8ACC03D
:1013900002328CF80020274A4FF0130C02F80EC0DE
:1013A0008A0541BF1A7802F1010E83F800E04FF080
:1013B000150E48BF00F802E0182F41D11A784FF0FF
:1013C000160E00F802E002F1010E5FFA8EFE4FF0F9
:1013D000170C00F80EC002F1030E0232D2B283F8ED
:1013E00000E087542CE000BF00240140781000206A
:1013F000FE11002074270020404B4C00C00F00203D
:10140000000C0140701800202C200020F400002067
:10141000F401002035FA8E3C100200200AE81C413D
:1014200000401C4628010020781F0020BD3786356B
:10143000F0010020890F002024000020880F0020E8
:101440000F0341BF1A78571C1F70192748BF8754D4
:10145000CA0541BF1A78511C19701A2348BF83541A
:1014600000219822774815F09EF908F0BCF87649DB
:10147000764B77481960B4F84E21764B0160764977
:101480001A800023754AD5F800E00B70B4F8941167
:10149000138093701FFA81FA0EF17902DFF80C9233
:1014A0006F48D9F80070DFF808C207F5967720F882
:1014B00013A04CF823700133122BEFD1694F0EF1BA
:1014C000C90ED7F800C01CF4805F08BFB4F89AA119
:1014D000A0F806A01378B3B9937892F803A0534507
:1014E00011D20BB1013B01E00AF1010303EB8303CD
:1014F00092F801A003EB830303F561739BB20AF139
:10150000040A20F81A3004327245E3D11CF0080FA7
:1015100000F0FC8094F88E31062B00F2F180DFE8B9
:1015200003F004070E355172720045F2F05201E0EB
:1015300042F6F8224C4B1A8008F0DEF8DFE042F663
:10154000F822494B09011A800A2391FBF3F1002389
:10155000A1F5B061454A42F823100133122BF9D1AD
:10156000434A444940201160434A13700EF0D8F9B1
:10157000002800F0C58001234FF0070B90F9000010
:1015800040218DE808083D4A3D4BB3E042F6F82281
:10159000354B40201A803B4A354B1A60364B10229F
:1015A0001A700EF0BDF9002800F0AA8001234FF058
:1015B000000A90F9000040218DE80804324A4FF4F7
:1015C000E13397E042F6F822274B40201A802F4A59
:1015D000274B1A60284B08221A700EF0A1F9002838
:1015E00000F08E8001234FF0000C90F900004021A4
:1015F0008DE80810264A4FF4E13306F0B5FA254B82
:10160000C3F8800178E042F6F821174A062B1180D2
:1016100019494FF00C02DFF89CE01F4C1F480A707C
:101620004AD0002323708EF8003003701C4B1B211E
:1016300019701C4B4FF4E1341A701B4B05221A70C1
:1016400047E000BFC81E0020FE110020240E00202D
:1016500040330020280E00205F0D00204C33002076
:101660008A33002058180020580200202C32002015
:1016700028000020DD230108641F002085250108C3
:10168000A0860100C9230108D9240108B523010857
:101690008D240108440800205929002058290020E1
:1016A0007B2900203B3300207C29002050100020A3
:1016B000A80D00203C3300200021217001708EF81D
:1016C00000103C49212008703B493C4C0A703C4AC0
:1016D00013703C4A3C4B40201A600EF021F978B15F
:1016E00001234FF0000E90F900008DE808402346DA
:1016F000364A402106F038FA003018BF012028B9D8
:10170000082006F099FF324A2F4B1A603B68314A95
:1017100013F4804F1FBF122111702F482A4918BFA0
:10172000086042F20101194099B144F620602B494A
:101730000880980441BF082111702948224948BFF8
:101740000860D90741BF0C21117026481E4948BFC7
:10175000086011781C06A1F10401517040F18280EB
:10176000214B22484FF0000A214CC0F884315146E9
:10177000152200F5C470039384F801A0C4F804A0F6
:10178000C4F808A015F00FF8039BDFF868B0053B1C
:101790005046CBF800300BF096FED9F8003002200E
:1017A000E3600EF0BDF8DE4630BB802006F044FF5B
:1017B00051E000BF7B2900203B33002090D0030084
:1017C0007C29002041DA00082800002055DA0008B2
:1017D0003D240108641F00200D2401085802002048
:1017E0002D2401081D24010868120020440800204F
:1017F000440100206401002090F805C06378C749C7
:101800000C2202FB03125278624504D00133DBB292
:10181000042BF4D900236370DEF8003062781B7863
:1018200090F90000002B4FF00C0303FB021314BFD0
:101830004FF0030E4FF0010E00225B78CDF800E070
:101840000192022106F090F9B54B18600028ACD047
:1018500001200BF038FE2868B24B00F5C5721A6003
:101860000BF0D8FE3B68980553D5AF4AAF4C059BAB
:10187000102523609369AE4843F001039361059BF3
:101880000EA91B888DF83A50ADF8383002238DF838
:101890003B300AF068F92368A5485B880EA9ADF8CB
:1018A000383004238DF83A300AF05DF923680120BE
:1018B000197A0AF043F923689E4A5B684FF0000AE0
:1018C000536117A88DF86150012517938DF860A01A
:1018D0008DF862500CF06EFB23680FA85B7A8DF8D0
:1018E0003EA08DF83C3003238DF83D308DF83F50FD
:1018F00010F074FFD9F800308F4A3C3B1360D8F8E1
:1019000000304FF0FF3243F01003C8F800308B4B2B
:101910001A608B4B8B4A8C4C13608C4A803313605B
:101920003B680025D903257040F1B28040F22A3986
:10193000DFF850A2DFF8F0B10EF0DCFC4FF0010848
:101940004A465046294684F8008014F02CFFDBF804
:1019500018307F4843F00403CBF818304023ADF82B
:10196000383018238DF83B300EA903238DF83A3018
:101970000CF05EFBDBF81C30764A43F00203CBF838
:101980001C30754B754C1B68ABF6947BB3FBF2F3C4
:101990002288013B22F45C721204120C22809BB25A
:1019A0001D22A2852385A4F81480238C23F0010333
:1019B0001B041B0C2384238CA188228B23F002039D
:1019C00022F0730212041B04120C1B0C89B242F0A9
:1019D000600243EA0803A1802283A5862384238B27
:1019E00023F008031B041B0C43F008032383B4F803
:1019F00044306FEA43436FEA53439BB2A4F8443048
:101A0000DBF8A83F43EA0803CBF8A83F58460CF0A0
:101A1000EAF817A80CF0BCF8514BCDF860A017936A
:101A200080231C934FF480734FF0100A1D93584687
:101A30004FF4005317A92093CDF864A0CDF8689017
:101A40001B951E951F9521950CF0AFF8A3890FA843
:101A50009BB243F40073A381DBF8003043F0020330
:101A6000CBF800308DF83CA08DF83D808DF83E50CD
:101A70008DF83F8010F0B2FE3A4B1A683A4B43F8AB
:101A800026200136202EF7D109F07AFF09F078FFE1
:101A90003B685A0540F18C80344C354BD4F8C8640F
:101AA00004201E600DF03CFF0421C4F8CC0406F0B5
:101AB00061F9304B84F8D00408201E600DF030FF2F
:101AC0002D4B0821186006F055F92C4D84F8D104EF
:101AD000002128462C2214F066FE8E236B704FF0F6
:101AE0007C09E0234FF07D08EB7085F8009085F8C5
:101AF0002B80234D2C220021284614F054FE8A23EB
:101B00006B701020A023EB7085F8009085F82B8077
:101B1000C4F8D4640DF004FF102135E0288D0108CD
:101B200070270020800E002000100240400100209D
:101B3000000C0140000401403C010020E40F0020A3
:101B4000A41200203C190020C1070020B427002067
:101B50000008014000366E015800002000040040DB
:101B60003404004070910108C2070020440800209E
:101B700064180020BC180020081900208C180020D0
:101B8000C1180020E1090020C4F8D80406F0F2F8DA
:101B900084F8DC042020C4F8E0640DF0C1FE2021AC
:101BA000C4F8E40406F0E6F884F8E80410F00AF952
:101BB000814B824C1B78022B65D1814A002513880A
:101BC000322023F040031B041B0C138013884FF4B6
:101BD000805623F038031B041B0C138013889BB220
:101BE00043F0400313809F238DF83C308DF83D5027
:101BF0008DF83E508DF83F500DF0ADFF8DF85D50E3
:101C0000704D04226E6117A80FA910F005FE2E6119
:101C10009DF85E309DF85D201B0243EA02429DF86C
:101C20005F301343684A934219D00AD8A2F51A428A
:101C3000033A93420CD002F51A420232934209D081
:101C40001CE0624A934205D00132934207D015E06E
:101C5000202300E0802323804FF4807302E04FF4C0
:101C6000807323806380A38822881B02A360534370
:101C7000E360574B012283F8E92404E0002323802A
:101C80006380A360E360E4681CB3E40A26464FF077
:101C90000008A0450BDA08EB04056D100DF15C0996
:101CA000E802494610220AF0CFF80F2806DC0BF0B4
:101CB00015FE474BF602C3F8EC640AE0002359F81E
:101CC0002320013254D10133042BF8D12E462C4667
:101CD000DFE73B683F4A13F4002318BF012313706A
:101CE0000DF012FF3C4B18603C4B5A791946052AFF
:101CF00002BF3B4B4FF4C8721A803A4B4FF47A72D2
:101D00001A80394BC8221A80384A137843F00803E6
:101D10001370374A137823F00203137040F602035E
:101D20003A6813406BB13348334B1860334B032090
:101D30001870334B0120187032480023038032485A
:101D40000380930341BF314B04221A71DA7844BFF8
:101D500042F00102DA708B6801223B602C4B1A7052
:101D60002C4A137863F07F03137023B0BDE8F08F23
:101D700005F101082546AAE7274B00221A7000B298
:101D800010F052FF254910F0A3FF1790B4F95A0143
:101D900010F04AFF214910F09BFF1890B4F95C0144
:101DA00010F042FF1D4910F093FF1D49199017A82C
:101DB00006F05AFBFFF7ADB9D7330020140000201E
:101DC00000380040000C014018BA20001740EF0016
:101DD00044080020F02F002030020020781000205E
:101DE000360E0020CE330020CC33002074180020A3
:101DF000D5330020F01100205C180020C01800200E
:101E00004C000020200F0020220F0020742700200B
:101E1000C0070020AE3300204000002035FA8E3C81
:101E2000C82900209F492DE9F04F0A689E4C02F511
:101E30009C43203323609D4B89B01E780191C6B12D
:101E40009B4909688A4240F20381013E1E70FFE00F
:101E5000D9F80030072D98BF595D964B88BF2946A9
:101E60001B6895489847032D0CD904EB4505A880BD
:101E70000136914BF5B21A78DFF86092AA42194602
:101E8000E6D820E0D9F8002005F10E0302EB830329
:101E90009988DA880028E8D04FF47A73401A5843BA
:101EA000531A90FBF3F040F6C90300F57A7098429C
:101EB00005DC40F2EE239842B8BF184601E040F638
:101EC000CA0080B2D1E742F201087C4B1B6803EAEA
:101ED0000808B8FA88F87A4B4FEA58181B68B8F126
:101EE000000F06D194F8292084F82820754A5078EC
:101EF000107094F828701FB1724A177887F00107A4
:101F000094F82BB00326BBFBF6F60F2206EB460631
:101F100084F82A20C6EB0B06D9F8002091F800A01F
:101F2000DFF8C091F6B20025554559DA4FEA450C65
:101F30001FB1654931F8150000E03846918ADFF895
:101F4000A8E1814202D8D18A81421ED25EF82500E2
:101F50005549834203D25D4931F80C0019E0E8B2DB
:101F600003920293049110F0BFFB032D029B039A8E
:101F70000FDC04994FF0010C91F82AE00CFA05FCF3
:101F80002EEA0C0E81F82AE003E003F596714EF874
:101F90002510B8F1000F1CD194F8BC1029F81600D8
:101FA00031B9BBF1020F14D93F49012081F8BC00BF
:101FB000B9F80210B9F800000844B9F80410084450
:101FC000434980B221F8150000B2032190FBF1F0E3
:101FD00080B23E4909F1060921F815000135A3E751
:101FE00094F82A203649A2F10F077A427A4184F800
:101FF000D620384B6AB1384A1268560109D40A68AB
:10200000D9689A60521AC82A1DD9012283F8212062
:1020100019E02C4A0120507010700A689968DA6043
:102020005B68521A9A4282BF2A4B002283F8212011
:102030000025554507DAE8B210F056FB234B23F88C
:1020400015000135F5E794F82B30013384F82B3077
:102050001A4E3368DD0405D51F4B1B68D80701D421
:1020600010F060F9019B1F681C4B1A68907A0028D9
:102070003CD01649137B013831F810001BB1C0F574
:102080003B60083080B200B2A0F57A70B0F57A7F7C
:10209000A8BF4FF47A7020EAE07010F0C5FD104937
:1020A00059E000BFB8330020340D00204833002031
:1020B0004433002028000020641F0020581800200E
:1020C0005010002011000020380D00208A3300201D
:1020D000F20D00204C330020840F002040330020FC
:1020E00000007A44600D0020A80D00203368190418
:1020F0003AD5D4F8D810934B791A002934DB07F578
:102100009C412031C3F8D8108F494D798F4931F85F
:102110001550A9B2D57A91FBF5F593F8DC10013191
:1021200001F00F0283F8DC201A44034682F8DD50E8
:10213000874A825C0130134410289BB2F8D11BB24D
:1021400093FBF0F000B26428A8BF642020EAE0709E
:1021500010F06AFD7F4910F06FFE7F4910F0B8FD66
:1021600010F0A2FF7D4B188033687D4D13F4807F03
:1021700000F00F817B4BDFF8F0919F4205D999F871
:10218000022012B9012289F8022099F80220002ABF
:1021900000F0FF80744A95F8008092F82170C8F32F
:1021A00080087A1E57425741704A002F92461168A4
:1021B00018BF4FF0000BC1F38063019308BF4FF0CD
:1021C000030B99F82020052A00F2DD80DFE802F0F9
:1021D000034E537988A5B8F1000F3AD0D4F8F00037
:1021E000B4F8F4100DF04DFC012809D16049614AA2
:1021F00009681268C988642000FB0122C9F8102010
:10220000019B6BB15A4A126812794AB10CF0D0FEA8
:10221000032289F820204FF47A72C9F81C20D0E7F5
:10222000002F40F0B080534AD9F8101010684E4A81
:1022300088420AD902920CF0BBFE029A032182F86E
:10224000201040F6B831D161BBE7012182F820109F
:10225000B7E7019B4FF4806013B106F0DDF901E0B0
:1022600006F0C9F90022C9F810208CE0002F49D1EE
:102270000CF09EFEA5E727B1052289F82020012059
:1022800000E03846B8F1000F0CD0D4F8F0204FF041
:10229000020BD189384A11805180918034490968F4
:1022A0004988D180334A1168D9F81420914202D864
:1022B000B8F1000F64D147F23052C9F81C20032254
:1022C00021E02A7842F002022A7010F02BF8294A05
:1022D000D9F81C1012680A44C9F81820042212E028
:1022E000244A9FB11168D9F8182091424BD9234A4A
:1022F00092781AB9DAF80020D30744D42A7822F069
:1023000002022A70052289F820205AE71268D9F8BB
:102310001C100A44C9F8182035E01549154A096807
:102320001268C988642000FB01224FF48060C9F85C
:102330001020002289F8202089F8032006F05BF99C
:102340003FE700BF340D0020EC290020FC290020CD
:10235000110E00200000C84200C07F44E80F00209A
:10236000D5330020404B4C004C330020840F00201C
:10237000B02B0020501000208A33002011000020D4
:1023800000287FF41EAFBBF1000F02D058460DF0BD
:1023900011FC8D4F07F5C370B7F84E110DF071FBAE
:1023A0000197834668B90CF0F7FD884B0022C3F80B
:1023B00000B0C3F804B0C3F808B0854B1A605A6087
:1023C0009A602B785F0736D53368D80633D5814BB2
:1023D0001B78D9062FD4804B9B789BB1019B93F837
:1023E000DE31BBF1000F15D17BB17C4B1A68D4F8FC
:1023F000F8309B1A002B08DA0FF094FF784B83F823
:10240000FCB018E0BBF1000F0DD110200DF0D2FB95
:1024100001230EE03BB1714A4FF47A71126801FB5F
:102420000323C4F8F83094F8FC3023B10DF0AEFB70
:10243000002384F8FC30019B93F8DCA193F8DD11B4
:10244000B3F896E1B3F898C100231846654A8008AE
:1024500032F9137001337745C4BF60F07F00C0B21A
:102460006745B8BF40F04000042B9146EED194F888
:10247000FD305B4A834205D192F8FE30F92B04D837
:10248000013300E0002382F8FE30534B84F8FD0056
:102490009A789846544FE2B93B68DA0708D5BBF101
:1024A000000F16D12B78DB0713D50FF08BFD10E052
:1024B0002B7858070DD54A4B93F828304BB14B4B2E
:1024C000DB7833B911B10FF02DFF02E0BBF1000F43
:1024D000F9D094F8FE30424A142BDFF824B140F0D2
:1024E000AA8098F802301AF1000A18BF4FF0010ACA
:1024F0006BB392F8FD305F2B11D12B7803F00403FE
:1025000003F0FF0113B10FF00DFF08E00B20039162
:1025100002920DF04FFB029A039982F8FE10BAF175
:10252000000F14D094F8FD307D2B10D12B7803F0E0
:10253000040303F0FF0213B10FF0F4FE07E00B20D9
:1025400002920DF037FB264B029A83F8FE202B787F
:1025500003F0040303F0FF01002B6CD194F8FD306D
:102560001F4A572B15D1224B4FF47A721A803368C9
:10257000190601D50BF09EF81E4B1B685A0742BF87
:102580001D4A0A21118013F0080354D11B4A1380FD
:1025900051E03068400735D55A2B33D192F8FF30DF
:1025A0002BB1012382F8FF1082F8003143E092F84A
:1025B000013183F0010382F801310BB10C2000E0FE
:1025C0000D200DF0F7FA36E078100020902A002058
:1025D0003C2B002074180020110000205010002017
:1025E000340D00208A330020840F00204C3300205B
:1025F000CE33002070180020CC330020681000205B
:10260000C00F00205D2B00F02A855B2B00F0298590
:102610005E2B00F02885562B01D106F0B9FA98F808
:102620000230002B00F0EF8494F8FD306F2B40F067
:10263000E4840FF0C7FC3368580736D594F80131AD
:10264000B64A93B12B7859070FD5019BB9F90610FB
:10265000B3F89631994208DD3B6813F0010302BFDD
:102660003221A2F8041182F801313B68DA030DD55A
:1026700094F80621A94B2AB993F8FF2012B9322207
:10268000A3F80421012384F806310EE094F8FF300A
:10269000A24A53B12B7803F0040303F0FF0123B9DE
:1026A000012382F8FF1082F80031DBF8009000234C
:1026B0003B6009F17B0809F1CB0A98F8002098F8F3
:1026C000013018F8010C9A420BD241460DF090F9F6
:1026D00038B118F8022C012303FA02F23B681343C5
:1026E0003B6008F10408D045E7D18D4B1B7853B10E
:1026F0008C4B8D4F1A68984612F0020FDFF840920B
:1027000040F033832BE309F1CA0709F589783A7859
:102710007B7817F8010C9A4225D239460DF068F9FA
:1027200008B397F804C00C21BB7801FB0C417F4A29
:10273000013B03EB43031344D1F80C2197F80390BA
:102740009A4276480FD0C1F80C31002390F8382116
:10275000C1F81031012303FA0CF322EA030381F8D4
:10276000089180F8383106374745D0D1704BDFF8F3
:10277000D4A1D3F800806F4B4FF0000B1B6802937D
:1027800094F828300393DAF80030002B00F0DE8252
:1027900093F80090B9F1000F00F0D882DAF8042025
:1027A00002998A1A002A0CDB01F5FA72CAF8042091
:1027B00094F83811012202FA0BF221EA020284F89D
:1027C0003821039A002A00F0C1821AF8042C5978A3
:1027D0000432D2B2002940F07A82574931F91210FE
:1027E000564AB2F8942102F1C800814201DD9F7877
:1027F00014E0C83A914202DA99784F420EE094F818
:102800003821012303FA0BF322EA030384F8383159
:10281000029B03F5FA73CAF8043097E294F8383152
:1028200043FA0BF3DB0700F19182002FCCBF0220AB
:1028300001200DF0E1F909F1FF32384B132A00F2C3
:102840007D82DFE812F014002300320044006100B2
:102850008100E6004B01B001E50114027B02440057
:1028600055008100E6004B01B8001D01820198F877
:10287000001040460F44FA2FA8BFFA2727EAE7774F
:1028800088F800700DF09AF801201EE098F8011009
:1028900040460F44642FA8BF642727EAE77788F8EB
:1028A00001700DF08BF802200FE098F803104046FD
:1028B0000F44642FA8BF642727EAE77788F80370DE
:1028C000D3F83C110DF032F803203946CCE198F8EA
:1028D00005100D2039446429A8BF642121EAE17163
:1028E00088F805100DF0FCF8B9F10D0F00F0268204
:1028F00098F804100E2039446429A8BF642121EA05
:10290000E17188F80410AFE198F806100520394409
:1029100081F3080188F80610A6E100BF340D0020FD
:10292000DA330020840F002070180020E4910108A1
:10293000EC0F0020501000208A3300207810002077
:1029400038190020400E0020D3F840311A78022AAE
:1029500022D13846049310F067F9A94910F06CFAB7
:10296000049B596A059310F0ABF80021049010F015
:102970004DFB059B48B9049AA249104610F064FB30
:10298000049A059B10B19F4A00E000225A620F2072
:1029900011460DF091F80AE099780F203944C829C2
:1029A000A8BFC82121EAE17199700DF099F8B9F139
:1029B0000F0F00F0C381944BD3F8409199F8003089
:1029C000022B1AD1384610F02FF98D4910F034FA45
:1029D000D9F8201010F074F80021074610F016FB0B
:1029E00030B93846874910F02FFB10B1854F00E011
:1029F0000027C9F82070122059E199F8011012201F
:102A00003944C829A8BFC82121EAE17189F8011019
:102A10002AE1D3F840311A78022A22D138460493A9
:102A200010F002F9774910F007FA049B196B05932F
:102A300010F046F80021049010F0E8FA059B48B920
:102A4000049A7049104610F0FFFA049A059B10B1E1
:102A50006C4A00E000221A63102011460DF02CF899
:102A60000AE0197B10203944C829A8BFC82121EAEF
:102A7000E17119730DF034F8B9F1100F00F05E81B7
:102A8000614BD3F8409199F80030022B1AD13846A7
:102A900010F0CAF85B4910F0CFF9D9F82C1010F0FB
:102AA0000FF80021074610F0B1FA30B93846554901
:102AB00010F0CAFA10B1534F00E00027C9F82C708B
:102AC0001320F4E099F80B1013203944C829A8BF4B
:102AD000C82121EAE17189F80B10C5E0D3F8403133
:102AE0001A78022A22D13846049310F09DF84749FB
:102AF00010F0A2F9049BD96B05930FF0E1FF0021C0
:102B0000049010F083FA059B48B9049A3D49104699
:102B100010F09AFA049A059B10B13A4A00E000229C
:102B2000DA63112011460CF0C7FF0AE0997D1120ED
:102B30003944C829A8BFC82121EAE17199750CF070
:102B4000CFFFB9F1110F00F0F9802F4BD3F840916E
:102B500099F80030022B1AD1384610F065F82B494D
:102B600010F06AF9D9F838100FF0AAFF00210746D3
:102B700010F04CFA30B93846224910F065FA10B11D
:102B8000204F00E00027C9F8387014208FE099F832
:102B9000151014203944C829A8BFC82121EAE171C1
:102BA00089F8151060E0D3F8409199F80030022BB5
:102BB0001AD1384610F038F8114910F03DF9D9F81B
:102BC00028100FF07DFF0021074610F01FFA30B9E2
:102BD00038460C4910F038FA10B10A4F00E00027CF
:102BE000C9F82870092062E099F8031009203944D7
:102BF000C829A8BFC82121EAE17189F8031033E090
:102C0000000020410000C842340D002000007A443A
:102C1000D3F8409199F80030022B1AD1384610F0C1
:102C200003F8B44910F008F9D9F834100FF048FF50
:102C30000021074610F0EAF930B93846AD4910F0E6
:102C400003FA10B1AB4F00E00027C9F834700A2036
:102C50002DE099F80D100A203944C829A8BFC821D1
:102C600021EAE17189F80D100CF03AFF66E0D3F823
:102C7000409199F80030022B1DD138460FF0D4FF57
:102C80009D4910F0D9F8D9F840100FF019FF002134
:102C9000074610F0BBF930B93846964910F0D4F920
:102CA00010B1944F00E00027C9F840700B2039465E
:102CB0000CF002FF42E099F817100B203944C829A4
:102CC000A8BFC82121EAE17189F81710CCE70129D2
:102CD00034D19878894B33F91230B3F5617F05DB35
:102CE00040F633029342A8BF134601E04FF46173EC
:102CF000B9F10C0F22D14FF4966292FBF0F0A3F5DC
:102D0000617393FBF0F37E4ADFB21378BB4215D0B8
:102D1000042F34BF3B4602231370019A09FB03239F
:102D2000784A03F2B67313600CF065F948463946E9
:102D30000CF0D6FE781CC0B20CF05EFF94F838217F
:102D4000012303FA0BF3134384F838310BF1010B21
:102D5000BBF1040F0AF10C0A7FF415ADC8E4336827
:102D6000D80510D5684BDB786BB13B6899070AD55D
:102D7000B9F8003013F0010A0AD10CF00DF9012066
:102D800005F04AFC04E0012005F035FC012300E0D9
:102D90000023D8F8002052070DD563B1012005F0BB
:102DA0002AFCB9F800309B0708D40CF0F5F8022093
:102DB00005F032FC02E0022005F01DFCB9F80030FD
:102DC000524A13F0030F4FF0100114BF516111610B
:102DD0003A6812F00A0F27D0D8F80020D00609D59B
:102DE00059070AD4042005F017FC494B1B88A4F8A6
:102DF000443102E0042005F0FEFBD8F800309A06CA
:102E000007D5B9F800305B0606D4402005F004FC75
:102E100002E0402005F0EFFBD8F80030580642BF32
:102E20003B4B1B88A4F846313B68990609D4D8F877
:102E300000301A0540F1B0804FF4807005F0ECFBD3
:102E4000AEE0344B1B789B076ED5334B1B78042BBD
:102E50006AD9D8F8003013F4007A0FD0B9F80030EE
:102E6000DF063AD4102005F0D7FB202005F0C3FB85
:102E70002A48011D0AF088FB02232AE0B9F80070F5
:102E800007F01007BFB22FB1102005F0B4FB0127E7
:102E900084F848A1D8F80030580512D5D4F84C3140
:102EA0001F495A89B1F90030002BB8BF5B429342E9
:102EB00007DAB1F90230002BB8BF5B429342C0F28F
:102EC0000B81B9F80030990608D5202005F093FB56
:102ED000002384F84831012700E0002794F850319E
:102EE0009BBB0E200CF066FE0E4B012283F8502196
:102EF0002BE000BF0000C84200007A448A33002063
:102F00009C2E0020EC0F00204C330020000C0140D0
:102F100068100020741800207A180020F40F002098
:102F200070100020340D0020B9F8003003F0300399
:102F3000002B3FF47CAF102005F05DFB202005F056
:102F40005AFB002384F8483102E0002F3FF46FAFB2
:102F5000002214466D4B002023F814006C4B191D01
:102F600003F10A0721F814000021D15117447860B9
:102F7000B96023F8140003F132075A33D151D1500C
:102F8000174413447860B960586099601432002C7B
:102F90007FF44DAF0124DDE74FF4807005F02BFB8B
:102FA0005C4B5A791C46082A01D00E2A02D14020D7
:102FB00005F021FB33685A0540F1A48094F81C32D7
:102FC0001BB92B7813F0040F03E0D8F8003013F48A
:102FD000002F0BD0504B00221A703C200AF0A6FDA7
:102FE000002800F08F800DF059FEF6E70EF0EAFEA3
:102FF00009B0BDE8F04F06F0F6BABAF1000F02D002
:103000007E2B3FF416AB94F8FD30972B06D1434B43
:103010004FF4C872A3F80221FFF70DBBA72B06D10E
:103020003F4A137843F004031370FFF704BB0022F8
:10303000BB2B079201D1022303E0B72B04D14FF63B
:10304000FE73ADF81E301FE0BE2B01D1022303E05A
:10305000BD2B30D14FF6FE73ADF81C3014E00120CB
:1030600002E0022000E003205FFA80F8019A08F1F4
:10307000FF3382F8B43705F011FB05F0B5FB40468D
:103080000CF0BAFDFFF7D7BADBF80030BDF81C1022
:10309000B3F858200A44A3F85820BDF81E10B3F81E
:1030A0005A200A44A3F85A2005F072FD002384F840
:1030B000FE30FFF7C0BA792B04D11A4AD37823F037
:1030C000010306E07A2B7FF4B6AA164AD37843F0C0
:1030D0000103D370FFF7AFBAB9F800309B063FF594
:1030E000FDAE202005F098FA0F4B10481A685B6877
:1030F000011D436002600AF047FA084B012783F87C
:103100004871EBE609B0BDE8F08F00BFD033002076
:10311000860E0020781000207D290020340D00202C
:1031200074180020742700207C180020FC0F002059
:10313000BA4B2DE9F04FB3F90610B94B91B01F68A7
:1031400001937A8991420EDBB1F5FA6FFC79BFBF2A
:103150008B1A6343A2F5FA6493FBF4F4ACBFC4F199
:103160006404643400E06424AE4BAF4A1868B2F8DB
:1031700094A1054692F95E21049092B205920293C1
:10318000002240F2E630A54B4FEA420B33F91230F1
:103190000393CAEB030303F2F316864203D8002B12
:1031A000B8BF5B4201E04FF4FA73022A049E4FF06D
:1031B00064002FD096F811E1BEF1000F04D07345E2
:1031C000CCBFCEEB0303002393FBF0FCDFF8A0E2BF
:1031D0006FF063093EF81C8009FB0C390CF1010CFF
:1031E0003EF91CE00FFA88FCCCEB0E0E0EFB09FE3C
:1031F0009EFBF0FE8D4EC64426F80BE0BE183679D5
:1032000073438B4E93FBF6F364339BB2634393FBA0
:10321000F0F02DE096F812E1BEF1000F04D07345F6
:10322000CCBFCEEB0303002393FBF0F0DFF82C823E
:103230006FF0630C0CFB003938F910E0013038F9FD
:103240001000002BCEEB000000FB09F999FBFCF904
:103250000598CEEB090909FB00F97448B8BF5B4239
:10326000A0F80490B8794343714893FBF0F06430C0
:103270006B784FF0640E434393FBFEF36D4E022ACE
:10328000B354EB7A6C4E00FB03F393FBFEF3B354A1
:103290006B7D664E00FB03F090FBFEF0674B98548D
:1032A000674B0FD183F802E0039B53450EDB5E4C66
:1032B000B4F89621914215DBB1F5FA6FA8BF4FF42F
:1032C000FA6110E09C54039B534504DA36F80B3046
:1032D0005B4226F80B300132032A05F101057FF429
:1032E00050AFE4E71146891A4FF47A735943C2F597
:1032F000FA62B1FBF2F1642791FBF7F2DFF874E1B7
:103300006FF063033EF8120003FB021101323EF935
:10331000122003B2D21A514391FBF7F30344F38016
:10332000484B424D1B8858063BD5474A474B1088AF
:103330001B88181A00B20FF077FC45490FF0C8FC43
:10334000074605F087F88046384605F010F807462E
:10335000B5F902000FF068FC8146B5F900000FF0E6
:1033600063FC414682460FF0B3FC3946834648462B
:103370000FF0AEFC014658460FF0A0FB0FF06EFEBA
:103380004146288048460FF0A3FC39468046504607
:103390000FF09EFC014640460FF092FB0FF05EFEE0
:1033A00068802C4F3B68990740F19F8045F20721C8
:1033B000294B2A4D1A686B69D31A8B4240F39580CA
:1033C0006A610AF0A3FF264BDFF8AC901A789846A2
:1033D000032AB9F8003051D10A2B59D900232820EB
:1033E00088F800300CF0B7FB0AF090FF1D4B1888EE
:1033F0000AF076FF1C4B1A68D37890FBF3F001308B
:1034000008281A4BA8BF08201870537980B243438C
:103410002B831379584368833AE000BF8A33002036
:10342000EC0F0020C00F002078100020701000204A
:103430000CFEFFFFA42A0020160F0020082B0020FE
:10344000382B0020381900207A0E00206810002048
:1034500035FA8E3C58180020B8330020080F0020A1
:10346000C0180020042A00205C1800204C00002016
:10347000522C00203A2C0020601800200A2B07D87C
:1034800003239A4A88F80030002313702B836B8340
:1034900098F80030964A012B0CD002D3022B1BD097
:1034A00023E02A8BB9F800309A421EDD012388F808
:1034B00000300FE0B9F800106B8B8B4202DD022365
:1034C00013700FE08B4B1B8B0133994202DD0023FD
:1034D00013700AE0082006E06B8BB9F80020013376
:1034E0009A42E3DC07200CF065FB3D682A0573D5A2
:1034F000814B804F1B68FA69C2EB030845F2072233
:10350000904569DDFB617D4BB6F906B0D3F80090BC
:10351000B4F84E1199F80A30ABF57A7B012B784E4E
:1035200003D042D3022B20D041E0764B396A5A7B3C
:10353000754B082033F8122091FBF0F392B2C91AB0
:103540008B183B6293FBF0F3BA8440F6E4429BB2E3
:103550005343B9F80820C2EB13334FF47A72534344
:10356000B9F9062093FBF2F320E0684BB9F808A004
:103570001B78C6F800A05B0719D565480CF081FAE6
:1035800020B915F0100F18BF4FF0000B0BFB0BF319
:10359000322293FBF2F3B9F906205B445A434FF40D
:1035A0007A7392FBF3F3534400E0002333603368F3
:1035B000D7E90A0103FB08F84FF47A7398FBF3F894
:1035C00010EB080041EBE8710023C7E90A01514AFA
:1035D0000FF08AFD504B1860504E3368DF0427D53A
:1035E0002D0622D54E4B1B7898071ED54D4B1878CB
:1035F00004281AD900224C4B0521D718951C4FF0EE
:103600000A0E122AD154E9B287F801E004D0B0EBD7
:10361000510F2A46EFD800E014215A18322002F840
:10362000010CFF225A540F2000E00A200CF0C2FACD
:103630003E4D2A68002A51D03D4B3E4F18683968EC
:10364000984681424AD83C4BDFF8F8901978526886
:10365000E1B94FF0010A83F800A0B9F80030D35C5B
:1036600023B350460CF08CFA344B83F800A00FF0D3
:1036700091F8B9F80030CBB92B681B78053B53455E
:1036800014D80CF041FA2E4B18600FE04FF0000AEE
:1036900083F800A0B9F80030D35C3BB150460CF081
:1036A0006FFA264B83F800A00FF074F82B68B9F876
:1036B00000205B6823499B5CFE2B02D100230B801A
:1036C0000CE0FF2B02D10CF061FA07E0D8F8000003
:1036D0000A2505FB030301323B600A800B4D2B7862
:1036E000590733D5184B08225A6166E04C00002078
:1036F000C0180020080F0020B83300205C180020FC
:1037000068180020EC290020FC290020D533002077
:10371000FE110020407E05006C180020840F002060
:10372000741800207A180020BC2E0020702C002075
:1037300050100020682C0020642C002070330020E2
:10374000A83100206C2C0020000C01403268D20708
:103750005CBF43F001032B709B4B9C4A1B781B07FB
:103760005EBF2B7823F001032B70994B1B6813F07D
:10377000040F02D09749098851B99749098809B1BE
:103780009F0705D4954B1B88003318BF012333B125
:10379000022313702B7823F001032B7004E02978A7
:1037A000CE0758BF022313700CF0AEF98C4B1B6888
:1037B000C01A002801DB0EF0EDFF0EF003FB894B71
:1037C0001E780493002E00F0B480874F3B68002BD6
:1037D00000F0268738680CF095FA002800F0208762
:1037E000814B824C18680CF08AFA092801D03F28D6
:1037F00052D14FF000094D462668DFF8148236B1E9
:103800007B48D8F80010324613F01AF810B9C146B8
:1038100005B94546774B08F110089845EFD3EDB14F
:10382000D5F800C0D9F8008023681CF803E018F828
:103830000300704512D15A1C6D4958B92D2B09D877
:10384000DFF8A8E1CEF800204FF0200E01F803E0E9
:10385000885403E001F803E02260E5E723680BB138
:103860004D4510D064480DF01FFB4D4507D855F865
:10387000100B0DF019FB09200DF00EFBF5E75F486A
:103880000DF012FB002623689E42A3D2584B985D90
:103890000DF002FB0136F6E72368002B40F0A4860A
:1038A000042840F0E186524808F05EFE00F0B8BE01
:1038B000DFF860A1DAF800000CF024FA30B3DAF88F
:1038C00000000CF01CFA4E4B83461B6893F848200E
:1038D000002A3FD1242840F0A180012283F848200B
:1038E000DFF81CA1DAF8003093F84820062A03928A
:1038F000DED193F8490001F081FF002800F0B78085
:103900000DF01AFA3B68002283F848203D4B93F8EB
:10391000353053B158F8060004F0EEF80CF072FBA5
:1039200004F092FE384A394BDA604C36982E00F09B
:103930007786DFF8E48006EB080393F84A20012A33
:10394000F3D12F4FDFF8CC903B6056F80830C9F820
:103950000030ADE7012A04D14D2814BF0022022215
:10396000BCE7022A04D13C2814BF00220322B5E799
:10397000032A0AD140284FF000029FBF1A71DA7162
:103980005871987198BF0422A8E7042A08D19A793F
:1039900083F8490080EA020B83F806B005229DE710
:1039A000052A9DD159791A799142997906D94140D0
:1039B0009971511C19711344187291E781420CBF1F
:1039C000062200228AE700BF74180020703300200E
:1039D00070180020CC330020360E0020CE3300209B
:1039E00074330020DA330020B82E0020B0270020E6
:1039F00080270020509E01082CB5010831B5010830
:103A000018190020080F00200400FA0500ED00E05E
:103A1000709C01081C190020C81E00202B78CA4A7F
:103A200059073FF55DAF2328DAF8003012D1039231
:103A3000049A01211170C549C5480B60C5490B6343
:103A40000DF032FAC4480DF02FFA039A137843F0C0
:103A500002031370C14B1B681B785B4501BFC04A52
:103A6000C04B1A60C04A04BFC04BDA6038E7DAF8CE
:103A7000002092F849B0BBF14C0F00F0848400F2B2
:103A8000A480BBF1350F00F0468242D8BBF12B0F6A
:103A900000F0518424D8BBF1250F00F0278405D80D
:103AA000BBF1230F00F0FE8100F0DABDBBF1270F60
:103AB00000F02384BBF1290F40F0D2850DF018F9F6
:103AC000A4F87E010DF014F9A4F880010DF006F9B8
:103AD00084F882010DF00CF9A4F8840100F07FBD98
:103AE000BBF12F0F00F0D08405D8BBF12D0F00F0F3
:103AF000268400F0B5BDBBF1310F00F0DA84BBF1D4
:103B0000330F40F0AD850DF0E9F884F8900100F036
:103B100066BDBBF1410F00F071841CD8BBF1390FB9
:103B200000F0F88305D8BBF1370F00F0748400F083
:103B300097BDBBF13C0F00F0F780BBF13E0F40F0AA
:103B40008F850DF0CBF884F8DE010DF0C7F884F80E
:103B5000DD0100F044BDBBF1440F00F0DE8427D846
:103B6000BBF1430F40F07C850DF0B8F80023A36053
:103B700060710DF0C7F8A3681843A0600DF0AEF8AF
:103B800084F88E010DF0B4F8A4F858010DF0B0F8E7
:103B9000A4F85A010DF0ACF8A4F85C010DF0A8F8F7
:103BA000A4F87E010DF0A4F8A4F8800100F017BD80
:103BB000BBF1480F00F03183BBF14A0F40F0508554
:103BC0000DF096F8A08100F00ABDBBF1D10F00F016
:103BD0004E8328D8BBF1CC0F00F0C58113D8BBF1C0
:103BE000C80F70D005D8BBF14E0F00F0D98300F09C
:103BF00037BDBBF1C90F00F01383BBF1CA0F00F052
:103C0000BF8000F02DBDBBF1CE0F00F0F982C0F0F7
:103C1000EE82BBF1CF0F00F0FA81BBF1D00F00F0C4
:103C2000DB8200F01DBDBBF1D90F00F0C4820ED8BD
:103C3000BBF1D30F41D02DD3BBF1D40F00F04282A2
:103C4000BBF1D60F40F00C854FF0000918E2BBF134
:103C5000F20F00F0858213D8BBF1EF0F40F0008522
:103C6000DFF81891D9F800A00DF042F8AAF85A0030
:103C7000D9F800900DF03CF8A9F8580000F0AFBC5E
:103C8000BBF1F30F00F06884BBF1FA0F00F0C182C2
:103C900000F0E6BC2B7803F0040303F0FF09002BCF
:103CA00040F09D840DF01AF8022884F8B40740F221
:103CB00099822F4B83F8B49794E20DF019F82D4BAD
:103CC000188000F08CBC92F805904FEA5909B9F1C0
:103CD000120F03D906F0ECF900F081BC4FF0000A96
:103CE000CA4507D20DF004F807AB23F81A000AF111
:103CF000010AF5E74A4600234B4507DA07A931F8E0
:103D000013001D4921F813000133F5E7122A05D0ED
:103D1000194B002123F812100132F7E70D4B012255
:103D200083F8342000F05BBCDFF85090D9F800A095
:103D30000CF0D4FF8AF80000D9F8003018780CF0A5
:103D40004FFA00F04CBC00BFD5330020B82E002045
:103D500061B50108080F002031B501088029002055
:103D6000EFBEADDEF04F00200400FA0500ED00E0EC
:103D700078100020780E002074320020C00F002040
:103D8000C54B1A6899461278022A6ED14FF0000985
:103D9000DFF804A309F1080BDAF8003003930CF004
:103DA0009DFF0EF03DFFBD490FF046F8039B43F821
:103DB0002B00DAF800B00CF091FF09F10A030BEBCD
:103DC000830B0EF02DFFB6490FF036F8DAF800300D
:103DD000CBF8040003930CF081FF0EF021FFB149F2
:103DE0000FF02AF809F10E0B039B09F10109B9F153
:103DF000030F43F82B00CBD1B9F1070FDAF800B06D
:103E00001AD10CF06BFF0EF00BFFA4490FF014F861
:103E1000CBF84400DAF800B00CF060FF0EF000FFC1
:103E20009E490FF009F8CBF84800DAF800B00CF022
:103E300055FF8BF84C0012E00CF050FFCB448BF890
:103E40000100DAF800B00CF049FFCB448BF80B000E
:103E5000DAF800B00CF042FFCB448BF8150009F102
:103E60000109B9F10A0FC7D1B9E34FF0000AD9F837
:103E700000B00CF033FFD3448BF80100D9F800B048
:103E80000CF02CFFD3448BF80B00D9F800B00CF0E9
:103E900025FFD3440AF1010ABAF10A0F8BF8150085
:103EA000E5D19CE30CF01AFF132883463FF612AFCE
:103EB000DFF8E4A1DAF800900CF010FF00237A4953
:103EC0000C2202FB0312117A814220D1137809EBF4
:103ED0008B0989F879300CF001FF89F87A000CF031
:103EE000FDFE89F87B000CF0F9FE704A704B89F8F2
:103EF0007C001A60DAF800006E4B002118607930FF
:103F00000BF0AEFD6C4B80F00100187067E30133DD
:103F10001C2BD4D1DEE60CF0E1FE0B2881463FF6E7
:103F2000D9AE5D4BD3F800A00CF0D8FE03283FF6C5
:103F3000D1AE039B03FB09AB8BF8CE000CF0CEFE99
:103F40008BF8C9000CF0CAFE8BF8CA000CF0C6FE54
:103F50008BF8CB000CF0C2FE8BF8CC000CF0BEFE50
:103F60008BF8CD003BE35379092B7FF6B3AE019B71
:103F7000D3F800900CF0B2FE019B89F80000D3F852
:103F800000900CF0ABFE89F801000CF0A7FE019B3D
:103F900064281B68A8BF642018710CF09FFE019B69
:103FA00064281B68A8BF642058710CF097FE019B21
:103FB000FF281B68A8BFFF2098710CF08FFE019BA3
:103FC0006428D3F8009028BF642089F807000CF01B
:103FD00085FE019B89F80200D3F800900CF07EFE6C
:103FE000019B89F80300D3F800900CF081FEDAF809
:103FF0000030A9F80A005B790A2B40F2F0822F4BBF
:10400000D3F800900CF06AFE89F80800E7E20CF0A3
:104010006FFE6FF4AF6283189BB2C62B98BFA4F8F3
:1040200094010CF065FEA4F840010CF061FEA4F8C8
:1040300042010CF05DFEA4F844010CF059FEA4F816
:10404000D6010CF04BFE84F8EB010CF047FE0CF0AF
:1040500045FE84F8EC010CF041FE84F883010CF07D
:104060003DFE84F890010CF039FE0B4BD3F8009024
:104070000CF03EFE00EB80004000A9F8560049E13C
:104080000CF036FE0E4B23F8190009F10109B9F1C5
:10409000080FF5D1A3E200BFC00F002000002041AF
:1040A0000000C84200007A4450920108B811002074
:1040B000700E0020740E002013000020EC0F002072
:1040C0009E2E002053790F2B7FF404AE0CF006FED9
:1040D000072881463FF6FEAD029BD3F800A00CF006
:1040E00007FE0E2303FB09F9029BCA44AAF8190133
:1040F000D3F800A00CF0FCFDCA44029BAAF81B01F7
:10410000D3F800A00CF0F4FDCA44029BAAF81D01EC
:10411000D3F800A00CF0E2FDCA44029B8AF81F010C
:10412000D3F800A00CF0DAFDCA44029B8AF8200103
:10413000D3F800A00CF0D2FDCA44029B8AF82101FA
:10414000D3F800A00CF0CAFDCA44029B8AF82201F1
:10415000D3F800A00CF0D6FDD144C9F823013EE20B
:104160000CF0BCFD0F2881463FF6B4AD0CF0B6FD57
:10417000C9EBC90904EB090383F8D00003F1D009A6
:104180000CF0ACFD89F801000CF0A8FD89F80200E4
:104190000CF0A4FD89F803000CF0A0FD89F80400E0
:1041A0000CF09CFD89F805000CF098FD89F80600DC
:1041B0000BF068FF13E20CF09BFDA4F848010CF033
:1041C00097FDA4F84A010CF093FDA4F84C010CF003
:1041D0008FFDA4F84E0102E22B785B0700F1FF810E
:1041E0000AF04EFF04F05AFA04F0FEFAF7E12B78D9
:1041F000580700F1F481CB4B4FF4C8721A80EEE1FE
:104200002B78590700F1EB81C74A137843F0040378
:104210002BE02B785A07E5D522E209F0ADFBDEE171
:104220000CF05CFDC04B1A7810B142F0020201E0C4
:1042300022F002021A700CF051FDBC4BDFF8109313
:1042400018700CF05FFDC9F800000CF05BFDC9F8B8
:1042500004000CF04DFDB64B18800CF049FDB54B39
:10426000B54A1880137843F002031370B7E10CF0DD
:1042700035FD03900CF046FD83460CF043FD82466D
:104280000CF040FD81460CF033FD0CF031FD0CF0DC
:1042900025FD039BA3B9A94B1020C3F800B0C3F8B8
:1042A00004A004F0A8F9A04A137843F001031370A6
:1042B000B9F1000F00F09381A14BC3F800908EE19B
:1042C000102B40F08C819F4BC3F800B0C3F804A0C2
:1042D000B9F1000F02D09A4BC3F8009099489A4B5D
:1042E0000222011D1A7009F04FF978E1A0600CF06C
:1042F00009FDA3681843A06071E10CF0F9FCA4F873
:1043000058010CF0F5FCA4F85A010CF0F1FCA4F8EB
:104310005C0164E10CF0E2FC84F878010CF0DEFC56
:1043200084F87C010CF0DAFC84F87B010CF0D6FCFC
:1043300084F87D0153E10CF0D1FC60714FE10CF089
:10434000CDFC84F88E010CF0D3FCA4F898010CF09D
:10435000CFFCA4F894010CF0CBFCA4F896010CF06F
:10436000BDFC3B6884F88F015B79DFF8E891082B8E
:1043700040F235810CF0BCFCA9F89A010CF0B8FCB5
:10438000A9F89C012BE10CF0A9FC84F8D4010CF0F5
:10439000A5FC84F8D5010CF0ABFCA4F8D6011EE115
:1043A00092F805900323B9FBF3F9B9F1120F3FF628
:1043B00091ACDFF8A0A14FF0000BCB4580F00F814E
:1043C0000CF08CFC8AF89E010CF092FC40F2ED237C
:1043D000984205DD40F6CA039842A8BF184601E09E
:1043E00040F2EE20A0F2EE20192390FBF3F00BF147
:1043F000010B8AF89F010AF1020ADEE781460CF000
:104400006DFC04EB090309F10109B9F1080F83F808
:104410008601F4D1E3E053794FF0070AB3FBFAFACF
:10442000CAEBCA029B1A13F0FF0F7FF453AC5FFA7A
:104430008AFA0AF1FF3A5FFA8AFABAF1FF0F00F03E
:10444000CE800CF04BFC5FFA80FB4FFA8BF003F050
:10445000DBFB814600283FF43DAC80F800B00CF057
:1044600047FCA9F802000CF039FC89F804000CF0B4
:1044700035FC89F805000CF031FC89F807000CF0D8
:104480002DFC89F80600D4E7DFF8C89009F1400A4E
:104490000CF02EFCA9F8AC020CF020FC89F8AE025E
:1044A0000CF01CFC09F1040989F8AB02D145EFD1ED
:1044B00095E00CF013FC1F2881463FF60BAC3B68DF
:1044C0005B79082B7FF406AC0CF012FC09F18A0929
:1044D00004EB890900F03F00A9F806000CF008FC85
:1044E000B9F80630800100F4FE501843A9F8060020
:1044F0000CF0F4FB000189F804000CF0EFFB99F8D4
:10450000043000F00F00184389F804000CF0E6FBBB
:1045100089F805000BF0EEFE61E00C4B012283F8F8
:1045200035205CE0360E0020741800207A18002038
:104530007818002076180020F20F0020F40F0020D9
:1045400004100020FC0F00207C0E0020080F00202B
:104550007C180020781000200CF0C0FBFF28824659
:1045600022D100238DF81B309DF81B30052B14D869
:104570009DF81B006F4A9DF81B30012102EBC3031D
:104580005B6852F83000994089B2482203F01EFA65
:104590009DF81B300133DBB2E4E767484FF48051EC
:1045A000042203F013FA1AE005283FF693AB00202B
:1045B0000CF0E6FB0CF0C0FB3A68106803F09CFAC4
:1045C000D9F800000CF06AFB504603F00DFA0A20FF
:1045D0000BF0C1FA05F007F83A6882F849B00020FC
:1045E0000CF0CEFBFFF78CB90C283FD00A2841D144
:1045F000524D53480CF058FC2846232112F009F97B
:1046000008B1401B20602368002B36D14B480021A5
:104610003022236012F0C7F8049B1B78002B5FD177
:10462000484B1B689B0614D5474B48491B688A6B4F
:104630009A1A002A0DDB464A1278042A09D903F592
:10464000123303F5F873434A8B63D36883F0100386
:10465000D360414B9B68002B69D04048984766E087
:1046600005F026FDFFF74CB90C2847D13C480CF06B
:104670001BFC35E00D2835D1BAE75A1EA95C20296C
:1046800001D11346C0E72D4A00212360D154354B98
:10469000354DD3F80090D5F800A0DFF8A080504643
:1046A00012F0C5F8064651463246404612F0C8F8A8
:1046B0002E4A28B918F806304B445B78580703D0C7
:1046C00010359542E7D306E0954204D2701CEB68A2
:1046D0004044984702E026480CF0E6FB002395E7AB
:1046E000244807E07F280DD1144A013B00212248CD
:1046F0002360D1540CF0D8FBFFF76CB87F2804D1AD
:10470000FFF768B82F2B3FF665A8A0F12002D2B2C0
:104710005E2A3FF65FA813B920283FF45BA85A1C15
:104720002260064AD0540CF0B7FBFFF753B811B023
:10473000BDE8F08F90B801080008014080270020F4
:104740004BC3010870180020B8330020080F002068
:104750007A180020000C0140781F0020440F002030
:1047600036B501085C000020709C0108509E0108CD
:1047700041B5010831B501085DB501089148F0B5B2
:104780000368914A9C8AA4B2E1B211F0010F2ED0C5
:10479000198821F400610904090C1980198889B26B
:1047A00041F48061198000211170517899B191789C
:1047B00011B9D178FF290ED1012191701179022907
:1047C00001BF198889B241F400611980517941F023
:1047D00001011982E1E0517901F0FE011982D378DB
:1047E000FF2B00F0DA80784BFF211970D5E08E079F
:1047F0003AD5BFF35F8F1479E4B2012C13D151780D
:1048000089B1917879B1198821F480610904090C82
:104810001980BFF35F8F198B1988947189B241F4A5
:10482000007119801BE0198BBFF35F8F1479664903
:10483000022C0AD14C7844B1897831B1198821F41D
:1048400080610904090C1980A1E014795E49032CE8
:1048500005D14C781CB18978002940F0988099885E
:1048600089B241F4806197E04D0756D501219171DD
:104870005178002937D09178002934D011791C88DB
:10488000022911781DD924F480642404240C1C808E
:104890001E8A9568CCB2F6B249B26E54198889B2B4
:1048A00041F4007119800168A31C13700B8A013454
:1048B000DBB264B22B558B889BB243F480638B8050
:1048C00026E0A4B244F400741C801D8A9668CCB221
:1048D000EDB249B275541B8A611C49B2DBB2033494
:1048E0007354147014E09178374C09B9217B41B1AD
:1048F000198889B241F4007119801378013313705B
:1049000006E0198889B241F4807119800123A370EF
:1049100001680B88DB05FCD43FE001F0400101F0A9
:10492000FF05E1B114781F8A9668E5B2691C64B28C
:10493000FFB23755C9B21679117049B2CC1CA642E4
:1049400001BF9C8824F480642404240C08BF9C804C
:1049500013798B4221D11C4B02351D701DE02706B7
:104960001BD511784CB2661C0AD0156901312C5D3B
:10497000C9B21C821479117049B28C420DD106E083
:10498000D17815701982517809B9117929B99988A6
:1049900021F480610904090C9980137992F900408F
:1049A00001339C4208490CD100238B708B7933B1C1
:1049B00001688B8823F440731B041B0C8B8000233D
:1049C0001375F0BD68270020480F00202DE9F04F37
:1049D00087B06C4C02916C4922888E690546C2EB07
:1049E00026135B435200C2EBE602B4F902601B13CC
:1049F0005643B4F90420B4F90A0053439B1303EB64
:104A0000E62606EB860380331B12B6F5FA384FEA2A
:104A1000E6770493CB6947F1FF39A8FB08AB039312
:104A200008FB09F3B4F908200BEB430BE389A661FB
:104A30000593D31708FB03F102FB0911A8FB02231E
:104A40000B44C1171F030AFB01F300FB0B33AAFB46
:104A500000011603194447EA1257020A42EA0162AA
:104A600092194FEA2123E6887B410032A2FB06011E
:104A700043F5004306FB03114B100093CB17019342
:104A8000DDE900231343B4F810E0B4F80CC06DD096
:104A90000FFA8EF0C1170AFB01F1AAFB002300FBFD
:104AA0000B11BDF914600B44F71708FB07F106FB67
:104AB0000911A8FB06670F4479047004801841EAC5
:104AC000D6315941039B0FFA8CF8C3F5801E72460C
:104AD000D317002212184FEACE764FEAC3774FEA77
:104AE000C8034B4147EA5E07B61A67EB030740F677
:104AF0003543A6FB030103FB0711DDE900230EF09C
:104B0000F3FAB4F916204E1302FB06FE470B47EAF0
:104B1000C147D31707FB03EEA2FB07235643734499
:104B200007FB0366A2FB07233344560E46EAC3166F
:104B30008219B4F914604FEA636741EB07037143CC
:104B4000F71700FB0717A6FB00013944C60C46EA1D
:104B5000413692194FEAE1474FEA1221B4F9122087
:104B60007B4141EA036113010B4400E000230DB1D6
:104B70001B0A2B60029B13B11A46049B136007B0FB
:104B8000BDE8F08F0C200020480F002070477047D0
:104B90006B4B6C4A2DE9F04F5E89146A4FEA062A86
:104BA000B4EB0A0A9C884FF000054FEA04481C89C0
:104BB0004FF0000BA4FB0A6765EB0B0B04FB0B77B4
:104BC000F40944EA476418EB04065C884FF00009D6
:104BD0004FEAE7154FEAC438DC8849EB050787B090
:104BE000CDE90467A4FB0A6704FB0B77340A44EAA7
:104BF000076418EB04064FEA27259C894FF000094B
:104C000049EB0507CDE90067AAFB046704FB0B77B6
:104C1000F40D44EA472414F5FA664FEAE75545F1E6
:104C20000007B6F5FA6F77F10003CDE90267964603
:104C300066DADDE90489A4FB046704FB05F34FF0A1
:104C4000050C07EB4307A6FB0C230CFB07335F1097
:104C50004FEA3206B8EB06084FEA920646EA837638
:104C600069EB07099F10DDE90023921B63EB070343
:104C7000CDE90023DDE90267334A4FF0FF33964266
:104C800077EB0303CDE9048927DA40F6AC52002321
:104C9000A4185D4104FB05F3A4FB04456FF0060274
:104CA00005EB4305664202FB0566A4FB0223334481
:104CB00018EB020649EB0307CDE904670B26A4FBBA
:104CC000062306FB0533DDE900455B104FEA32029F
:104CD000A41A65EB0305CDE90045DDE902450AFBB1
:104CE0000BF3AAFB0AAB0BEB430B4FEADA7242EA77
:104CF0004B02A41A4FEAEB7365EB0305CDE90245BD
:104D0000DEF82440009B019DA4FB032304FB053334
:104D10004FEA525848EAC3284FEA6359DDE90423B1
:104D2000B8EB020269EB03039946D30B43EA49430C
:104D300000B1036009B1029B0B6007B0BDE8F08FC2
:104D4000A01F0020480F002024FAFFFF2DE9F041AA
:104D5000324C334D62892B8DB4F904809A1A238921
:104D6000B4F902E05A43B4F91230D613B4F914205E
:104D7000DB02324493FBF2F232440A26E2615643EC
:104D8000A2F57A6202FB02F3B4F90EC002FB0EFE3A
:104D900002FB08F2B4F90C801B130CFB03FC03FBB1
:104DA00008F31B1403EB62320232E388921002F51F
:104DB000004253434CF25032B4F920704FEAEE2EC9
:104DC000B4F900400EEBEC2C0CEB8404BC40ED6A13
:104DD0000234A5EBA4043A4162434FEAD3384EBFF4
:104DE000B2FBF8F35400B4FBF8F340F6DE3448BFEE
:104DF0005B001A12524362430A4C08365C43241487
:104E000004EB224202F6CF62361103EB221300B10B
:104E1000036001B10E60BDE8F08100BFB41F002047
:104E2000480F002043E3FFFF13B50C4B04465B68BB
:104E30001B20022101AA984770B19DF804209DF81B
:104E4000053043EA022303F54E5310334FF48C72BE
:104E500093FBF2F32333238002B010BD8C1F00209C
:104E600037B5104B04465D68187806216A46A84796
:104E7000A8B19DF800209DF80130012043EA0223EB
:104E800023809DF802209DF8033043EA02236380CB
:104E90009DF804209DF8053043EA0223A38003B067
:104EA00030BD00BF8C1F002013B5104B04465B685B
:104EB0003B2006216A469847A8B19DF800209DF83E
:104EC0000130012043EA022323809DF802209DF84F
:104ED000033043EA022363809DF804209DF80530E7
:104EE00043EA0223A38002B010BD00BF8C1F002044
:104EF000B0F5807F0ED0BB280ED861280ED82928A7
:104F00000ED813280ED809280ED8002814BF062062
:104F10000020704700207047012070470220704732
:104F200003207047042070470520704710B5224CBD
:104F30002368998A89B211F4706F1EBF1F4A01203D
:104F400082F8300011F4E06F2BD01A8B9A88890513
:104F500022F480624FEA02424FEA12429A8020D441
:104F60001A8892051DD41A88D0050FD51A88D10544
:104F7000FCD41A8892B242F400721A801A88920500
:104F8000FCD40F4B187807F043F80AE01A8892B265
:104F900042F400721A809A8822F440721204120CB1
:104FA0009A802268938A23F470631B041B0C9382FB
:104FB000024B00221A7510BD68270020480F002000
:104FC0006C270020054A08B5138801339BB2138073
:104FD000034B187807F01CF8002008BD820F002052
:104FE0006C27002008B54FF4804009F013F8012821
:104FF00001BF044B4FF480425A61034B08BF83F852
:10500000310008BD00040140480F002010B5054CD8
:105010002368186908F0FEFF18B123681A69024B6B
:105020005A6110BD981F002000040140F8B50E46DB
:105030001746084C4FF48055656140F080000DF034
:1050400021FC3846002132460DF0E6FB25610120A7
:10505000F8BD00BF000C014070B50E46054C4FF482
:10506000805565610DF00EFC30460DF00BFC25619E
:10507000012070BD000C014070B5FFF739FF104CE6
:10508000054619200AF067FDA368152000219847FE
:1050900010B902200AF0C8FD45F01801A368C9B292
:1050A00016209847A368002117209847A36801217C
:1050B0003D209847A3683E200121BDE87040184775
:1050C0008C1F0020F0B5284D85B095F83230002BAC
:1050D00047D1264C2368002B43D01A68244E12B1C6
:1050E000B1690A43B2619A889868ADF8002002223B
:1050F0008DF80320694604228DF8022006F033FD66
:10510000B369002743F00103B36123680126187BCC
:10511000197D06F013FD2368164993F915000AF06E
:10512000CDFD2368144A1B695361029308230DEBDC
:1051300003008DF80D308DF80C708DF80E6008F0BE
:1051400039FF236801A85B7D8DF806708DF8043067
:1051500003238DF805308DF807600DF03FFB85F8CF
:10516000326005B0F0BD00BF480F0020981F00203E
:10517000001002400D5000080004014037B50446FD
:10518000FFF7A0FF254B1A68254B9A420ED14FF42A
:105190000053ADF8043002238DF807300423214872
:1051A0000DEB03018DF8063006F0DDFC2046FFF71D
:1051B0009FFE05461C4C8021A3686B209847642005
:1051C0000AF0C9FCA36807216820984764200AF008
:1051D000C2FCA36800216B20984764200AF0BBFC46
:1051E000A36801216B209847A36818211B209847CA
:1051F000A36810211C209847A36829461A209847C5
:10520000A368002119209847A368122137209847E6
:10521000A36801213820984703B030BD3C0000202E
:10522000001BB700001001408C1F002008B5FFF7DD
:1052300049FF024B4FF480521A8008BD2400002021
:1052400070B50446FFF73EFF2046FFF751FE0546C6
:10525000144C8021A3686B20984764200AF07BFCE3
:10526000A368002119209847A36803216B20984761
:105270000F200AF070FCA36829461A209847A368FB
:1052800018211B209847A36810211C209847A36869
:10529000022137209847A36838200121BDE87040DB
:1052A000184700BF8C1F002008B5FFF70BFF074B06
:1052B0005B7813B1012B03D008BD4FF4006201E00D
:1052C0004FF48052024B1A8008BD00BF881F002097
:1052D0002400002010B51E4C4000C0B2A360236122
:1052E0001C4B6071E17001200021217360702271FC
:1052F0002075186884F8301040B383889B0515D456
:105300000388D9050DD447F230530288920502D59F
:10531000013BFAD112E08BB103889BB243F4807356
:10532000038083889BB243F44073838047F23053F9
:10533000227D12B1013BFBD100E013B9BDE8104062
:1053400040E6034B93F8300080F0010010BD00BF31
:10535000480F00206827002007B5F7216B4606227A
:105360007620FFF7B7FF9DF800309DF801101B0372
:1053700043EA01139DF80210094A43EA1113D3616D
:105380009DF803309DF804101B0343EA01139DF8B8
:10539000051043EA1113936103B05DF804FB00BFED
:1053A000480F002007B5002101AB03227720FFF74B
:1053B00091FF9DF805309DF804001B0243EA00436D
:1053C0009DF80600184303B05DF804FB08B5FFF72D
:1053D000E9FF014B586208BD480F002008B5FFF7F0
:1053E000E1FF014B186208BD480F0020104B13B5B8
:1053F0001B78104C13B194F83130B3B1032201ABD8
:105400007720F621FFF766FF9DF805309DF8042010
:105410001B0243EA02439DF806201343064AB2F9F1
:105420002020C2F10802D340E36202B010BD00BFE9
:105430002C000020480F0020B41F00200B4B13B598
:105440001B780B4C13B194F8313063B1022201ABDD
:105450007720F621FFF73EFF9DF804209DF80530E8
:1054600043EA0223238502B010BD00BF2C000020B8
:10547000480F002030B505460C4613462946224603
:10548000BDE83040682025E713B506220446012117
:105490001C206B46FFF71EFF08B39DF801309DF8F6
:1054A0000020042143EA022242F38D0292FBF1F232
:1054B0009DF8023022809DF8032042EA032242F345
:1054C0008D0292FBF1F29DF8043062809DF8052078
:1054D00042EA032343F38D0393FBF1F3A38002B06D
:1054E00010BD13B506220446022118206B46FFF7B3
:1054F000F1FEB8B19DF800309DF801209B0803EB48
:10550000022323809DF802309DF803209B0803EBC3
:10551000022363809DF804309DF805209B0803EB6F
:105520000223A38002B010BD314B2DE9F3411B785B
:105530000546002B3CD0002426462746A0460134D1
:105540005320322108226B46E4B2FFF7C3FE08B9AC
:1055500000204AE09DF801209DF80030202C03EB4C
:1055600002231BB29DF8032098449DF8023003EB00
:1055700002231BB21F449DF805209DF8043003EB65
:1055800002231BB21E449DF8073003F07F0301D0B5
:10559000002BD4D198FBF4F897FBF4F796FBF4F6C4
:1055A000144BA5F800806F80AE8083F833401CE078
:1055B0005320322106226B46FFF78CFE0028C7D00D
:1055C0009DF801209DF8003003EB02232B809DF80D
:1055D00003209DF8023003EB02236B809DF8052029
:1055E0009DF8043003EB0223AB8002B0BDE8F081EC
:1055F0009E1F0020480F002013B5204B400002AC36
:10560000C0B2587104F8012DD970012200211A731B
:1056100059701A711A751A4A1C6110689C6083F8D7
:10562000301040B38288920515D40288D4050DD479
:1056300047F230520188890502D5013AFAD112E0C9
:105640008AB1028892B242F480720280828892B259
:1056500042F44072828047F23052197D11B1013A12
:10566000FBD100E012B9FFF7ADFC04E0034B93F867
:10567000300080F0010002B010BD00BF480F0020D4
:10568000682700207620F4213122B5E777204821D1
:105690000122B1E7772058210122ADE7064B002116
:1056A00093F82020054B9201343283F83110772093
:1056B000F42102F0FC029FE7B41F0020480F0020F5
:1056C000034B002283F831207720F4212E2293E728
:1056D000480F002003460A46682019468CE713B598
:1056E00000222A211C20FFF787FF0E2102221C2006
:1056F000FFF782FF0F2103221C20FFF77DFF2B21E4
:1057000012221C20FFF778FF164A022493691648DC
:1057100043F0040393612023ADF8043004230DEB20
:1057200003018DF806308DF8074006F01CFA22467A
:105730002C211C20FFF760FF2D2101221C20FFF7E8
:105740005BFF2E2100221C20FFF756FF2A21052295
:105750001C20FFF751FF054B4FF480721A8002B0F6
:1057600010BD00BF001002400008014024000020CE
:1057700008B50F2108221820FFF73EFF0E2218203F
:105780001021FFF739FF024B4FF480521A8008BDF9
:105790002400002008B5134B53201B782D2108222C
:1057A0007BB1FFF729FF31210A225320FFF724FFA5
:1057B0002C210C225320FFF71FFF53203821902269
:1057C00009E0FFF719FF31210A225320FFF714FFE8
:1057D00053202C210A22FFF70FFF40F20912024B3F
:1057E0001A8008BD9E1F002024000020FEF7C6BFBF
:1057F000FFF79CBBFEF7C2BFFFF798BB2DE9F04750
:105800004B28A0B0044600F0E08500F2B3803028B9
:1058100000F0508651D8222800F02A8423D803288B
:1058200000F05E8114D8012800F04E81022840F07B
:10583000D88604200BF0A4FA43200BF06CFA4C201D
:105840000BF069FA46200BF066FA4C2000F0F1BD2F
:10585000042800F04E81052840F0C3861A200BF082
:105860008FFA002458E1282800F07D8515D82428D7
:1058700000F06485262840F0B486B44C06200BF076
:105880007FFAB4F858010BF07EFAB4F85A010BF025
:105890007AFAB4F85C0100F0A0BE2C2800F07685FE
:1058A0002E2800F0F1852A2840F09B8601200BF07D
:1058B00067FAA64B587900F0BCBD3D2800F0148370
:1058C0001DD8362800F0C6850AD8322800F0AB85EE
:1058D000342840F0868648200BF052FA0025E9E390
:1058E0003A2800F0B8823B2800F0BB83382840F00B
:1058F000788604200BF044FA944C00F025BD45282E
:1059000000F0478627D8402800F09685422840F0CE
:1059100068868E4C10200BF033FA60790BF0FBF99F
:10592000A0680BF039FA94F88E010BF0F4F9B4F892
:1059300058010BF028FAB4F85A010BF024FAB4F825
:105940005C010BF020FAB4F87E010BF01CFAB4F8FD
:10595000800100F042BE472800F0F985C0F0E685DE
:10596000492840F03E8602200BF00AFA774B9889CE
:1059700000F033BE702800F0EA8258D8692800F0A1
:1059800048822AD8652800F0FD8015D84D2800F0FF
:105990002B85642840F0258607200BF0F1F9E720DD
:1059A0000BF0B9F9694B58790BF0B5F900200BF001
:1059B000B2F9042000F0FCBD672800F0AF8100F2CE
:1059C0001C8212200BF0DCF9614B00241B88B3F51C
:1059D000806F8CBF0825012582E16C2800F02C82A5
:1059E00017D86A2800F02E846B2840F0FA8505202D
:1059F0000BF0C6F9574B18880BF0C5F9564B1888B1
:105A00000BF0C1F9554B93F8720000F0010000F063
:105A100010BD6E28514D00F0248200F270820620E5
:105A20000BF0AEF9286E0BF0B7F94D4B11E2782868
:105A300000F0818118D8742800F05D830AD872289C
:105A400000F0C083732840F0CC8508200BF098F953
:105A50000124F0E3762800F0158400F285832F20DE
:105A60000BF08EF93F4CF4E2A42800F0328414D8F5
:105A70007C2800F0A085A02840F0B3850C200BF016
:105A80007FF9394B18680BF087F9384B18680BF021
:105A900083F9374B186800F08BBDF12800F087813F
:105AA000FE2800F03D84F02840F09B852B4C04201C
:105AB0000BF066F9236CB3F85A000BF064F9236C11
:105AC000B3F8580000F089BD03200BF059F900200D
:105AD0000BF021F920460BF01EF90E2000F0A9BCB6
