:020000040800F2
:10000000005000202D4D0108B5F1000815370108FA
:10001000B3F10008B1F10008AFF1000800000000E2
:10002000000000000000000000000000ADF100082A
:10003000ABF1000800000000A9F10008FFDF000894
:10004000CD4D0108CD4D0108CD4D0108CD4D010824
:10005000CD4D0108CD4D01082DB300082BB300088C
:10006000CD4D01080DE00008CD4D0108CD4D010832
:10007000CD4D0108CD4D010841B30008CD4D01081B
:1000800031E90008CD4D0108CD4D0108CD4D0108E5
:1000900015F20008CD4D0108CD4D010829B3000827
:1000A000CD4D010801CE0008CD4D010811CE00084C
:1000B000F1CD0008E1CD0008D1CD000805560008BB
:1000C00009560008FF55000803560008CD4D0108E9
:1000D000CD4D010839B30008CD4D01082FB30008FC
:1000E00011E00008CD4D0108213101080000000099
:1000F0000000000000000000000000000000000000
:0C01000000000000000000005FF808F1A3
:100110002DE9F04F724B734EA5B03360002373602E
:100120000FF036FC18B90FF055FC07F06FFC07F024
:1001300013FD6D4A6D4C1378A07B43F001031370DF
:1001400000230C930D930E934FF4E0130F93684B21
:100150009B461A6842F480321A609A6942F0100293
:100160009A61DBF8003003F400330D930C9B0133EC
:100170000C930D9B1BB90C9BB3F5A06FF1D1DBF871
:1001800000305B4913F4003301D0022317E00A6802
:1001900042F001020A600C93DBF8003003F0020326
:1001A0000D930C9B01330C930D9B1BB90C9BB3F56A
:1001B000A06FF1D1DBF800309A0741D501230E93EF
:1001C0004C4B4D491A6842F010021A601A6822F02E
:1001D00003021A601A6842F002021A60DBF8043067
:1001E000CBF80430DBF80430CBF80430DBF8043013
:1001F00043F48063CBF80430404B1A68043B22F090
:1002000070425A603E4A0A60DBF8042022F47C12F5
:10021000CBF804205A6842F000425A60DA6822F4AF
:100220000042DA609B681B0449BF364B4FF4E01371
:100230000B604FF480130F930E9B012B01D118E03C
:10024000FEE7022B1BD168B10F9BB3F5801F02D1D3
:100250004FF4A01305E00F9BB3F5E01F02D14FF45C
:1002600000130F930F9ADBF80430134343F48033E9
:1002700003E0DBF8043043F46013CBF80430DBF820
:10028000003043F08073CBF80030DBF80020184BCF
:100290009701FAD55A6822F003025A605A6842F070
:1002A00002025A60DBF80430114803F00C03082BFB
:1002B000F8D14268144B02F00C02042A03D0082A39
:1002C00003D00F4A2AE00A6828E042684568C2F372
:1002D0008342ED0302F102021AD40C491DE000BF73
:1002E000537200087001002038300020A411002053
:1002F00000100240002002402800002004100140AD
:1003000000127A00001BB700FC00002000093D002D
:1003100040680968800348BF49084A431A60DBF80F
:100320000420524FC2F303123A44117B1A68DFF8DB
:100330006CC1CA404FF6FF711A604D4A0593CCF864
:1003400008204C4A24ADCCF80C20DBF81820CDF85E
:1003500010C042F00102CBF81820DBF82420DFF8AF
:100360004081B260DBF82420DFF8389142F08072DF
:10037000CBF82420DBF81820404642F01C02CBF8D2
:10038000182025F82C1D002229468DF8662003929E
:100390000EF0D9FB484629460EF0D5FB36482946D3
:1003A0000EF0D1FB10218DF84A1002218DF84B1070
:1003B0000DF1900A4FF400712AF8481D4046C8F824
:1003C000101051460EF0BFFB2C48416841F00071FF
:1003D0004160284609F0E2FC19992948059BB1FBC8
:1003E000F0F12848039A016027491B680A604A60B7
:1003F0004FF47A71B3FBF1F32449DDF810C0013BEF
:100400004B60F0238CF8233007238A600B60A168CF
:100410001F4A204B116007F11C0103C985E8030046
:10042000DBF81810049341F008010392CBF8181080
:100430000821C9F8101019981AA90EF084FB039A24
:10044000CDF814801168904611F0080F049B31D04C
:1004500093F88E21012A2DD893F88F210E4B9B689B
:1004600013F0805300F0D88524E000BF349B0108CE
:10047000000000080005FA050010014000000140DE
:1004800040420F00502600202026002010E000E00F
:100490007C190020A41100207001002000ED00E074
:1004A00000080140000C0140B64B002283F88F2168
:1004B00007F032FD64200DF098FDA022B248002123
:1004C00017F077F8B14A536823F4406343F0706340
:1004D00043F400635360DBF81C30002243F0070351
:1004E000CBF81C30DBF8183043F4006343F00C0306
:1004F000CBF81830A64B4FF0000B03F10C0102F8BB
:1005000001B001320C2AF5D1FF221A765A769A767A
:10051000DA76A04BA04AD8F800901A609F48594656
:10052000302217F046F8C9F3801804239C4A9B49EF
:100530001BF802000C2202FB0BF25054B8F1000F22
:1005400006D11E2801BFFF2003F1FF335054DBB258
:100550000BF1010BBBF1040FE8D1924A94F805B0FE
:100560001370914B914983F800B0914B884AF36125
:10057000C0330B608F4B19F0200F03EBCB035B787C
:1005800018BF01231362002340F2DC518A4A22F88B
:1005900013100133082BF7D11C225046002117F00D
:1005A00008F819F400721DBF844B18950393039249
:1005B000BBF10E0F03D00BF0EF03082B02D1012388
:1005C0008DF85A30C9F340038DF84E30C9F34033EB
:1005D0008DF84830C9F3C0338DF84B3019F40063FF
:1005E0008DF8508007D094F8823103F1FF3EDEF1A0
:1005F000000343EB0E038DF84C30C9F300438DF834
:100600005130336A003218BF0122003318BF012372
:100610008DF85330C9F300538DF85430B4F8463197
:100620008DF85220B4F8442119F4805FADF85830A9
:10063000B4F85231ADF85E2018BF524AADF85630CA
:10064000C9F3804318BFB2F84C218DF84F30B4F88D
:10065000503118BFADF85E20B3F5FA7FADF85C30CD
:1006600084BF0023ADF85E3094F8D231544A86F846
:100670002430002386F8253053709DF85A3009F055
:100680000100002BC9F3C0018DF849008DF84A1014
:100690000CBF0023022300B901B1013307EB83072C
:1006A0007B6A4FF0000A9A1E163304920693049A4E
:1006B00032F8023F04924FF6FF72934200F0C3817A
:1006C0009DF84D10DCB21B0ADAB219B1A11E012946
:1006D00040F2B4819DF8501031B13A4821014058A0
:1006E0003949884200F0AA819DF8511031B135484E
:1006F000210140583449884200F0A0819DF84E10F5
:1007000051B13048059F00EB04104168B94203D154
:100710000189012900F092819DF84B1051B12948BF
:10072000059F00EB04104168B94203D101890229F9
:1007300000F084819DF84C1051B12248234F00EB0A
:1007400004104168B94203D10189022900F0768181
:10075000189F8FB11B4901EB041EDEF804003968B5
:10076000884209D1BEF80810B888884200F0668136
:10077000F888884200F06281022B29D19DF8483028
:100780002AE000BFA4110020D02600200000014074
:1007900070010020B82D002094130020BC2D0020F3
:1007A0008DDC0108761100203C090020EC27002098
:1007B000B4110020A4C40108D4100020349B010807
:1007C000950100200CBF010800040040000C01400E
:1007D000012B04D19DF84930002B00F02F819DF8AA
:1007E0005310BE4B51B19DF85A1039B9092C05D19F
:1007F000D3F89010BA48814208BF04229DF85410E3
:1008000031B19DF85A1019B9211F032998BF04224C
:100810009DF8481024011F19A1B1D11EC9B20129A8
:1008200008D81B59B3F1804F00F00881AD498B42C5
:1008300060D103E1022A40F0E4801A59AA4B9A429F
:100840005AD1FBE0012A55D19DF84F20DFF8A8824C
:1008500022B9BDF85C20B2F5FA7F06D91A59A24B2D
:100860009A4204BF032388F82730FF2388F86C30AE
:1008700088F86D30994B4FF000091A19517B506878
:1008800002F1080B12898DF86610ADF8642019A9E1
:10089000022288F87090C8F87C7007938DF8672062
:1008A00088F82890C8F82C90C8F83090C8F8349090
:1008B000C8F8689088F86E9088F86F900EF043F949
:1008C000079B9BF8021018594A4607F07CFE3846F1
:1008D000494601220AF084FC844B8549C8F88030DF
:1008E000844BC8F88890C8F8843038460A1D0AF04E
:1008F000BFFCA3E0022A4BD15FFA8AF31C2101FB63
:1009000003FC764A7C4B111903EB0C0991F80DE0BE
:1009100001F10803486809894FF000084FF0010B06
:10092000ADF86410022189F871A08DF8671089F87C
:10093000728019A989F87A8089F870B0C9F87C703A
:10094000CDF824C08DF866E0089207930EF0FBF80E
:10095000079B089A99781059424607F034FE3846AA
:1009600041465A460AF03CFC644A634BDDF824C019
:10097000C9F880209C44624A0CF18001C9F88420A7
:10098000C9F8888038460A1D0AF072FCDA4455E03E
:10099000032A39D19DF84F30574CDFF88C813BB199
:1009A00094F82690384608214FF6FF7200231CE089
:1009B000BDF85C2094F82690B2F5FA7F0DD9514B22
:1009C0003846B3FBF2F20821BDF85E3092B207F070
:1009D0004FFE4D4B48F829000CE04C4B3846B3FB1A
:1009E000F2F2BDF85E30012192B207F041FE484BB1
:1009F00048F82900C36094F82630013384F8263083
:100A00001CE0012A3FF420AF042A17D1BDF856207C
:100A10003E4B394C93FBF2F23846BDF85830012179
:100A200092B294F8258007F023FE94F8253004EB69
:100A300088080133C8F8500184F82530049B069AD1
:100A400093427FF434AE96F82520324B86F870211D
:100A5000314A002792F800901F70A9F11702022A6C
:100A6000254C9A461BD8E3690021D85903EB0708A7
:100A700013F00CF918B1336A002B57D127E0274B3C
:100A800007EB030E98E80F008EE80F009AF800308D
:100A900010370133C02F8AF80030E4D1EBE7204B48
:100AA00013F839C003EBC903D3F804808AF800C0F7
:100AB000B8F1000FDFD06745DDDA184A3B0103EBE0
:100AC000020E43440FCB01378EE80F00F3E7154BBE
:100AD0001A68984612F4805F4CD145E00CBF0108BB
:100AE000002C01400004004000080040398000084C
:100AF000F001002025810008700100200186000817
:100B00001180000800127A004581000840420F0061
:100B100035810008CC2600203C0900207808002000
:100B2000A4C401087C1900209C2600202E4B2F4ACB
:100B300013F8390003EBC9035E681070002EC6D0AD
:100B400000238342C3DAC3EBC3017218D2F800C09A
:100B5000DFF8A4E0013341F80EC001EB0E079188E5
:100B6000B9809279BA71ECE709F0EF03082B204BBA
:100B700025D127E09AF80030012BF5D91D4E06EB60
:100B8000031303F110071036BE42EDD056F8100CD7
:100B90004FF07C5112F0E6FE4FF07C5146F8100CFD
:100BA00056F8140C12F0DEFE4FF07C5146F8140C8F
:100BB00056F80C0C12F0D6FE46F80C0CE3E7B9F12F
:100BC0000E0F09D11A78B9F1180F42F010021A70FD
:100BD00014D10DF09FFD11E01A78B9F1190F22F030
:100BE00010021A70F4E700BFE4A90108782700207A
:100BF0009819002080080020792700200DF06EFD54
:100C0000D8F80030BF4E58035EBFBF4B01221A70A8
:100C1000BE4A4FF002091378294643F004031370CB
:100C20004FF40043ADF8643014238DF86630B36997
:100C30008DF8679043F00403B361B5480DF083FF6E
:100C4000B44AB54B00201A600DF0E4F9B34B03270A
:100C500093E80300B36985E8030043F00803B36138
:100C600019981AA90DF06FFFB369182243F4805345
:100C7000B361F368A64843F48053F3602946A02388
:100C80008DF8662005924FF0040AADF864308DF8B7
:100C900067700DF058FF40239D482946ADF8643039
:100CA0008DF866A00DF04FFF102399482946ADF846
:100CB00064308DF8663004930DF045FFF1684FF015
:100CC000070B41F48051F160F168059A21F48051DD
:100CD000F1609349088800F4415040F4457038436E
:100CE0000880888B20F400600004000C8883A1F841
:100CF00010B0088880B240F040000880F16941F4EB
:100D00008041F161316941F4804131618DF8677052
:100D1000844F8DF8662038464FF420422946ADF8BE
:100D200064200DF010FF4FF4804238462946ADF89C
:100D300064208DF866A00DF006FF049B4FF4805AE6
:100D4000384629468DF86630ADF864A00DF0FBFEFC
:100D50003369754A43F4804333613369484623F469
:100D600080433361138803F4415343F4457343F0E4
:100D700003031380938B23F400631B041B0C9383E6
:100D8000A2F810B013889BB243F040031380C7F859
:100D900010A00CF0EBFF002801F0BE824388002B6E
:100DA00001F0BA82614F002138461022D8F8005075
:100DB00016F0FFFB4FF6FF73ADF84430022305F445
:100DC000004A05F400694FF0000B1D408DF84630D5
:100DD0008DF847B00DD0012524A921F84C5D4C4871
:100DE00009F04AF9072387F800B087F801B0BD7011
:100DF000FB70BAF1000F0ED0022324A921F84C3D5C
:100E0000434809F039F90123EA183B71BB71072304
:100E10007D71FB71D5B2B9F1000F0FD0022324A967
:100E200021F84C3D3F4809F027F9092301223B7383
:100E3000BA736B1C07227D73FA73DDB273683C488A
:100E400043F4404373607369DFF8E49043F00103B7
:100E50007361B36943F40073B36108F026FF19A806
:100E600008F0F8FE334B012D1993334B4FF0000679
:100E70001A9394BF334680231E934FF480731F93BD
:100E80004FF480632093202319A9219348464FF4FF
:100E900000531C9522931B961D96239608F0E7FE9F
:100EA000D9F80030254A43F00103C9F800305368EF
:100EB000012D23F4702394BF0021012123F48073BA
:100EC00043EA0123536091681D4B013D0B4043F4FD
:100ED000602343F002039360D36AEDB223F47003FE
:100EE00043EA0555D5620123BA19917800297DD0CE
:100EF000B85D591C0928C9B2D278DFF840E033D96F
:100F000020E000BF00100240A80D00203830002073
:100F10000008014059DD000848300020689B0108A6
:100F200000300140000C014000380040241E002029
:100F3000080002404C240140341E002000240140DF
:100F4000FDF7F1FFA0F10A05DEF80C9005EB450571
:100F50004FF0070C0CFA05FC29EA0C0CAA404CEAED
:100F60000202CEF80C200EE0DEF8105000EB400933
:100F70004FF0070C0CFA09FC25EA0C0502FA09F2FD
:100F80002A43CEF81020062BC94D0ED8013B6A6BC0
:100F900003EB83034FF01F0E0EFA03FE22EA0E024C
:100FA00000FA03F313436B631FE00C2B0ED8DA1F18
:100FB000D5F830C002EB82021F2393402CEA030EC7
:100FC00000FA02F34EEA03032B630EE0A3F10D02D5
:100FD000D5F82CC002EB82021F2393402CEA030EAB
:100FE00000FA02F34EEA0303EB620B460436102EBE
:100FF0007FF47AAFAE4B9A6842F480729A609A6836
:1010000042F001029A609A6842F008029A60996878
:10101000A74A090733D5FAE7013A092A3FF64AAA4F
:10102000B86D29462860484603930DF08CFD4FF4B7
:101030000062C9F810203C200CF0D7FF039B94F805
:101040008F219342BFF630AADFF8A09208214FF417
:10105000006206937820C9F810100491C9F8142092
:1010600003920CF0B7FF0499039AC9F81410782082
:10107000C9F810200CF0AEFF069B0133DFE7936840
:1010800043F0040393608A4B9F6817F00407FAD17A
:10109000884D9A68B5F8580142F4A0029A60002879
:1010A00041F03F81B5F95A31002B41F03A81B5F951
:1010B0005C31002B41F03581D8F800309B031FD5FF
:1010C000C8200CF092FFAE200DF0BDFE08B10DF06F
:1010D000BFFE794E84F87101C8200CF086FF774B73
:1010E00000210C223046C4F8743116F062FA022353
:1010F000F3700FF0DEFC0CF051FF714B0344B36052
:1011000095F86731002104936E4B0C221B686E48E2
:10111000B3F856A0B5F860B195F85F916B4E95F8AD
:10112000685116F046FA00211022694816F041FA7B
:101130004FF0000C84F878C1614686F879C10C2222
:1011400006F5BE70CDF814C016F033FA614A2320BC
:10115000C4F888210CF049FF752001210DF12F0200
:1011600004F0E0F9C0B15C4ADDF814C0C6F8802193
:101170005A4A6046C6F88421432286F87C21012120
:1011800010AA04F0CFF99DF8402002F07E028DF8FD
:101190004020002846D14EE0514A6B201388802120
:1011A00023F040031B041B0C13801388062623F036
:1011B00038031B041B0C43F03003138013889BB2CD
:1011C00043F04003138004F085FA96200CF00DFFE5
:1011D00019AA7520012104F062FA9DF86420682A9A
:1011E00004D0731E13F0FF06EFD189E00C2001211B
:1011F00019AA04F054FA9DF86430142BC0F08080D2
:10120000182B02D9543B062B7AD8032384F8783163
:10121000432384F87C31334BC4F88031324BC4F81B
:1012200084316DE0682A06D1012286F878211D22DA
:1012300086F87C2164E09DF82F3003F07E03682B54
:101240008DF82F3057D10223062084F878310146DB
:10125000D4F8803119AA98479DF8691001F001026D
:101260009DF8671001F001014B0043EA82019DF8EF
:10127000652002F001030B430AD05BB2012B01D1C0
:10128000002302E0022B0FD1012384F8793137E0EB
:101290000E4B0C20D3F88031012111AA98479DF8FC
:1012A000443013F00F0323D103200CF007FF27E095
:1012B00000240140A4110020882300202A130020CC
:1012C000404B4C00E4100020D02900207001002089
:1012D0000C2E0020709B010825550008F5550008CC
:1012E000003001409F560008D5560008000C014010
:1012F000042BC9D1C4E7702B04BF042384F87831D0
:10130000B04A0023137094F87831032B11D1AE4BFF
:10131000AE49AF481960AF495960AF49D96004235D
:101320001370AE4A06231168037041F00103136085
:1013300003E001200CF0C2FEF2E14B4640F2023C19
:101340000A2B28BF00234FF0010E0EFA03FE0EEA0F
:101350000C0CBCF1000F16D11EF0FD0F13D0A04BEA
:10136000DFF89CE241F00301C3F800E0DFF894E20B
:101370001160C3F804E09B4B4FF0040E83F800E0CB
:101380000723437006E0012B4FF00009D5D8954B99
:1013900083F80090042D00F21281DFE815F00500BB
:1013A0003D016C0005003D010A200CF01EFE772077
:1013B000A021012211AB04F01BF800285BD01E21F4
:1013C0000122772004F0B8F84FF42F600CF002FEF1
:1013D0004FF00009A9F160010025C9B2022219AB42
:1013E00077208DF864508DF8655004F001F89DF871
:1013F00065309DF8642043EA02227B4B03F5C671F9
:1014000029F8012009F10209B9F1100FE2D1B3F86E
:101410009A114FF0010E01F00F0001F47F41A3F883
:101420009A112B4625F001022244B2F88C21002AA1
:1014300018BF4FF0000EEE0703D5D2B2534008227A
:1014400002E083EA1223FAE71E0448BF83F4C05384
:10145000013A4FEA4303F7D10135102DE2D1624A38
:101460000143A2F89A11BEF1000F04D1C3F3033374
:10147000984200F02F8794F89C315B4D002B40F090
:10148000C38014200CF0B1FD7720D021012211ABD4
:1014900003F0AEFF002800F0BF809DF84430032227
:1014A000552B85F8B731A5F8C02140F0B580D12182
:1014B000012211AB772003F09BFF9DF84430772089
:1014C00003F00F021B0985F8B82185F8B9311622FF
:1014D00019ABAA2103F08CFF9DF864209DF86530BC
:1014E00043EA0223A5F8A0319DF866209DF86730F5
:1014F00043EA0223A5F8A2319DF868209DF86930DF
:1015000043EA0223A5F8A4319DF86A209DF86B30C8
:1015100043EA0223A5F8A6319DF86C209DF86D30B2
:1015200043EA0223A5F8A8319DF86E209DF86F309C
:1015300043EA0223A5F8AA319DF870209DF8713086
:1015400043EA0223A5F8AC319DF872209DF8733070
:1015500043EA0223A5F8AE319DF874209DF875305A
:1015600043EA0223A5F8B0319DF876209DF8773044
:1015700043EA0223A5F8B2319DF878209DF879302E
:1015800043EA0223A5F8B43141F27073A5F8C431DF
:1015900046F67813A5F8C631144BC5F8C831144B7C
:1015A000C5F8CC31134BC5F8D031134BC5F8D43145
:1015B000124BC5F8D831012385F89C3124E0012D68
:1015C00023D129E06C0700200C2E002001570008D1
:1015D000F80000209151000890C1793D9419002035
:1015E000D02900206430002070010020ED55000853
:1015F000FD540008D5550008BD540008B55000083A
:10160000A1530008D95100080225364B364A9D7077
:10161000136843F004031360334D2B689A0702D517
:10162000324B1B689847324B58461B689847049EBC
:10163000304A00231370914616B1022E40F06286A4
:101640004FF0000B24AB03F82CBD1E200A21012211
:10165000C4F8DCB103F0CCFE002800F082869DF8CF
:101660006430482B0CD1244B244A1A60244A5A6017
:101670001C4B0222DA702B6843F008032B6002E057
:10168000584600F06EBE1F4B93F854210AB11E4914
:101690000A7093F855210AB11C490A7093F8563123
:1016A0000BB189F800302B68194D13F0080F35D0B5
:1016B0000FFA8AFA64269AFBF6F4204612F0FEF836
:1016C000814606FB14A000B212F0F8F8114912F09E
:1016D00049F90146484612F03DF80F4912F042F927
:1016E00028601DE0F800002094190020D029002077
:1016F0000C2E002065300020DC060020ABEB00083B
:10170000B9E80008A41100206C0700206430002014
:10171000F82700208988883C0000204100232B60A6
:10172000B14A0A24137843F002031370AF4B082226
:101730001A61AE4D1920EB68013C83F00803EB60A1
:101740000CF053FC01200CF065FC19200CF04DFC52
:1017500000200CF05FFC14F0FF04EAD10823A44C35
:101760002B6123681B0705D5A24B1B689847A24B2A
:1017700001221A70A14BA24D1B68187B12F09EF833
:10178000A04912F0EFF806F01DF80646288812F07E
:1017900095F8314612F0E6F816F018F99A4B1880D1
:1017A000288812F08BF80146984812F08FF9984972
:1017B00012F08CF9974B93491860974B974DD86866
:1017C00012F0D0F8964912F0CDF8964BFF21186030
:1017D0001B22284615F0EDFE284600222A702268BA
:1017E000914B012112F0020F18BF697019701FBFD1
:1017F000032119700221A970560741BF19784D1CA9
:101800001D70032548BF455412F00A0F0CD01A78FA
:1018100004218154511CC9B205254554D11C023202
:101820001970D2B206218154D8F800108D0641BF3C
:101830001A78551C1D70072548BF85540A0608D51F
:101840001A7809258554951C01321D70D2B20A25DB
:101850008554764D6E79082E01D00E2E08D11A7857
:1018600002F1010E83F800E04FF00B0E00F802E0E9
:101870001A7811F4803F4FF00C0C00F802C002F10E
:10188000010E1CBFDFF8A0C102325FFA8EFE83F8A2
:1018900000E01FBF8CF80020604A4FF00E0C02F8E9
:1018A0000EC04A0748BF1A784FF0120C41BF02F130
:1018B000010E83F800E04FF0100E00F802E01A78F5
:1018C00011F4806F02F1010E5FFA8EFE83F800E0E2
:1018D00000F802C00ED095F814C2BCF1000F09D078
:1018E000DFF844C102328CF800204C4A4FF0130C50
:1018F00002F80EC08A0541BF1A7802F1010E83F882
:1019000000E04FF0150E48BF00F802E0182E13D18A
:101910001A784FF0160E00F802E002F1010E5FFA9D
:101920008EFE4FF0170C00F80EC002F1030E0232CB
:10193000D2B283F800E086540E0341BF1A78561CD9
:101940001E70192648BF8654CA0548BF1A78384EFB
:1019500041BF511C19701A23835400219822354825
:1019600015F027FE10F005FE334834498046344B0D
:10197000B5F84E211960334B316033491A8000238A
:10198000324AD0F800E00B70B5F8941113809370D0
:101990001FFA81FA0EF17902DFF8BC902C48D9F8D1
:1019A0000060DFF8B8C006F5967620F813A04CF872
:1019B00023600133122BEFD1264E0EF1C90ED6F85B
:1019C00000C01CF4805F08BFB5F89AA1A0F806A07B
:1019D0001378002B53D1937892F803A053454ED23D
:1019E000002B3DD0013B3DE038300020000C014091
:1019F00094190020DC060020F4060020F8070020DF
:101A00002400002035FA8E3C140800200AE81C410E
:101A100000401C46280700200C2E0020AD1000209E
:101A2000BD378635F4070020AC100020A41100203B
:101A3000CC2F0020142D0020E41000202A130020B9
:101A40001C0F0020200F0020570E0020D82F002050
:101A5000143000207C1900207C110020A00E0020F2
:101A60000AF1010303EB830392F801A003EB830364
:101A700003F561739BB20AF1040A20F81A300432AC
:101A80007245A5D11CF0080F00F0C18095F88E3189
:101A9000062B00F2B680DFE803F004070E35507025
:101AA000700045F2F05201E042F6F822824B1A80B3
:101AB00010F0EAFDA4E042F6F8227F4B09011A80FB
:101AC0000A2391FBF3F10023A1F5B0617B4A42F8B0
:101AD00023100133122BF9D1794A7A494020116041
:101AE000794A13700CF07AF9002800F08A800123FB
:101AF0004FF0070B90F9000040218DE80808734A69
:101B0000734B78E042F6F8226B4B40201A80714A02
:101B10006B4B1A606C4B10221A700CF05FF90028A6
:101B20006FD001234FF0000A90F9000040218DE8AA
:101B30000804694A4FF4E1335DE042F6F8225E4B57
:101B400040201A80654A5E4B1A605F4B08221A706B
:101B50000CF044F9002854D001234FF0000C90F908
:101B6000000040218DE808105D4A4FF4E1330CF08D
:101B7000E8FA5C4BC3F8E0013FE042F6F8214E4A38
:101B8000062B118050494FF00C02DFF890E15648C7
:101B90000A7010D0554900230B708EF80030037086
:101BA000534B1B211970534B4FF4E13A1A70524BAF
:101BB00005221A700EE0002101704C488EF80010CA
:101BC00001704B49212008704A49DFF854A10A707E
:101BD000494A1370494A3A4B40201A600CF0FEF80B
:101BE00078B101234FF0000E90F900008DE8084015
:101BF0005346434A40210CF0A4FA003018BF01209C
:101C000028B9082005F0D0FE3E4A2D4B1A603368F3
:101C10002D4A13F4804F1FBF122111703A482849F2
:101C200018BF086042F20101194099B144F62060E2
:101C300021490880980441BF082111703348204988
:101C400048BF0860D90741BF0C21117030481C49BA
:101C500048BF086011781806A1F10401517040F1E5
:101C60009B802C4B1F484FF0000BDFF8B8A0C0F84A
:101C7000E4315946152200F5F47004938AF801B056
:101C8000CAF804B0CAF808B015F093FC049B224AC5
:101C9000053B5846136004920AF00FFED9F8003055
:101CA0000220CAF80C300CF099F8049A9646D8BB7A
:101CB000802005F079FE67E044080020B82E00205F
:101CC000A000002081310108B02D00202933010837
:101CD000A08601006D3101087D32010859310108EB
:101CE0003132010870010020D51D0020D41D0020D4
:101CF000F71D0020C72F0020F81D0020399A00088A
:101D0000519A0008E1310108B1310108D1310108CF
:101D1000C13101089413002064070020C82F00205F
:101D200090D00300440700209AF8013090F805C0D5
:101D3000C64A0C2101FB03214978614504D00133D7
:101D4000DBB2042BF4D900238AF80130DEF800302E
:101D50004FF00C0E1B7890F90000002B9AF8013020
:101D600018BF03210EFB032208BF01215378002274
:101D70000091019202210CF0E4F9B54B18600028A3
:101D800096D001200AF099FDD8F80000B14B00F57B
:101D9000C5721A600AF038FE33680DF1640813F456
:101DA000007F5AD0AC4ADFF804A3039B4FF0100B1E
:101DB000CAF800309369A94843F001039361039B7B
:101DC00010A91B888DF842B0ADF8403002238DF881
:101DD00043300CF0B8FEDAF80030A0485B8810A958
:101DE000ADF8403004238DF842300CF0ACFEDAF848
:101DF00000300120197A0CF091FEDAF80030984A90
:101E00005B684046536119938DF869B000234FF029
:101E1000010B8DF8683003938DF86AB011F090FBD8
:101E2000DAF80020039B527A11A88DF8442003228F
:101E30008DF845208DF846308DF847B011F062FBE3
:101E4000D9F80030874A3C3B136023684FF0FF32DB
:101E500043F010032360844B1A60844B844A854C02
:101E60001360854A8033136033684FF00009D9034B
:101E700084F8009040F1C3800EF00AFA40F22A3351
:101E8000DFF82CC24FF0010A1A4660464946CDF8E9
:101E900014C0049384F800A015F08BFB6E4A4FF039
:101EA000100B91696D4841F00801916118218DF87E
:101EB000431003218DF8421010A90392ADF840B0F1
:101EC00008F0DAF8039A6D48D1696D4C41F00201CF
:101ED000D1616C490968B1FBF0F12088013920F427
:101EE0005C7000FA0BF020FA0BF0208089B21D2004
:101EF000A0852185A4F814A0218C21F0010101FA0C
:101F00000BF121FA0BF12184218CB4F804E0208B31
:101F100021F0020120F0730000FA0BF001FA0BF13E
:101F200020FA0BF021FA0BF11FFA8EFE40F0600050
:101F300041EA0A01A4F804E02083A4F83490218443
:101F4000218B21F0080101FA0BF121FA0BF141F08C
:101F500008012183B4F844106FEA41416FEA51410E
:101F600089B2A4F84410516941EA0A015161464A14
:101F70001046039207F099FE404607F06BFE049B63
:101F8000039A42491C938023DDF814C01E934FF43A
:101F90008073104619911F9341464FF400532293CA
:101FA000CDF868C0CDF86CB0CDF87490CDF88090C5
:101FB000CDF88490CDF88C9007F059FEA389039A50
:101FC0009BB243F40073A381136811A843F002038A
:101FD00013608DF844B08DF845A08DF846908DF8CB
:101FE00047A011F08FFA2A4B1A682A4B43F8272092
:101FF0000137202FF7D10CF0B3FC0CF0B1FC3368A3
:102000005A0540F18D80244C244BD4F828950420A7
:10201000C3F800900BF0E2FE0421C4F82C050BF08D
:10202000B9FE1F4B84F830050820C3F800900BF070
:10203000D5FE1C4B082118600BF0ACFE1A4F84F83B
:102040003105002138462C2234E000BFF89B0108FE
:1020500084230020780F002000100240000C014073
:10206000000401403C07002008110020C813002094
:10207000C81E0020A90D0020C823002000366E01D4
:1020800000040040FC0000206C00024034040040CA
:10209000889B0108AA0D00207001002088190020EB
:1020A000E01900202C1A0020B01900204007002061
:1020B0006D03002015F07DFA8E237B704FF07C0BB2
:1020C000E0234FF07D0AFB7087F800B087F82BA063
:1020D000A84F2C220021384615F06BFA8A237B701A
:1020E0001020A023FB7087F800B087F82BA0C4F85D
:1020F00034950BF073FE1021C4F838050BF04AFE3E
:1021000084F83C052020C4F840950BF067FE2021A0
:10211000C4F844050BF03EFE84F848050FF0E0FDDE
:10212000954F00243B88322023F040031B041B0CF6
:102130003B803B884FF4805923F038031B041B0C71
:102140003B803B889BB243F040033B809F238DF84C
:1021500044308DF845408DF846408DF847400BF0EF
:1021600044FF8DF86540854C11AA0423C4F81490EF
:102170003846414603F049FAC4F810909DF86620AD
:102180009DF86530120242EA03429DF867301A4317
:102190007B4B9A427B4B17D008D87B498A420CD0A4
:1021A00001F51A4102318A4209D01CE077498A427E
:1021B00005D001318A4207D015E0202200E08022BC
:1021C0001A804FF4807202E04FF480721A805A80B5
:1021D0009A88198812029A604A43DA606C4A01218F
:1021E00082F8491504E000221A805A809A60DA6069
:1021F000DF6817B3FF0AB9464FF0000ABA4509DA9B
:102200000AEB07046410E002414610220CF0C8FDFE
:102210000F2807DC0AF062FD5D4A4FEAC923C2F8C5
:102220004C350AE0002358F82320013270D10133E5
:10223000042BF8D12746A146E0E73368554A13F44A
:10224000002318BF012313700BF0A8FE524B186037
:102250006B79052B02BF514B4FF4C8721A80504B5B
:102260004FF47A721A804F4BC8221A804E4A137864
:1022700043F0080313704D4A137823F002031370E0
:1022800040F60203326813406BB14949494B19606B
:10229000494B03211970494B01211970484900230A
:1022A0000B8048490B80930341BF474B04221A71AE
:1022B000DA7844BF42F00102DA70AB680122336081
:1022C000424B1A70424A137863F07F03137025B0B3
:1022D000BDE8F08F42F21073A2F8C431A2F8C63103
:1022E0003C4B0325C2F8C8313B4BC2F8CC313B4BC9
:1022F000C2F8D0313A4BC2F8D4313A4BC2F8D83197
:10230000FFF783B9012E7FF6BEA91E46FFF790B9ED
:1023100004F1010A4C468EE701200CF029FEFEF77D
:1023200041BD314B00221A7000B211F0C7FA2F499B
:1023300011F018FB1990B5F95A0111F0BFFA2B49A9
:1023400011F010FB1A90B5F95C0111F0B7FA2749AA
:1023500011F008FB26491B9019A805F03DFAFEF77D
:10236000ABBE012E7FF68FA9002689F80000FFF78B
:1023700067B900BFE519002000380040000C01409B
:1023800018BA200014000020152020001740EF008C
:1023900070010020DC2A0020340800202E0F0020CD
:1023A0005E3000205C30002098190020673000204B
:1023B0001C13002080190020E4190020F0000020E8
:1023C000181000201A10002088230020A80D0020DB
:1023D00038300020CD550008AD540008C555000820
:1023E0009D540008F94E00082C00002035FA8E3C60
:1023F000001E00209F492DE9F04F0A689E4C02F50F
:102400009C43203323609D4B89B01E780191C6B157
:102410009B4909688A4240F20381013E1E70FFE039
:10242000D9F80030072D98BF595D964B88BF2946D3
:102430001B6895489847032D0CD904EB4505A880E7
:102440000136914BF5B21A78DFF86092AA4219462C
:10245000E6D820E0D9F8002005F10E0302EB830353
:102460009988DA880028E8D04FF47A73401A5843E4
:10247000531A90FBF3F040F6C90300F57A709842C6
:1024800005DC40F2EE239842B8BF184601E040F662
:10249000CA0080B2D1E742F201087C4B1B6803EA14
:1024A0000808B8FA88F87A4B4FEA58181B68B8F150
:1024B000000F06D194F8292084F82820754A507816
:1024C000107094F828701FB1724A177887F00107CE
:1024D00094F82BB00326BBFBF6F60F2206EB46065C
:1024E00084F82A20C6EB0B06D9F8002091F800A04A
:1024F000DFF8C091F6B20025554559DA4FEA450C90
:102500001FB1654931F8150000E03846918ADFF8BF
:10251000A8E1814202D8D18A81421ED25EF825000C
:102520005549834203D25D4931F80C0019E0E8B205
:1025300003920293049110F06BFF032D029B039A08
:102540000FDC04994FF0010C91F82AE00CFA05FC1D
:102550002EEA0C0E81F82AE003E003F596714EF89E
:102560002510B8F1000F1CD194F8BC1029F8160002
:1025700031B9BBF1020F14D93F49012081F8BC00E9
:10258000B9F80210B9F800000844B9F8041008447A
:10259000434980B221F8150000B2032190FBF1F00D
:1025A00080B23E4909F1060921F815000135A3E77B
:1025B00094F82A203649A2F10F077A427A4184F82A
:1025C000D620384B6AB1384A1268560109D40A68D5
:1025D000D9689A60521AC82A1DD9012283F821208D
:1025E00019E02C4A0120507010700A689968DA606E
:1025F0005B68521A9A4282BF2A4B002283F821203C
:102600000025554507DAE8B210F002FF234B23F806
:1026100015000135F5E794F82B30013384F82B30A1
:102620001A4E3368DD0405D51F4B1B68D80701D44B
:102630000FF006FE019B1F681C4B1A68907A002859
:102640003CD01649137B013831F810001BB1C0F59E
:102650003B60083080B200B2A0F57A70B0F57A7FA6
:10266000A8BF4FF47A7020EAE07011F027F9104902
:1026700059E000BF443000202C0E0020D42F002051
:10268000D02F0020A0000020B02D00207C190020B9
:102690007C11002011000020300E0020143000209A
:1026A000EA0E0020D82F0020A8100020CC2F0020F8
:1026B00000007A44580E0020A00E00203368190450
:1026C0003AD5D4F8D810934B791A002934DB07F5A2
:1026D0009C412031C3F8D8108F494D798F4931F88A
:1026E0001550A9B2D57A91FBF5F593F8DC100131BC
:1026F00001F00F0283F8DC201A44034682F8DD5013
:10270000874A825C0130134410289BB2F8D11BB277
:1027100093FBF0F000B26428A8BF642020EAE070C8
:1027200011F0CCF87F4911F0D1F97F4911F01AF975
:1027300011F004FB7D4B188033687D4D13F4807FCE
:1027400000F00F817B4BDFF8F0919F4205D999F89B
:10275000022012B9012289F8022099F80220002AE9
:1027600000F0FF80744A95F8008092F82170C8F359
:1027700080087A1E57425741704A002F92461168CE
:1027800018BF4FF0000BC1F38063019308BF4FF0F7
:10279000030B99F82020052A00F2DD80DFE802F023
:1027A000034E537988A5B8F1000F3AD0D4F8F00061
:1027B000B4F8F4100BF0AFFB012809D16049614A6D
:1027C00009681268C988642000FB0122C9F810203A
:1027D000019B6BB15A4A126812794AB110F038FB6A
:1027E000032289F820204FF47A72C9F81C20D0E720
:1027F000002F40F0B080534AD9F8101010684E4AAC
:1028000088420AD9029210F023FB029A032182F82F
:10281000201040F6B831D161BBE7012182F82010C9
:10282000B7E7019B4FF4806013B105F0ADF801E00C
:1028300005F099F80022C9F810208CE0002F49D14A
:1028400010F006FBA5E727B1052289F8202001201A
:1028500000E03846B8F1000F0CD0D4F8F0204FF06B
:10286000020BD189384A118051809180344909681E
:102870004988D180334A1168D9F81420914202D88E
:10288000B8F1000F64D147F23052C9F81C2003227E
:1028900021E02A7842F002022A700FF0D1FC294A86
:1028A000D9F81C1012680A44C9F81820042212E052
:1028B000244A9FB11168D9F8182091424BD9234A74
:1028C00092781AB9DAF80020D30744D42A7822F093
:1028D00002022A70052289F820205AE71268D9F8E6
:1028E0001C100A44C9F8182035E01549154A096832
:1028F0001268C988642000FB01224FF48060C9F887
:102900001020002289F8202089F8032005F02BF8F8
:102910003FE700BF2C0E0020241E0020341E0020A4
:10292000090F00200000C84200C07F440C110020A5
:1029300067300020404B4C00D82F0020A81000200A
:10294000402E00207C1100201430002011000020B7
:1029500000287FF41EAFBBF1000F02D058460BF0E9
:1029600073FB8D4F07F5C370B7F84E110BF0D3FA18
:102970000197834668B910F05DFA884B0022C3F8CE
:1029800000B0C3F804B0C3F808B0854B1A605A60B1
:102990009A602B785F0736D53368D80633D5814BDC
:1029A0001B78D9062FD4804B9B789BB1019B93F861
:1029B000DE31BBF1000F15D17BB17C4B1A68D4F826
:1029C000F8309B1A002B08DA0FF03AFC784B83F8AA
:1029D000FCB018E0BBF1000F0DD110200BF034FB60
:1029E00001230EE03BB1714A4FF47A71126801FB8A
:1029F0000323C4F8F83094F8FC3023B10BF010FB3B
:102A0000002384F8FC30019B93F8DCA193F8DD11DE
:102A1000B3F896E1B3F898C100231846654A8008D8
:102A200032F9137001337745C4BF60F07F00C0B244
:102A30006745B8BF40F04000042B9146EED194F8B2
:102A4000FD305B4A834205D192F8FE30F92B04D861
:102A5000013300E0002382F8FE30534B84F8FD0080
:102A60009A789846544FE2B93B68DA0708D5BBF12B
:102A7000000F16D12B78DB0713D50FF031FA10E0D9
:102A80002B7858070DD54A4B93F828304BB14B4B58
:102A9000DB7833B911B10FF0D3FB02E0BBF1000FCB
:102AA000F9D094F8FE30424A142BDFF824B140F0FC
:102AB000AA8098F802301AF1000A18BF4FF0010AF4
:102AC0006BB392F8FD305F2B11D12B7803F0040328
:102AD00003F0FF0113B10FF0B3FB08E00B200391EB
:102AE00002920BF0B1FA029A039982F8FE10BAF141
:102AF000000F14D094F8FD307D2B10D12B7803F00B
:102B0000040303F0FF0213B10FF09AFB07E00B2060
:102B100002920BF099FA264B029A83F8FE202B784A
:102B200003F0040303F0FF01002B6CD194F8FD3097
:102B30001F4A572B15D1224B4FF47A721A803368F3
:102B4000190601D509F0B0FF1E4B1B685A0742BF9A
:102B50001D4A0A21118013F0080354D11B4A138027
:102B600051E03068400735D55A2B33D192F8FF3009
:102B70002BB1012382F8FF1082F8003143E092F874
:102B8000013183F0010382F801310BB10C2000E028
:102B90000D200BF059FA36E0A41100205C2500202E
:102BA0000426002098190020110000207C1100202C
:102BB0002C0E002014300020A8100020D82F002058
:102BC0005E300020941900205C3000209411002019
:102BD000E41000205D2B00F023855B2B00F02285A4
:102BE0005E2B00F02185562B01D105F095F998F860
:102BF0000230002B00F0E88494F8FD306F2B40F099
:102C0000DD840FF06DF933685B0736D594F8013138
:102C1000B54A93B12B7858070FD5019BB9F9061027
:102C2000B3F89631994208DD3B6813F0010302BF07
:102C30003221A2F8041182F801313B68D9030DD585
:102C400094F80621A84B2AB993F8FF2012B9322232
:102C5000A3F80421012384F806310EE094F8FF3034
:102C6000A14A53B12B7803F0040303F0FF0123B909
:102C7000012382F8FF1082F80031DBF80090002376
:102C80003B6009F17B0809F1CB0A98F8002098F81D
:102C9000013018F8010C9A420BD241460BF006F9AC
:102CA00038B118F8022C012303FA02F23B681343EF
:102CB0003B6008F10408D045E7D18C4B1B784BB141
:102CC0008B4BDFF844921A68984612F0020F40F0DE
:102CD000308328E309F1CA0709F589783A787B78C7
:102CE00017F8010C9A4225D239460BF0DFF808B3E9
:102CF00097F804C00C21BB7801FB0C417D4A013BD5
:102D000003EB43031344D1F80C2197F803909A4244
:102D100075480FD0C1F80C31002390F83821C1F864
:102D20001031012303FA0CF322EA030381F808911E
:102D300080F8383106374745D0D16F4BDFF8CCA14A
:102D4000D3F800806D4B4FF0000B1B68029394F892
:102D500028300393DAF80030002B00F0DB8293F880
:102D60000090B9F1000F00F0D582DAF80420029942
:102D70008A1A002A0CDB01F5FA72CAF8042094F8CA
:102D80003811012202FA0BF221EA020284F83821FA
:102D9000039A002A00F0BE821AF8042C59780432F3
:102DA000D2B2002940F07782554931F91210554AC4
:102DB000B2F8942102F1C800814201DD9F7814E04D
:102DC000C83A914202DA99784F420EE094F83821DD
:102DD000012303FA0BF322EA030384F83831029B40
:102DE00003F5FA73CAF8043094E294F8383143FAE0
:102DF0000BF3DA0700F18E82002FCCBF02200120F6
:102E00000BF044F909F1FF32374B132A00F27A82B2
:102E1000DFE812F0140023003200440061007E005D
:102E2000E3004801AD01E2011102780244005500BF
:102E30007E00E3004801B5001A017F0198F80010F8
:102E400040460F44FA2FA8BFFA2727EAE77788F809
:102E500000700BF011F801201EE098F801104046B8
:102E60000F44642FA8BF642727EAE77788F801702A
:102E70000BF002F802200FE098F8031040460F44D0
:102E8000642FA8BF642727EAE77788F80370D3F890
:102E90003C110AF0A9FF03203946C9E198F8051052
:102EA0000D2039446429A8BF642121EAE17188F822
:102EB00005100BF05FF8B9F10D0F00F0238298F8C0
:102EC00004100E2039446429A8BF642121EAE1716D
:102ED00088F80410ACE198F806100520394481F315
:102EE000080188F80610A3E12C0E002068300020AD
:102EF000A8100020F09F0108101100207C11002074
:102F000014300020A411002094190020380F002054
:102F1000D3F840311A78022A22D13846049310F0AF
:102F2000CDFCA94910F0D2FD049B596A059310F01D
:102F300011FC0021049010F0B3FE059B48B9049ADF
:102F4000A249104610F0CAFE049A059B10B19F4A90
:102F500000E000225A620F2011460AF0F7FF0AE053
:102F600099780F203944C829A8BFC82121EAE17106
:102F700099700AF0FFFFB9F10F0F00F0C381944B75
:102F8000D3F8409199F80030022B1AD1384610F04E
:102F900095FC8D4910F09AFDD9F8201010F0DAFB5D
:102FA0000021074610F07CFE30B93846874910F002
:102FB00095FE10B1854F00E00027C9F8207012205F
:102FC00059E199F8011012203944C829A8BFC82135
:102FD00021EAE17189F801102AE1D3F840311A7829
:102FE000022A22D13846049310F068FC774910F089
:102FF0006DFD049B196B059310F0ACFB0021049050
:1030000010F04EFE059B48B9049A7049104610F026
:1030100065FE049A059B10B16C4A00E000221A6319
:10302000102011460AF092FF0AE0197B1020394463
:10303000C829A8BFC82121EAE17119730AF09AFFD3
:10304000B9F1100F00F05E81614BD3F8409199F80F
:103050000030022B1AD1384610F030FC5B4910F0DA
:1030600035FDD9F82C1010F075FB0021074610F043
:1030700017FE30B93846554910F030FE10B1534FA5
:1030800000E00027C9F82C701320F4E099F80B1029
:1030900013203944C829A8BFC82121EAE17189F861
:1030A0000B10C5E0D3F840311A78022A22D13846F5
:1030B000049310F003FC474910F008FD049BD96B02
:1030C000059310F047FB0021049010F0E9FD059BEB
:1030D00048B9049A3D49104610F000FE049A059B39
:1030E00010B13A4A00E00022DA63112011460AF0DA
:1030F0002DFF0AE0997D11203944C829A8BFC821B5
:1031000021EAE17199750AF035FFB9F1110F00F06C
:10311000F9802F4BD3F8409199F80030022B1AD147
:10312000384610F0CBFB2B4910F0D0FCD9F8381002
:1031300010F010FB0021074610F0B2FD30B9384600
:10314000224910F0CBFD10B1204F00E00027C9F854
:10315000387014208FE099F8151014203944C829CC
:10316000A8BFC82121EAE17189F8151060E0D3F801
:10317000409199F80030022B1AD1384610F09EFB8E
:10318000114910F0A3FCD9F8281010F0E3FA00213F
:10319000074610F085FD30B938460C4910F09EFD09
:1031A00010B10A4F00E00027C9F82870092062E03A
:1031B00099F8031009203944C829A8BFC82121EA79
:1031C000E17189F8031033E0000020410000C8429B
:1031D0002C0E002000007A44D3F8409199F800307A
:1031E000022B1AD1384610F069FBBB4910F06EFC77
:1031F000D9F8341010F0AEFA0021074610F050FD57
:1032000030B93846B44910F069FD10B1B24F00E052
:103210000027C9F834700A202DE099F80D100A2013
:103220003944C829A8BFC82121EAE17189F80D10E5
:103230000AF0A0FE66E0D3F8409199F80030022B26
:103240001DD1384610F03AFBA44910F03FFCD9F8E4
:10325000401010F07FFA0021074610F021FD30B930
:1032600038469D4910F03AFD10B19B4F00E0002711
:10327000C9F840700B2039460AF068FE42E099F820
:1032800017100B203944C829A8BFC82121EAE171D1
:1032900089F81710CCE7012934D19878904B33F98D
:1032A0001230B3F5617F05DB40F633029342A8BFCD
:1032B000134601E04FF46173B9F10C0F22D14FF4C2
:1032C000966292FBF0F0A3F5617393FBF0F3854AED
:1032D000DFB21378BB4215D0042F34BF3B46022324
:1032E0001370019A09FB03237F4A03F2AE73136044
:1032F0000CF02BFB484639460AF03CFE781CC0B265
:103300000AF0C4FE94F83821012303FA0BF31343A7
:1033100084F838310BF1010BBBF1040F0AF10C0AF0
:103320007FF418ADCCE43368DB0511D56F4BDB7847
:1033300073B1D9F800309F070AD56D4B1B8813F085
:1033400001070AD10FF076FD012004F01DFB04E017
:10335000012004F008FB012300E00023D8F800203E
:1033600050070DD563B1012004F0FDFA604B1B88B6
:10337000990708D40FF05EFD022004F005FB02E07F
:10338000022004F0F0FAD9F8003013F00A0F29D027
:10339000D8F80030DA060BD5554B1B885B070AD4EA
:1033A000042004F0F1FA534B1B88A4F8443102E0E6
:1033B000042004F0D8FAD8F800309F0607D54C4B0B
:1033C0001B88580606D4402004F0DEFA02E04020B4
:1033D00004F0C9FAD8F80030590642BF454B1B88A3
:1033E000A4F84631D9F800309A0609D4D8F800304C
:1033F0001B0540F1B2804FF4807004F0C5FAB0E0D4
:103400003D4BDFF8EC901B7813F0020F53D03B4B91
:103410001B78042B4FD9D8F8003013F4007A0FD062
:10342000B9F80030DF063AD4102004F0ADFA2020BD
:1034300004F099FA3248011D09F0A0FA02232AE0AB
:10344000B9F8007007F01007BFB22FB1102004F0D8
:103450008AFA012784F848A1D8F80030580512D517
:10346000D4F84C3127495A89B1F90030002BB8BF44
:103470005B42934207DAB1F90230002BB8BF5B42DE
:103480009342C0F20A81B9F80030990608D520208D
:1034900004F069FA002384F84831012700E000278E
:1034A00094F8503193BB0E200AF0CEFD164B01224A
:1034B00083F850212AE0B9F8003003F03003002BE4
:1034C00094D0102004F04FFA202004F04CFA00238E
:1034D00084F848311DE000BF0000C84200007A4473
:1034E00014300020B029002010110020D82F002017
:1034F0005C1A002094110020981900209E190020C9
:10350000181100209C1100202C0E0020002F3FF4E9
:103510006DAF002214466D4B002023F814006C4B55
:10352000191D03F10A0721F814000021D151174495
:103530007860B96023F8140003F132075A33D1518F
:10354000D150174413447860B960586099601432C0
:10355000002C7FF44BAF0124DDE74FF4807004F0C2
:1035600002FA5C4B5A791C46082A01D00E2A02D175
:10357000402004F0F8F933685A0540F1A48094F82B
:1035800014321BB92B7813F0040F03E0D8F8003085
:1035900013F4002F0BD0504B00221A703C200FF078
:1035A000BBF8002800F08F800DF020FFF6E70EF04A
:1035B00097FB09B0BDE8F04F0EF0DBBFBAF1000F8A
:1035C00002D07E2B3FF41DAB94F8FD30972B06D133
:1035D000424B4FF4C872A3F80221FFF714BBA72B8C
:1035E00006D13F4A137843F004031370FFF70BBB77
:1035F0000022BB2B079201D1022303E0B72B04D199
:103600004FF6FE73ADF81E301FE0BE2B01D1022332
:1036100003E0BD2B30D14FF6FE73ADF81C3014E043
:10362000012002E0022000E003205FFA80F8019A06
:1036300008F1FF3382F8AC3704F0E8F904F08CFAB3
:1036400040460AF023FDFFF7DEBADBF80030BDF894
:103650001C10B3F858200A44A3F85820BDF81E10D7
:10366000B3F85A200A44A3F85A2004F055FC00236A
:1036700084F8FE30FFF7C7BA792B04D1194AD37802
:1036800023F0010306E07A2B7FF4BDAA154AD37814
:1036900043F00103D370FFF7B6BAB9F800309B06C8
:1036A0003FF5FEAE202004F06FF90F4B0F481A686B
:1036B0005B68011D4360026009F060F9074B012758
:1036C00083F84871ECE609B0BDE8F08F6030002067
:1036D0007E0F0020A4110020B52D00202C0E00200C
:1036E0009819002088230020A01900202011002014
:1036F000B54B2DE9F04FB3F90610B44B8FB01F68EE
:1037000000937A8991420EDBB1F5FA6FFC79BFBF65
:103710008B1A6343A2F5FA6493FBF4F4ACBFC4F1D3
:103720006404643400E06424A94BAA4AB3F894B159
:1037300093F95E3112689BB2019215460293002202
:1037400040F2E630A04B4FEA420C33F912E0CBEBEB
:103750000E0303F2F316864203D8002BB8BF5B4278
:1037600001E04FF4FA73022A2ED0019E96F81161FF
:103770001EB1B342CCBF9B1B0023642093FBF0F827
:10378000954E6FF0630A36F818900AFB083A08F174
:10379000010836F918600FFA89F8C8EB060606FB2F
:1037A0000AF696FBF0F68D484E4420F80C60BE18E1
:1037B0003679642073438A4E93FBF6F364339BB2ED
:1037C000634393FBF0F02CE0019890F812611EB176
:1037D000B342CCBF9B1B0023642093FBF0F0DFF8C7
:1037E0002C926FF0630808FB003A39F91060013041
:1037F00039F91000002BA0EB060000FB0AFA9AFB37
:10380000F8FA0298C6EB0A0A0AFB00FA7348B8BF36
:103810005B42A0F804A0B8794343714893FBF0F0F1
:1038200064306B784FF06408434393FBF8F36D4EBC
:10383000022AB354EB7A6C4E00FB03F393FBF8F3CC
:10384000B3546B7D654E00FB03F090FBF8F0674BC3
:103850009854674B0ED1DE4583F802800DDB5C4C3B
:10386000B4F89621914214DBB1F5FA6FA8BF4FF47A
:10387000FA610FE0DE459C5404DA36F80C305B4206
:1038800026F80C300132032A05F101057FF458AF08
:10389000E5E71146891A4FF47A735943C2F5FA6283
:1038A000B1FBF2F1642391FBF3F2DFF874E16FF006
:1038B00063073EF8120007FB021101323EF91220A5
:1038C00007B2D21B514391FBF3F30344F380494BFE
:1038D000424D1B8858063BD5474A484B10881B88E9
:1038E000181A00B20FF0EAFF454910F03BF80746FE
:1038F00003F068FF8046384603F0F1FE0746B5F94D
:1039000002000FF0DBFF8146B5F900000FF0D6FF93
:103910004146824610F026F839468346484610F064
:1039200021F8014658460FF013FF10F0E1F9414627
:103930002880484610F016F839468046504610F068
:1039400011F8014640460FF005FF10F0D1F96880EC
:103950002C4D2B68990740F19E8045F207212A4B98
:103960002A4F1A687B69D31A8B4240F394807A619C
:1039700006F0E6FC264BDFF8AC901A789846032A4E
:10398000B9F8003050D10A2B58D90023282088F8E4
:1039900000300AF02AFB06F0D3FC1E4B188806F014
:1039A000B9FC1D4B1A68D37890FBF3F0013008285E
:1039B0001A4BA8BF08201870537980B243433B8349
:1039C00013795843788339E0143000201011002017
:1039D000A4110020E4100020422600209C110020A9
:1039E0000CFEFFFFCC2500200E100020E425002057
:1039F0004C2500205C1A0020720F0020941100203A
:103A000035FA8E3C7C190020443000200010002044
:103A1000E41900203C1E002080190020F000002046
:103A20002A260020841900200A2B07D803239A4A4B
:103A300088F80030002313703B837B8398F80030B4
:103A4000964A012B0CD002D3022B1BD023E03A8BD9
:103A5000B9F800309A421EDD012388F800300FE0EB
:103A6000B9F800107B8B8B4202DD022313700FE04C
:103A70008B4B1B8B0133994202DD002313700AE04C
:103A8000082006E07B8BB9F8002001339A42E3DC82
:103A900007200AF0D9FA2D682A0573D5814B804F8B
:103AA0001B68FA69C2EB030845F20722904569DDFD
:103AB000FB61B6F90630B4F84E11A3F57A7B7A4B68
:103AC0007A4ED3F8009099F80A30012B03D042D3F4
:103AD000022B20D041E0764B396A5A7B754B082087
:103AE00033F8122091FBF0F392B2C91A8B183B62A3
:103AF00093FBF0F3BA8440F6E4429BB25343B9F827
:103B00000820C2EB13334FF47A725343B9F90620FD
:103B100093FBF2F320E0684BB9F808A01B78C6F8D5
:103B200000A05B0719D565480AF0F5F920B915F032
:103B3000100F18BF4FF0000B0BFB0BF1322391FB62
:103B4000F3F3B9F906205B445A434FF47A7392FBBE
:103B5000F3F3534400E0002333603368D7E90A01EC
:103B600003FB08F84FF47A7398FBF3F810EB0800A6
:103B700041EBE8710023C7E90A01514A10F0FEF851
:103B8000504B1860504E3368DF0427D5280622D5E5
:103B90004E4B1B7899071ED54D4B187804281AD91F
:103BA00000224C4B0521D718951C4FF00A0E122A03
:103BB000D154E9B287F801E004D0B0EB510F2A46A6
:103BC000EFD800E014215A18322002F8010CFF222D
:103BD0005A540F2000E00A200AF036FA3E4D2A68B7
:103BE000002A51D03D4B3E4F1868396898468142B3
:103BF0004AD83C4BDFF8F89019785268E1B94FF099
:103C0000010A83F800A0B9F80030D35C23B3504612
:103C10000AF000FA344B83F800A00FF04FFCB9F81B
:103C20000030CBB92B681B78053B534514D80AF0FC
:103C3000B5F92E4B18600FE04FF0000A83F800A092
:103C4000B9F80030D35C3BB150460AF0E3F9264B9B
:103C500083F800A00FF032FC2B68B9F800205B68F5
:103C600023499B5CFE2B02D100230B800CE0FF2B31
:103C700002D10AF0D5F907E0D8F800000A2505FBC3
:103C8000030301323B600A800B4D2B785A0733D572
:103C9000184B08225A6166E0F0000020E419002069
:103CA0000010002044300020801900208C190020D2
:103CB000241E0020341E0020673000202A1300201C
:103CC000407E050090190020A810002098190020BF
:103CD0009E190020DC290020602600207C11002095
:103CE0005826002054260020FC2F0020942C002071
:103CF0005C260020000C01403268D7075CBF43F00F
:103D000001032B709A4B9B4A1B781E075EBF2B78D2
:103D100023F001032B70984B1B6813F0040F02D0A3
:103D20009649098851B99649098809B1980705D477
:103D3000944B1B88003318BF012333B10223137047
:103D40002B7823F001032B7004E02978C90758BFB2
:103D5000022313700AF022F98B4B1B68C01A00284B
:103D600001DB0FF0ABFB0DF0BBFF884B1E7801931E
:103D7000002E00F0B280864E3368002B00F0D08613
:103D800030680AF0D0FA002800F0CA86804B814CD7
:103D900018680AF0C5FA092801D03F2850D14FF021
:103DA00000094F46D4F800807B4DB8F1000F05D0D4
:103DB0007A482968424613F049FC10B9A94607B968
:103DC0002F46774B10359D42EFD3C7B1D7F800E0AF
:103DD000D9F800C023681EF803501CF80300A8425D
:103DE0000DD15A1C6D4938B92D2B05D8694D2A6063
:103DF0002025CD54885402E0CD542260EAE72368A0
:103E00000BB14F4511D067480DF0E6FB4F4507D881
:103E100057F8100B0DF0E0FB09200DF0D5FBF5E78E
:103E200061480DF0D9FB4FF0000823689845A7D2F0
:103E30005A4B13F808000DF0C7FB08F10108F4E72E
:103E40002368002B40F05086042840F088865348B1
:103E500007F084FD00F064BED8F80000DFF85CA134
:103E60000AF061FA30B3DAF800000AF059FADBF828
:103E70000030024693F8481000293FD1242840F032
:103E8000A180012283F84820DBF80030DFF828A168
:103E900093F84820062ADFD193F8490001F0FAFC94
:103EA0008346002800F0B9800DF0EEFA3B6800224E
:103EB00083F848203D4B93F8353053B159F806004C
:103EC00007F004F80AF0E6FB03F076FD384A394BB8
:103ED000DA604C36982E00F02386DFF8E49006EB8B
:103EE000090393F84A20012AF3D1334F56F80920E9
:103EF0003B60324BBB461A609846ADE7012904D1BE
:103F00004D2814BF00220222BCE7022904D13C281C
:103F100014BF00220322B5E703290CD140284FF03B
:103F2000000102D983F84810AEE758711971D971B0
:103F300098710422A6E7042906D1997983F84900EB
:103F40004A409A7105229DE705299DD15879197932
:103F50008842987906D950409871481C18710B44D2
:103F60001A7291E790420CBF062200228AE700BF36
:103F700098190020FC2F0020941900205C300020AC
:103F80002E0F00205E30002000300020683000201E
:103F9000CC290020C423002044A70108942300203A
:103FA00024A90108CCC20108D1C2010800100020D8
:103FB0000400FA0500ED00E03C1A0020401A002041
:103FC000142D00202B78BF4958073FF55DAF232AF9
:103FD000DAF8003014D10292019A01201070BA4828
:103FE00003910360B9480363B9480DF0F5FAB94885
:103FF0000DF0F2FA0399029A0B7843F002030B706A
:10400000B54B1B681B78934201BFB44AB44B1A608E
:10401000B44A04BFB44BDA6036E7DAF8002092F80D
:1040200049304A2B00F049815BD8332B00F048849B
:1040300021D8292B00F0E28309D8252B00F0B98381
:10404000272B00F0BD83232B40F08585E3E12D2B4A
:1040500000F0E58307D82B2B40F07D850DF0E6F9C5
:10406000607100F03CBD2F2B00F09784312B00F0E5
:10407000A98400F070BD3E2B00F015811DD8372BB0
:1040800000F0528404D8352B00F0FE8100F063BDAF
:10409000392B00F0A2833C2B40F05D85DFF84C8289
:1040A000D8F800A00DF0C2F98AF80000D8F8003066
:1040B00018780AF0DDFB00F012BD432B00F01184EC
:1040C00005D8412B40F047854FF00008FDE3442B15
:1040D00000F0C484482B40F03E8508F04DFE00F00F
:1040E000FEBCD02B00F0DE8268D8CA2B00F006811F
:1040F0001CD84E2B00F0B68310D84C2B40F02B85EB
:104100000DF094F984F8D4010DF090F984F8D501FC
:104110000DF096F9A4F8D60100F0E1BCC82B00F030
:104120009180C92B00F0DF8200F015BDCD2B00F08F
:10413000C48204D8CC2B00F0CF8100F00CBDCE2B74
:1041400000F0C482CF2B40F006850DF079F96FF4B2
:10415000AF6283189BB2C62B98BFA4F894010DF0F0
:104160006FF9A4F840010DF06BF9A4F842010DF0CD
:1041700067F9A4F844010DF063F9A4F8D6010DF035
:1041800055F984F8EB010DF051F90DF04FF984F871
:10419000EC010DF04BF984F883010DF047F984F838
:1041A00090010DF043F9514BD3F800800DF048F920
:1041B00000EB80004000A8F856000EE3D62B00F07C
:1041C000DE810AD8D22B27D0C0F0B482D32B33D0D3
:1041D000D42B00F0E08100F0BEBCF22B00F0238273
:1041E00012D8EF2B40F0B784DFF80081D8F800A098
:1041F0000DF026F9AAF85A00D8F800800DF020F941
:10420000A8F8580000F06BBCF32B00F02C84FA2BBC
:1042100000F0658200F09FBC2B78590700F15F84A5
:104220000DF004F9022884F8AC0740F24182304BCB
:10423000002283F8AC273BE20DF002F92D4B1880E9
:1042400000F04DBC92F805804FEA5808B8F1120F03
:1042500003D90EF05DFA00F042BC4FF0000AC245EF
:1042600007D20DF0EDF805AB23F81A000AF1010AA8
:10427000F5E742460023434507DA05A931F8130064
:104280001D4921F813000133F5E7122A05D01A4B16
:10429000002123F812100132F7E70C4B012283F8BA
:1042A000342000F01CBC0DF0C1F884F8DE010DF0E4
:1042B000BDF884F8DD0100F012BC0DF0C1F8A0815A
:1042C00000F00DBC67300020CC2900200010002039
:1042D00001C30108D1C20108B82D0020EFBEADDE38
:1042E000F04F00200400FA0500ED00E0E41000208B
:1042F000A4110020700F0020002F0020DE4B80460C
:104300001A689A461278022A6AD1DAF8003008F15F
:10431000080B02930DF08AF80FF0CCFAD7490FF092
:10432000D5FB029B43F82B00DAF800B00DF07EF8C5
:1043300008F10A030BEB830B0FF0BCFAD0490FF026
:10434000C5FBDAF80030CBF8040002930DF06EF8EC
:104350000FF0B0FACB490FF0B9FB08F10E0B029B3E
:1043600008F10108B8F1030F43F82B00CDD1B8F1E3
:10437000070FDAF800B01AD10DF058F80FF09AFADA
:10438000BE490FF0A3FBCBF84400DAF800B00DF003
:104390004DF80FF08FFAB9490FF098FBCBF84800B1
:1043A000DAF800B00DF042F88BF84C0012E00DF096
:1043B0003DF8C3448BF80100DAF800B00DF036F890
:1043C000C3448BF80B00DAF800B00DF02FF8C344AB
:1043D0008BF8150008F10108B8F10A0FC7D17EE388
:1043E000DAF800B00DF022F8C3448BF80100DAF8D7
:1043F00000B00DF01BF8C3448BF80B00DAF800B0E6
:104400000DF014F8C34408F10108B8F10A0F8BF855
:104410001500E5D163E30DF009F8132883463FF654
:1044200018AFDFF854A2DAF800800CF0FFFF002389
:1044300095490C2202FB0312117A814220D1137894
:1044400008EB8B0888F879300CF0F0FF88F87A00D8
:104450000CF0ECFF88F87B000CF0E8FF8B4A8C4BEB
:1044600088F87C001A60DAF800008A4B0021186096
:10447000793009F03FFD884B80F0010018702EE381
:1044800001331C2BD4D1E4E60CF0D0FF0B2882467C
:104490003FF6DFAE784BD3F800800CF0C7FF03285F
:1044A0003FF6D7AE062303FB0A8888F8CE000CF04F
:1044B000BDFF88F8C9000CF0B9FF88F8CA000CF0FD
:1044C000B5FF88F8CB000CF0B1FF88F8CC000CF0F9
:1044D000ADFF88F8CD0002E35379092B7FF6B9AE22
:1044E000009BD3F800800CF0A1FF009B88F800002F
:1044F000D3F800800CF09AFF88F801000CF096FFCA
:10450000009B64281B68A8BF642018710CF08EFF04
:10451000009B64281B68A8BF642058710CF086FFBC
:10452000009BFF281B68A8BFFF2098710CF07EFF3E
:10453000009B6428D3F8008028BF642088F8070017
:104540000CF074FF009B88F80200D3F800800CF098
:104550006DFF009B88F80300D3F800800CF070FF1B
:104560003B68A8F80A005B790A2B40F2B8824B4BF3
:10457000D3F800800CF05AFF88F80800AFE28046BC
:104580000CF05EFF464B23F8180008F10108B8F163
:10459000080FF5D1A3E253790F2B7FF45AAE0CF03C
:1045A00045FF072880463FF654AEDFF8CCA0DAF886
:1045B00000B00CF045FF0E2303FB08F8C344ABF832
:1045C0001901DAF800B00CF03BFFC344ABF81B0153
:1045D000DAF800B00CF034FFC344ABF81D01DAF890
:1045E00000B00CF023FFC3448BF81F01DAF800B0D1
:1045F0000CF01CFFC3448BF82001DAF800B00CF07B
:1046000015FFC3448BF82101DAF800B00CF00EFF5F
:10461000C3448BF82201DAF800A00CF01BFFD04451
:10462000C8F823015BE20CF001FF0F2880463FF63B
:1046300010AE0CF0FBFEC8EBC808A04488F8D00010
:104640000CF0F4FE88F8D1000CF0F0FE88F8D200EF
:104650000CF0ECFE88F8D3000CF0E8FE88F8D400EB
:104660000CF0E4FE88F8D5000CF0E0FE88F8D600E7
:104670000AF050F833E200BFE410002000002041AF
:104680000000C84200007A445CA00108E412002047
:10469000680F00206C0F0020130000201011002074
:1046A000B22900202B785B0700F119820BF092F9F8
:1046B00003F0ACF903F050FA11E22B78580700F13F
:1046C0000E82DA4B4FF4C8721A8008E22B78590731
:1046D00000F10582D64A137843F0040328E02B78D2
:1046E0005A07E5D537E20CF0A1FED14B1A7810B18C
:1046F00042F0020201E022F002021A700CF096FE73
:10470000CC4BDFF8508318700CF0A4FEC8F8000002
:104710000CF0A0FEC8F804000CF092FEC64B188006
:104720000CF08EFEC54BC64A1880137843F0020386
:104730001370D4E10CF07AFE02900CF08BFE8346ED
:104740000CF088FE82460CF085FE80460CF078FE68
:104750000CF076FE0CF06AFE029BA3B9B94B102058
:10476000C3F800B0C3F804A003F0FDF8B04A137812
:1047700043F001031370B8F1000F00F0B081B24BA9
:10478000C3F80080ABE1102B40F0A981AF4BC3F818
:1047900000B0C3F804A0B8F1000F02D0AA4BC3F8D0
:1047A0000080AA48AA4B0222011D1A7008F0E6F800
:1047B00095E1A0600CF04EFEA3681843A0608EE166
:1047C0000CF03EFEA4F858010CF03AFEA4F85A0191
:1047D0000CF036FEA4F85C0181E10CF027FE84F8B1
:1047E00078010CF023FE84F87C010CF01FFE84F8A5
:1047F0007B010CF01BFE84F87D0170E10CF020FEC3
:10480000A4F87E010CF01CFEA4F880010CF00EFE52
:1048100084F882010CF014FEA4F884015FE10CF02E
:1048200005FE84F88E010CF00BFEA4F898010CF044
:1048300007FEA4F894010CF003FEA4F896010CF016
:10484000F5FDDAF8003084F88F015B79082B40F22F
:1048500046810CF0F5FDA4F89A010CF0F1FDA4F8E6
:104860009C013CE192F805800323B8FBF3F8B8F112
:10487000120F3FF6EEACDFF8E0A14FF0000BC3459E
:1048800080F02D810CF0D2FD8AF89E010CF0D8FD4D
:1048900040F2ED23984205DD40F6CA039842A8BFD6
:1048A000184601E040F2EE20A0F2EE20192390FB22
:1048B000F3F00BF1010B8AF89F010AF1020ADEE71F
:1048C0000CF0B4FD84F8900109E10CF0AFFD04EBAD
:1048D000080308F10108B8F1080F83F88601F4D144
:1048E000FDE00CF0A3FDC4F808B060710CF0B2FD5F
:1048F000A3681843A0600CF099FD84F88E010CF0B9
:104900009FFDA4F858010CF09BFDA4F85A010CF08F
:1049100097FDA4F85C010CF093FDA4F87E010CF067
:104920008FFDA4F88001DAE053794FF0070AB3FB5A
:10493000FAF2C2EBC2029A1A12F0FF0F7FF489ACAE
:10494000B3FBFAFA0AF1FF3A5FFA8AFABAF1FF0FFB
:1049500000F0C5800CF06AFD5FFA80FB4FFA8BF027
:1049600009F004FA804600283FF473AC80F800B0E8
:104970000CF066FDA8F802000CF058FD88F8040061
:104980000CF054FD88F805000CF050FD88F8070085
:104990000CF04CFD88F80600D4E7DFF8BC8008F185
:1049A000400A0CF04DFDA8F8A4020CF03FFD88F879
:1049B000A6020CF03BFD08F1040888F8A302D045DC
:1049C000EFD18CE00CF032FD1F2880463FF641AC61
:1049D0003B685B79082B7FF43CAC0CF031FD08F1AF
:1049E000880804EB880800F03F00A8F806000CF0E7
:1049F00027FDB8F80630800100F4FE501843A8F8EF
:104A000006000CF013FD000188F804000CF00EFD08
:104A100098F8043000F00F00184388F804000CF0F8
:104A200005FD88F805000BF033FC58E02E0F002040
:104A3000981900209E1900209C1900209A19002026
:104A4000161100201811002028110020201100202C
:104A5000740F0020A0190020A4110020734B012224
:104A600083F835203BE00CF0E1FCFF28824622D1A0
:104A700000238DF813309DF81330052B14D89DF8C2
:104A800013006B4A9DF81330012102EBC3035B68EE
:104A900052F83000994089B2482206F081F99DF819
:104AA00013300133DBB2E4E762484FF400410422E3
:104AB00006F076F913E005283FF6CBAB00200CF0AA
:104AC00007FD0CF0E1FCD8F8000009F023FC18B950
:104AD000322009F08AFAF6E7504606F06FF9002016
:104AE0000CF0F6FCFFF7E0B90C283AD00A283CD1CC
:104AF000514D52480CF070FD2846232112F08FFDD5
:104B000008B1401B20602368002B31D14A480021A6
:104B10003022236012F04DFD019B1B78002B5AD1EF
:104B2000474B1B689B060FD5464B40491B688A6B59
:104B30009A1A002A08DB444A1278042A82BF03F535
:104B4000123303F5F8738B63404B9B68002B69D0DD
:104B50003F48984766E00DF0DBFDFFF7A5B90C284C
:104B600047D13C480CF038FD35E00D2835D1BFE782
:104B70005A1EA95C202901D11346C5E72E4A0021FF
:104B80002360D154344B354DD3F80090D5F800A0B4
:104B9000DFF8A480504612F050FD074651463A46D1
:104BA000404612F053FD2E4A28B918F807304B44FE
:104BB0005B785B0703D010359542E7D306E095425A
:104BC00004D2781CEB684044984702E025480CF07A
:104BD00003FD00239AE7244807E07F280DD1164AF9
:104BE000013B002121482360D1540CF0F5FCFFF774
:104BF000C7B87F2804D1FFF7C3B82F2B3FF6C0A852
:104C0000A0F12002D2B25E2A3FF6BAA813B920283A
:104C10003FF4B6A85A1C2260074AD0540CF0D4FCCA
:104C2000FFF7AEB80FB0BDE8F08F00BF0010002056
:104C300098C60108000801409423002010D2010802
:104C400094190020443000209E1900200C2E0020D2
:104C50003C100020D6C201080001002044A7010832
:104C600024A90108E1C20108D1C20108FDC201085E
:104C70009148F0B50368914A9C8AA4B2E1B211F060
:104C8000010F2ED0198821F400610904090C198044
:104C9000198889B241F4806119800021117051781E
:104CA00099B1917811B9D178FF290ED10121917074
:104CB0001179022901BF198889B241F40061198074
:104CC000517941F001011982E1E0517901F0FE01D1
:104CD0001982D378FF2B00F0DA80784BFF2119700E
:104CE000D5E08E073AD5BFF35F8F1479E4B2012C7B
:104CF00013D1517889B1917879B1198821F4806103
:104D00000904090C1980BFF35F8F198B19889471FE
:104D100089B241F4007119801BE0198BBFF35F8FDA
:104D200014796649022C0AD14C7844B1897831B1A2
:104D3000198821F480610904090C1980A1E0147913
:104D40005E49032C05D14C781CB18978002940F0CC
:104D50009880998889B241F4806197E04D0756D5D3
:104D6000012191715178002937D09178002934D0F0
:104D700011791C88022911781DD924F48064240437
:104D8000240C1C801E8A9568CCB2F6B249B26E54CF
:104D9000198889B241F4007119800168A31C13704D
:104DA0000B8A0134DBB264B22B558B889BB243F47F
:104DB00080638B8026E0A4B244F400741C801D8ABA
:104DC0009668CCB2EDB249B275541B8A611C49B2E7
:104DD000DBB203347354147014E09178374C09B982
:104DE000217B41B1198889B241F40071198013788F
:104DF0000133137006E0198889B241F4807119807B
:104E00000123A37001680B88DB05FCD43FE001F0AF
:104E1000400101F0FF05E1B114781F8A9668E5B200
:104E2000691C64B2FFB23755C9B21679117049B224
:104E3000CC1CA64201BF9C8824F480642404240C6A
:104E400008BF9C8013798B4221D11C4B02351D7009
:104E50001DE027061BD511784CB2661C0AD01569D7
:104E600001312C5DC9B21C821479117049B28C4297
:104E70000DD106E0D17815701982517809B91179F0
:104E800029B9998821F480610904090C9980137962
:104E900092F9004001339C4208490CD100238B70E9
:104EA0008B7933B101688B8823F440731B041B0C8E
:104EB0008B8000231375F0BD0C28002040100020CB
:104EC0000A4B984205D10A4AD38A01339BB2D38256
:104ED00008E0084B984201BF054A138B01339BB28F
:104EE00008BF13834FF0FF30704700BF0030014010
:104EF00040100020003800406B4B6C4A2DE9F04F09
:104F00005E89D4694FEA062AB4EB0A0A9C884FF0FE
:104F100000054FEA04481C894FF0000BA4FB0A6708
:104F200065EB0B0B04FB0B77F40944EA476418EBC1
:104F300004065C884FF000094FEAE7154FEAC438D1
:104F4000DC8849EB050787B0CDE90467A4FB0A6755
:104F500004FB0B77340A44EA076418EB04064FEAB3
:104F600027259C894FF0000949EB0507CDE900672B
:104F7000AAFB046704FB0B77F40D44EA472414F5FD
:104F8000FA664FEAE75545F10007B6F5FA6F77F193
:104F90000003CDE90267964666DADDE90489A4FBE1
:104FA000046704FB05F34FF0050C07EB4307A6FB72
:104FB0000C230CFB07335F104FEA3206B8EB0608F0
:104FC0004FEA920646EA837669EB07099F10DDE90E
:104FD0000023921B63EB0703CDE90023DDE90267A1
:104FE000334A4FF0FF33964277EB0303CDE9048950
:104FF00027DA40F6AC520023A4185D4104FB05F308
:10500000A4FB04456FF0060205EB4305664202FB74
:105010000566A4FB0223334418EB020649EB0307A1
:10502000CDE904670B26A4FB062306FB0533DDE967
:1050300000455B104FEA3202A41A65EB0305CDE987
:105040000045DDE902450AFB0BF3AAFB0AAB0BEBBB
:10505000430B4FEADA7242EA4B02A41A4FEAEB73AF
:1050600065EB0305CDE90245DEF82040009B019D7C
:10507000A4FB032304FB05334FEA525848EAC32834
:105080004FEA6359DDE90423B8EB020269EB03033D
:105090009946D30B43EA494300B1036009B1029B2F
:1050A0000B6007B0BDE8F08FFC020020401000202C
:1050B00024FAFFFF2DE9F041324C334D6289AB8C6D
:1050C000B4F904809A1A2389B4F902E05A43B4F976
:1050D0001230D613B4F91420DB02324493FBF2F2FF
:1050E00032440A26E2615643A2F57A6202FB02F3D9
:1050F000B4F90EC002FB0EFE02FB08F2B4F90C80FC
:105100001B130CFB03FC03FB08F31B1403EB6232C1
:105110000232E388921002F5004253434CF25032BF
:10512000B4F920704FEAEE2EB4F900400EEBEC2CEF
:105130000CEB8404BC40AD6A0234A5EBA4043A41F4
:1051400062434FEAD3384EBFB2FBF8F35400B4FBCE
:10515000F8F340F6DE3448BF5B001A125243624354
:105160000A4C08365C43241404EB224202F6CF6258
:10517000361103EB221300B1036001B10E60BDE8EC
:10518000F08100BF100300204010002043E3FFFF28
:1051900037B5104B04465D68187806216A46A84763
:1051A000A8B19DF800209DF80130012043EA0223B8
:1051B00023809DF802209DF8033043EA0223638098
:1051C0009DF804209DF8053043EA0223A38003B034
:1051D00030BD00BFEC02002013B5104B04465B68E5
:1051E0003B2006216A469847A8B19DF800209DF80B
:1051F0000130012043EA022323809DF802209DF81C
:10520000033043EA022363809DF804209DF80530B3
:1052100043EA0223A38002B010BD00BFEC020020CD
:1052200010B5224C2368998A89B211F4706F1EBFA1
:105230001F4A012082F82C0011F4E06F2BD01A8B4A
:105240009A88890522F480624FEA02424FEA1242AC
:105250009A8020D41A8892051DD41A88D0050FD5BB
:105260001A88D105FCD41A8892B242F400721A80CE
:105270001A889205FCD40F4B187809F079FE0AE0E1
:105280001A8892B242F400721A809A8822F440720C
:105290001204120C9A802268938A23F470631B0410
:1052A0001B0C9382024B00221A7510BD0C280020A3
:1052B0004010002010280020054A08B5138801334B
:1052C0009BB21380034B187809F052FE002008BDF2
:1052D000A610002010280020F0B52B4D85B095F8C1
:1052E0002D30002B4DD1294C2368002B49D01A6852
:1052F000274E12B1B1690A43B2619A889868ADF835
:10530000002002228DF80320694604228DF8022035
:1053100009F019FCB36943F00103B3612368197DF7
:10532000187B09F0FBFB23685A7D1A4B596819B1A9
:10533000002008F0C3FE02E017491A705960236884
:10534000164A1B6901265361029308230DEB0300E3
:1053500000278DF80D308DF80C708DF80E600EF072
:10536000EFF8236801A85B7D8DF806708DF8043096
:1053700003238DF805308DF807600EF0C3F885F82B
:105380002D6005B0F0BD00BF40100020F8020020E5
:105390000010024020260020B55300080004014000
:1053A00008B5FFF799FF024B4FF480521A8008BDF1
:1053B0002400002008B50A4B1B681A69094B1968BC
:1053C000586910420BD0114209D05A6108F0E6FD2D
:1053D000054A0649136B1063C31A53630B8008BD5B
:1053E000F802002000040140401000206E1100204F
:1053F00010B51E4C4000C0B2A36023611C4B60710D
:10540000E1700120002121736070227120751868FD
:1054100084F82C1040B383889B0515D40388D905E4
:105420000DD447F230530288920502D5013BFAD1E0
:1054300012E08BB103889BB243F4807303808388AE
:105440009BB243F44073838047F23053227D12B104
:10545000013BFBD100E013B9BDE810402CE7034B42
:1054600093F82C0080F0010010BD00BF4010002018
:105470000C28002007B5002101AB03227720FFF79D
:10548000B7FF9DF805309DF804001B0243EA004376
:105490009DF80600184303B05DF804FB08B5FFF75C
:1054A000E9FF014B186208BD4010002008B5FFF766
:1054B000E1FF014BD86108BD4010002007B5F6217F
:1054C00001AB03227720FFF793FF9DF805309DF88D
:1054D00004201B0243EA02439DF806201343054AB9
:1054E000B2F92020C2F10802D340034A936203B00C
:1054F0005DF804FB100300204010002007B5F621E2
:1055000001AB02227720FFF773FF9DF804209DF87E
:10551000053043EA0223024A938403B05DF804FB9A
:105520004010002030B505460C4613462946224659
:10553000BDE8304068205BE713B5204B400002AC6B
:10554000C0B2587104F8012DD970012200211A73DC
:1055500059701A711A751A4A1C6110689C6083F898
:105560002C1040B38288920515D40288D4050DD43E
:1055700047F230520188890502D5013AFAD112E08A
:105580008AB1028892B242F480720280828892B21A
:1055900042F44072828047F23052197D11B1013AD3
:1055A000FBD100E012B9FFF787FE04E0034B93F84C
:1055B0002C0080F0010002B010BD00BF40100020A0
:1055C0000C280020772048210122B5E777205821B8
:1055D0000122B1E7044B772093F82020F4219201B7
:1055E000343202F0FC02A7E7100300207720F421F8
:1055F0002E22A1E703460A46682019469CE7FFF7DA
:1056000037BB0DE6FFF734BB0AE670B584894FF46B
:105610007A74FBB112B11578013207E0FF2505E07D
:105620004FF6FF76013CA4B2B4420DD00689B6070E
:10563000F6D5ADB285810589ED070DD44FF6FF751E
:10564000013CA4B2AC42F6D1FFF73AFC003018BFDF
:10565000012070BD012070BD8589ADB209B10D700A
:105660000131013BD5E708B540F2E93302899207E1
:1056700004D4013B9BB2002BF8D10AE040F2E9339D
:1056800089B281810289D20706D4013B9BB2002BEB
:10569000F8D1FFF715FC00E08089C0B208BD2DE904
:1056A000F04190460F46094C094E102540F080010C
:1056B00065613046FFF7D7FF3046414600223B4642
:1056C000FFF7A3FF25610120BDE8F081000801403C
:1056D00000300140F8B503460F46074C074E102531
:1056E000194665613046FFF7BEFF30463946FFF781
:1056F000BAFF25610120F8BD0008014000300140DB
:10570000F7B50446FFF7E8FDB4F5807F0ED0BB2C5B
:105710000ED8612C0ED8292C0ED8132C0ED8092C9B
:105720000ED8002C14BF062600260AE0002608E04A
:10573000012606E0022604E0032602E0042600E03B
:105740000526524D95F83870002F6DD1504C8021B0
:1057500023886B2023F040031B041B0C2380238829
:1057600023F038031B041B0C43F0300323802388F1
:105770009BB243F040032380FFF7ACFF962008F074
:1057800034FC03216820FFF7A5FF962008F02DFCCC
:1057900003216B20FFF79EFF012008F01BFC102166
:1057A0006A20FFF797FF012008F014FC39466C20AF
:1057B000FFF790FF012008F00DFC39461920FFF794
:1057C00089FF012008F006FC18211B20FFF782FF4B
:1057D000012008F0FFFB10211C20FFF77BFF0120B8
:1057E00008F0F8FB10213720FFF774FF012008F0C4
:1057F000F1FB01213820FFF76DFF012008F0EAFBE3
:10580000238823F040031B041B0C2380238823F0F0
:1058100038031B041B0C238023889BB243F04003F6
:105820002380012385F83830194A0023EB8213883E
:10583000314623F040031B041B0C138013881A20ED
:1058400023F038031B041B0C43F030031380138830
:105850009BB243F040031380FFF73CFF012008F0A8
:10586000B9FB6846FFF794FC9DF90230013303D180
:105870009DF90030013302D0EB8A9BB223B10023A3
:105880000620EB8208F01AFC03B0F0BD40100020A7
:10589000003001402DE9F04F4B28A1B0044600F044
:1058A000EE8500F2B480302800F0618651D82228BD
:1058B00000F07A8423D8032800F0A28114D80128AC
:1058C00000F09281022840F0BD8604200BF000FE1B
:1058D00043200BF0C8FD4C200BF0C5FD46200BF01B
:1058E000C2FD4C2000F0FFBD042800F09281052885
:1058F00040F0A8861A200BF0EBFD00249BE128283D
:1059000000F08B8515D8242800F07285262840F0F9
:105910009986D54C06200BF0DBFDB4F858010BF04E
:10592000DAFDB4F85A010BF0D6FDB4F85C0100F0D2
:10593000EBBD2C2800F084852E2800F002862A2852
:1059400040F0808601200BF0C3FDC74B587900F072
:10595000CABD3D2800F05E831ED8362800F0D785EA
:105960000BD8322800F0B985342840F06B864820E7
:105970000BF0AEFD002500F039BC3A2800F0F782AC
:105980003B2800F00A84382840F05C8604200BF0A5
:105990009FFDB54C00F032BD452800F0408627D869
:1059A000402800F0A385422840F04C86AE4C1020E1
:1059B0000BF08EFD60790BF056FDA0680BF094FDA6
:1059C00094F88E010BF04FFDB4F858010BF083FDF5
:1059D000B4F85A010BF07FFDB4F85C010BF07BFDCD
:1059E000B4F87E010BF077FDB4F8800100F08CBDB7
:1059F000472800F0F285C0F0DF85492840F0228674
:105A000002200BF065FD984B988900F07DBD6F2852
:105A100000F00B8366D8682800F0818224D86528BE
:105A200000F03E8115D84D2800F03885642840F0FC
:105A3000098607200BF04CFDE7200BF014FD8A4B84
:105A400058790BF010FD00200BF00DFD042000F044
:105A5000F5BD662800F0D281672840F0F38510205C
:105A60000BF036FD0024F1E16B2800F0428426D8CB
:105A7000692800F060826A2840F0E48510200BF06D
:105A800027FD7A4B7A4C187800F002000BF0EBFC03
:105A9000784B18780BF0E7FC20680BF025FD606868
:105AA0000BF022FD744B18880BF015FD734B188812
:105AB0000BF011FD724BB3F8700000F025BD6D289E
:105AC0006F4C00F04B8200F2588206200BF000FD74
:105AD000B4F85C000BF0FFFCB4F85E000BF0FBFCCC
