:020000040800F2
:1000000000500020914501083DE10008792F0108CA
:100010003BE1000839E1000837E10008000000007A
:1000200000000000000000000000000035E10008B2
:1000300033E100080000000031E10008EBCF0008C8
:1000400031460108314601083146010831460108B0
:100050003146010831460108FDB10008FBB1000836
:1000600031460108F9CF0008314601083146010840
:10007000314601083146010811B200083146010835
:1000800099D8000831460108314601083146010877
:100090009DE100083146010831460108F9B1000828
:1000A00031460108D1CC000831460108E1CC0008F6
:1000B000C1CC0008B1CC0008A1CC000875560008DE
:1000C000795600086F56000873560008314601083B
:1000D0003146010809B2000831460108FFB10008A5
:1000E000FDCF000831460108092901080000000081
:1000F0000000000000000000000000000000000000
:0C01000000000000000000005FF808F1A3
:100110002DE9F04F684B694CA5B023600023636064
:1001200007F086F8039418B907F084FA0FF058F82E
:1001300007F0A0F8624A634C1378634E43F0010362
:10014000137000230C930D930E934FF4E0130F9351
:100150002368B07B43F480332360A36943F010032A
:10016000A361236803F400330D930C9B01330C93BC
:100170000D9B1BB90C9BB3F5A06FF2D123685149BD
:1001800013F4003301D0022315E00A6842F00102A3
:100190000A600C93236803F002030D930C9B013358
:1001A0000C930D9B1BB90C9BB3F5A06FF2D1236888
:1001B0009B0739D501230E93444B45491A6842F0F9
:1001C00010021A601A6822F003021A601A6842F0DC
:1001D00002021A606368636063686360636843F483
:1001E000806363603B4B1A68043B22F070425A60A4
:1001F000394A1160616821F47C116160596841F0ED
:1002000000415960D96821F40041D9609B681F04FE
:1002100049BF324B4FF4E01313604FF480130F9338
:100220000E9B012B01D117E0FEE7022B18D168B11C
:100230000F9BB3F5801F02D14FF4A01305E00F9B75
:10024000B3F5E01F02D14FF400130F930F996368C9
:100250000B4343F4803302E0636843F4601363604C
:10026000236843F0807323602168164B8D01FBD512
:10027000596821F003015960596841F00201596041
:100280006368104903F00C03082BF9D14B68144F35
:1002900003F00C03042B03D0082B03D00C4B29E0F4
:1002A000136827E04B684868C3F38343C00303F136
:1002B000020319D40B4A1CE0C7E9000870010020B2
:1002C0006430002000100240CC11002000200240C9
:1002D00000127A000410014028000020001BB70023
:1002E000FC00002000093D00496812688D0348BFEA
:1002F000520853433B6063684F4AC3F303131344EC
:10030000197B3B684D4ACB403B60F17B4C4B003145
:100310000593039B18BF012119724A49039B916001
:10032000494924ADD160A169049241F00101A16164
:10033000616ADFF834B1D960616ADFF8309141F069
:1003400080716162A1694FF0000841F01C01A16158
:100350004FF6FF7125F82C1D584629468DF866800A
:100360000DF0A5FB484629460DF0A1FB374829466C
:100370000DF09DFB10218DF84A1002218DF84B10D5
:100380000DF1900A4FF400712AF8481D5846CBF839
:10039000101051460DF08BFB2D48416841F0007163
:1003A0004160284609F06AFC19992A48049AB1FB71
:1003B000F0F12948204B016028494FF47A70C1F8C8
:1003C0000080C1F8048039681B4FB1FBF0F124486C
:1003D00001394160F02182F823100721C0F808801C
:1003E0000160B168DFF88880C8F8001003F11C01D3
:1003F00003C985E80300A169199841F00801A161CA
:100400000821C9F810101AA90DF051FBD8F80010F6
:10041000CDF818B011F0080F059B31D093F88E215C
:10042000012A2DD80F4A93F88F31D26812F0805BE1
:1004300000F0CC8524E000BF8893010800ED00E0C7
:10044000CC110020000000080005FA050010014052
:100450000000014040420F0024260020F425002027
:1004600010E000E07001002000080140000C014095
:10047000A4190020B24B002283F88F210EF056FF02
:1004800064200CF0A8FDA022AE48002116F0BBFCB1
:10049000AD4A536823F4406343F0706343F4006350
:1004A0005360E369002243F00703E361A36943F467
:1004B000006343F00C03A361A44B4FF0000903F168
:1004C000100102F8019001320C2AF5D1FF221A77AF
:1004D0005A779A77DA779E4B9E4AD8F800801A604E
:1004E0009D484946302216F08EFCC8F38014042340
:1004F0009A4A994919F802000C2202FB09F2505459
:1005000034B91E2801BFFF2003F1FF335054DBB282
:1005100009F10109B9F1040FEAD1914A96F8059061
:100520001370904B039983F800908F4B874A0B62AE
:100530008E49C0330B608E4B18F0200F03EBC903BC
:100540005B7818BF01235362002340F2DC51894AD3
:1005500022F813100133082BF7D11C22504600213A
:1005600016F051FC18F400721DBF834B18950493CC
:100570000492B9F10E0F03D009F0EF03082B02D15A
:1005800001238DF85A30C8F340038DF84E30C8F37C
:1005900040338DF84830C8F3C0338DF84B3018F431
:1005A00000638DF8504004D096F882315C1E63429F
:1005B00063418DF84C30C8F300438DF85130039BF4
:1005C00000325B6A18BF0122003318BF01238DF887
:1005D0005330C8F300538DF85430B6F846318DF8D7
:1005E0005220B6F8442118F4805FADF85830B6F8C0
:1005F0005231ADF85E2018BF514AADF85630C8F3FD
:10060000804318BFB2F84C218DF84F30B6F8503106
:1006100018BFADF85E20B3F5FA7FADF85C3088BF47
:100620000023039A88BFADF85E3096F8D23108F007
:10063000010082F82830002382F829304F4AC8F39D
:10064000C00153709DF85A308DF84900002B8DF889
:100650004A100CBF0023022300B901B1013307EB9C
:1006600083077B6A4FF000099A1E163305920793A1
:10067000059A32F8023F05924FF6FF72934200F05E
:10068000BC819DF84D10DCB21B0ADAB219B1A11E73
:10069000012940F2AD819DF8501031B13848210157
:1006A00040583849884200F0A3819DF8511031B17B
:1006B0003348210140583349884200F099819DF820
:1006C0004E1051B12E48069E00EB04104168B14215
:1006D00003D10189012900F08B819DF84B1051B1A4
:1006E0002748069E00EB04104168B14203D10189FE
:1006F000022900F07D819DF84C1051B12048224E16
:1007000000EB04104168B14203D10189022900F0D5
:100710006F81189E7EB11A4F316807EB0417786815
:10072000884208D13989B088884200F06181F08818
:10073000884200F05D81022B28D19DF8483029E0E5
:10074000CC110020A42600200000014070010020F0
:100750003C2E0020BC130020402E00209AD6010819
:100760009E11002064090020DC110020C027002019
:10077000BCBD0108FC1000208893010899010020ED
:1007800044B8010800040040000C0140012B04D1D2
:100790009DF84930002B00F02B819DF85310BD4B84
:1007A00051B19DF85A1039B9092C05D1D3F89010E0
:1007B000B948814208BF04229DF8541031B19DF818
:1007C0005A1019B9211F032998BF04229DF8481017
:1007D00024011E19A1B1D11EC9B2012908D81B5983
:1007E000B3F1804F00F00481AC498B4260D1FFE04F
:1007F000022A40F0E0801A59A94B9A425AD1F7E0F8
:10080000012A55D19DF84F20A64F22B9BDF85C2092
:10081000B2F5FA7F06D91A59A14B9A4204BF0323B5
:1008200087F82B30DFF86CB2FF2387F8703087F839
:1008300071300BEB04035A7B586803F1080A1B89DB
:100840004FF00008ADF8643019A9022387F87480CE
:10085000C7F880608DF867308DF8662087F82C80A7
:10086000C7F83080C7F83480C7F83880C7F86C8084
:1008700087F8728087F873800DF019F95BF804002F
:100880009AF80210424607F00EFE30464146012219
:100890000AF00EFC844B8549C7F88430844BC7F8B6
:1008A0008C80C7F8883030460A1D0AF049FC9FE06A
:1008B000022A48D15FFA89F31C2101FB03FC794B22
:1008C000002703EB0C08734B4FF0010A1A19517BF8
:1008D000506802F1080B128988F87590ADF8642011
:1008E0008DF86610022219A988F8767088F87E7053
:1008F00088F874A0C8F88060CDF824C008938DF8FB
:1009000067200DF0D4F8089B9BF8021018593A465E
:1009100007F0C9FD3046394652460AF0C9FB654A20
:10092000604BDDF824C0C8F884209C44624A0CF176
:100930008401C8F88820C8F88C7030460A1D0AF077
:10094000FFFBD14454E0032A38D19DF84F30554C79
:100950005A4F3BB194F82A80304608214FF6FF7277
:1009600000231CE0BDF85C2094F82A80B2F5FA7FE1
:100970000DD9534B3046B3FBF2F20821BDF85E307F
:1009800092B207F0E5FD4F4B47F828000CE04E4BC4
:100990003046B3FBF2F2BDF85E30012192B207F0AF
:1009A000D7FD4A4B47F82800C36094F82A3001333A
:1009B00084F82A301CE0012A3FF424AF042A17D11E
:1009C000BDF85620404B374C93FBF2F23046BDF851
:1009D0005830012192B294F8297007F0B9FD94F8CB
:1009E000293004EB87070133C7F8540184F8293014
:1009F000059B079A93427FF43BAE039A039992F8C2
:100A00002920334B81F87421324A002617781E7052
:100A1000A7F11702022A234C99461CD8236A002109
:100A2000985903EB060812F063FD20B1039B5B6A43
:100A3000002B57D127E0284B06EB030E98E80F0058
:100A40008EE80F0099F8003010360133C02E89F877
:100A50000030E3D1EAE7214B13F837C003EBC703BB
:100A6000D3F8048089F800C0B8F1000FDED06645E5
:100A7000DCDA194A330103EB020E43440FCB013693
:100A80008EE80F00F3E7164B1A68984612F4805F61
:100A90004ED147E044B80108002C0140000400405A
:100AA0000008004070010020197F0008F4010020B8
:100AB00005800008E1840008F17E0008702600200F
:100AC00000127A002580000840420F0015800008BF
:100AD000A026002064090020A0080020BCBD010859
:100AE000A41900202D4B2E4A13F8370003EBC7033F
:100AF0005E681070002EC6D000238342C3DAC3EBB9
:100B0000C3017218D2F80080DFF8A0C0013341F8A9
:100B10000C8001EB0C0E9188AEF8041092798EF8DF
:100B20000620EAE707F0EF03082B1E4B25D126E04D
:100B300099F80030012BF5D91B4E06EB031303F196
:100B4000100910364E45EDD056F8100C4FF07C5180
:100B500012F03AFB4FF07C5146F8100C56F8140C8A
:100B600012F032FB4FF07C5146F8140C56F80C0C86
:100B700012F02AFB46F80C0CE3E70E2F08D11A7886
:100B8000182F42F010021A7012D10CF081FD0FE004
:100B90001A78192F22F010021A70F5E710A3010835
:100BA0004C270020C0190020A80800204D27002055
:100BB0000CF052FDD8F80030BF4E58035EBFBF4B5B
:100BC00001221A70BE4A4FF002091378294643F0F9
:100BD000040313704FF40043ADF8643014238DF810
:100BE0006630B3698DF8679043F00403B361B5488C
:100BF0000CF05DFFB44AB54B00201A600CF000FA0F
:100C0000B34B032793E80300B36985E8030043F07F
:100C10000803B36119981AA90CF049FFB3691822A7
:100C200043F48053B361F368A64843F48053F36000
:100C30002946A0238DF8662005924FF0040AADF8EE
:100C400064308DF867700CF032FF40239D482946D0
:100C5000ADF864308DF866A00CF029FF1023994898
:100C60002946ADF864308DF8663003930CF01FFF11
:100C7000F1684FF0070B41F48051F160F168059A7B
:100C800021F48051F1609349088800F4415040F408
:100C9000457038430880888B20F400600004000C05
:100CA0008883A1F810B0088880B240F04000088026
:100CB000F16941F48041F161316941F48041316170
:100CC0008DF86770844F8DF8662038464FF42042C7
:100CD0002946ADF864200CF0EAFE4FF48042384615
:100CE0002946ADF864208DF866A00CF0E0FE039B69
:100CF0004FF4805A384629468DF86630ADF864A026
:100D00000CF0D5FE3369754A43F48043336133698F
:100D1000484623F480433361138803F4415343F47A
:100D2000457343F003031380938B23F400631B0488
:100D30001B0C9383A2F810B013889BB243F04003BE
:100D40001380C7F810A00BF0F3FF002801F0BC825D
:100D50004388002B01F0B882614F002138461022F1
:100D6000D8F8005016F04FF84FF6FF73ADF8443046
:100D7000022305F4004A05F400694FF0000B1D4002
:100D80008DF846308DF847B00DD0012524A921F803
:100D90004C5D4C4809F0E0F8072387F800B087F86D
:100DA00001B0BD70FB70BAF1000F0ED0022324A970
:100DB00021F84C3D434809F0CFF80123EA183B7174
:100DC000BB7107237D71FB71D5B2B9F1000F0FD054
:100DD000022324A921F84C3D3F4809F0BDF809231E
:100DE00001223B73BA736B1C07227D73FA73DDB269
:100DF00073683C4843F4404373607369DFF8E490E0
:100E000043F001037361B36943F40073B36108F005
:100E1000BCFE19A808F08EFE334B012D1993334BFD
:100E20004FF000061A9394BF334680231E934FF46D
:100E300080731F934FF480632093202319A921937B
:100E400048464FF400531C9522931B961D962396FB
:100E500008F07DFED9F80030254A43F00103C9F8B7
:100E600000305368012D23F4702394BF0021012129
:100E700023F4807343EA0123536091681D4B013DC5
:100E80000B4043F4602343F002039360D36AEDB256
:100E900023F4700343EA0555D5620123BA1991780A
:100EA00000297DD0B85D591C0928C9B2D278DFF875
:100EB00040E033D920E000BF00100240D00D0020F8
:100EC00064300020000801401DCD0008743000206F
:100ED000BC93010800300140000C01400038004084
:100EE000CC1E0020080002404C240140DC1E0020E3
:100EF00000240140FDF7F1FFA0F10A05DEF80C9097
:100F000005EB45054FF0070C0CFA05FC29EA0C0C23
:100F1000AA404CEA0202CEF80C200EE0DEF8105097
:100F200000EB40094FF0070C0CFA09FC25EA0C0510
:100F300002FA09F22A43CEF81020062BC94D0ED82A
:100F4000013B6A6B03EB83034FF01F0E0EFA03FEA7
:100F500022EA0E0200FA03F313436B631FE00C2B2B
:100F60000ED8DA1FD5F830C002EB82021F2393405F
:100F70002CEA030E00FA02F34EEA03032B630EE0A1
:100F8000A3F10D02D5F82CC002EB82021F2393407F
:100F90002CEA030E00FA02F34EEA0303EB620B465F
:100FA0000436102E7FF47AAFAE4B9A6842F480720A
:100FB0009A609A6842F001029A609A6842F00802C8
:100FC0009A609968A74A090730D5FAE7013B092BCF
:100FD0003FF656AAB86D2946286048460CF067FDD2
:100FE0004FF40063C9F810303C200BF0F4FF96F882
:100FF0008F319B45BFF63EAADFF8A49208224FF43A
:101000000063C9F8102078200592C9F814300493C1
:101010000BF0D6FF059A049BC9F814207820C9F874
:1010200010300BF0CDFF0BF1010BE0E7936843F0BC
:10103000040393608B4B9F6817F00407FAD18A4D25
:101040009A68B5F8580142F4A0029A60002841F06D
:101050004081B5F95A31002B41F03B81B5F95C3143
:10106000002B41F03681D8F800309B031FD5C820F3
:101070000BF0B1FFAE200CF09AFE08B10CF09CFE14
:101080007A4E84F87501C8200BF0A5FF784B00213B
:101090000C223046C4F8783115F0B5FE0223F37007
:1010A00010F035F80BF070FF724B0344B36095F805
:1010B000673100210393704B0C221B686F48B3F813
:1010C00056A0B5F860B195F85F916D4E95F86851EE
:1010D00015F099FE002110226A4815F094FE4FF099
:1010E000000C84F87CC1614686F87DC10C2206F5AF
:1010F000C070CDF814C015F086FE634A2320C4F8F2
:101100008C210BF068FF752001210DF12F0204F0F6
:1011100041FAC0B15D4ADDF814C0C6F884215C4ACA
:101120006046C6F88821432286F88021012110AA52
:1011300004F030FA9DF8402002F07E028DF8402045
:10114000002846D14EE0534A6B201388802123F0BB
:1011500040031B041B0C13801388062623F038035E
:101160001B041B0C43F03003138013889BB243F025
:101170004003138004F0E6FA96200BF02CFF19AA26
:101180007520012104F0C3FA9DF86420682A04D078
:10119000731E13F0FF06EFD189E00C20012119AA7C
:1011A00004F0B5FA9DF86430142BC0F08080182B41
:1011B00002D9543B062B7AD8032384F87C3143238D
:1011C00084F88031344BC4F88431344BC4F888310E
:1011D0006DE0682A06D1012286F87C211D2286F85E
:1011E000802164E09DF82F3003F07E03682B8DF89A
:1011F0002F3057D10223062084F87C310146D4F8E1
:10120000843119AA98479DF8691001F001029DF8F0
:10121000671001F001014B0043EA82019DF865204F
:1012200002F001030B430AD05BB2012B01D1002372
:1012300002E0022B0FD1012384F87D3137E0104BFF
:101240000C20D3F88431012111AA98479DF844302D
:1012500013F00F0303D103200BF026FF27E0042B2C
:10126000E9D1E4E700240140CC1100203024002023
:1012700052130020404B4C000C110020202A00206B
:1012800070010020A8280020C4930108955500088B
:1012900065560008003001400F5700084557000808
:1012A000000C0140702B04BF042384F87C31B14A48
:1012B0000023137094F87C31032B11D1AE4BAF494E
:1012C000AF481960AF495960AF49D9600423137022
:1012D000AE4A06231168037041F00103136003E076
:1012E00001200BF0E1FEF3E14B4640F2023C0A2BF9
:1012F00028BF00234FF0010E0EFA03FE0EEA0C0C7D
:10130000BCF1000F16D11EF0FD0F13D0A04BDFF87B
:10131000A0E241F00301C3F800E0DFF898E21160B9
:10132000C3F804E09B4B4FF0040E83F800E0072362
:10133000437006E0012B4FF00009D5D8954B83F898
:101340000090042D00F21281DFE815F005003E0147
:101350006C0005003E010A200BF03DFE7720A02125
:10136000012211AB04F07CF800285BD01E21012281
:10137000772004F019F94FF42F600BF021FE4FF0A5
:101380000009A9F160010025C9B2022219AB77203A
:101390008DF864508DF8655004F062F89DF8653062
:1013A0009DF8642043EA02227B4B03F5C87129F8BB
:1013B000012009F10209B9F1100FE2D1B3F89E1131
:1013C0004FF0010E01F00F0001F47F41A3F89E11D0
:1013D0002B4625F001022244B2F89021002A18BFC2
:1013E0004FF0000EEE0703D5D2B25340082202E0C0
:1013F00083EA1223FAE71E0448BF83F4C053013A7C
:101400004FEA4303F7D10135102DE2D1624A01437F
:10141000A2F89E11BEF1000F04D1C3F3033398422A
:1014200000F0308794F8A0315B4D002B40F0C48071
:1014300014200BF0D0FD7720D021012211AB04F055
:101440000FF8002800F0C0809DF844300322552B8F
:1014500085F8BB31A5F8C42140F0B680D121012226
:1014600011AB772003F0FCFF9DF84430772003F0A8
:101470000F021B0985F8BC2185F8BD31162219AB76
:10148000AA2103F0EDFF9DF864209DF8653043EA42
:101490000223A5F8A4319DF866209DF8673043EA41
:1014A0000223A5F8A6319DF868209DF8693043EA2B
:1014B0000223A5F8A8319DF86A209DF86B3043EA15
:1014C0000223A5F8AA319DF86C209DF86D3043EAFF
:1014D0000223A5F8AC319DF86E209DF86F3043EAE9
:1014E0000223A5F8AE319DF870209DF8713043EAD3
:1014F0000223A5F8B0319DF872209DF8733043EABD
:101500000223A5F8B2319DF874209DF8753043EAA6
:101510000223A5F8B4319DF876209DF8773043EA90
:101520000223A5F8B6319DF878209DF8793043EA7A
:101530000223A5F8B83141F27073A5F8C83146F618
:101540007813A5F8CA31154BC5F8CC31144BC5F842
:10155000D031144BC5F8D431134BC5F8D831134BE7
:10156000C5F8DC31012385F8A03125E0012D24D117
:101570002AE000BF74070020A82800207157000847
:10158000F80000200152000890C1793DBC190020EC
:10159000202A002090300020700100205D560008B5
:1015A0006D550008455600082D55000825510008C6
:1015B00011540008495200080225364B364A9D70E6
:1015C000136843F004031360334D2B689A0702D568
:1015D000324B1B689847324B58461B689847039E0E
:1015E000304A00231370914616B1022E40F06286F5
:1015F0004FF0000B24AB03F82CBD1E200A21012262
:10160000C4F8E0B103F02CFF002800F082869DF8BA
:101610006430482B0CD1244B244A1A60244A5A6067
:101620001C4B0222DA702B6843F008032B6002E0A7
:10163000584600F06EBE1F4B93F854210AB11E4964
:101640000A7093F855210AB11C490A7093F8563173
:101650000BB189F800302B68194D13F0080F35D005
:101660000FFA8AFA64269AFBF6F4204611F058FD28
:10167000814606FB14A000B211F052FD114911F091
:10168000A3FD0146484611F097FC0F4911F09CFD5F
:1016900028601DE0F8000020BC190020202A00204E
:1016A000A828002091300020E406002013DB000869
:1016B00021D80008CC1100207407002090300020B1
:1016C000CC2700208988883C0000204100232B6023
:1016D000B14A0A24137843F002031370AF4B082277
:1016E0001A61AE4D1920EB68013C83F00803EB60F2
:1016F0000BF071FC01200BF083FC19200BF06BFC4C
:1017000000200BF07DFC14F0FF04EAD10823A44C68
:101710002B6123681B0705D5A24B1B689847A24B7A
:1017200001221A70A14BA24D1B68187B11F0F8FC26
:10173000A04911F049FD0DF02FFC0646288811F054
:10174000EFFC314611F040FD15F06AFD9A4B188010
:10175000288811F0E5FC0146984811F0E9FD984908
:1017600011F0E6FD974B93491860974B974DD86859
:1017700011F02AFD964911F027FD964BFF211860C4
:101780001B22284615F03FFB284600222A702268BB
:10179000914B012112F0020F18BF697019701FBF21
:1017A000032119700221A970560741BF19784D1CF9
:1017B0001D70032548BF455412F00A0F0CD01A784B
:1017C00004218154511CC9B205254554D11C023253
:1017D0001970D2B206218154D8F800108D0641BF8D
:1017E0001A78551C1D70072548BF85540A0608D570
:1017F0001A7809258554951C01321D70D2B20A252C
:101800008554764D6E79082E01D00E2E08D11A78A7
:1018100002F1010E83F800E04FF00B0E00F802E039
:101820001A7811F4803F4FF00C0C00F802C002F15E
:10183000010E1CBFDFF8A0C102325FFA8EFE83F8F2
:1018400000E01FBF8CF80020604A4FF00E0C02F839
:101850000EC04A0748BF1A784FF0120C41BF02F180
:10186000010E83F800E04FF0100E00F802E01A7845
:1018700011F4806F02F1010E5FFA8EFE83F800E032
:1018800000F802C00ED095F814C2BCF1000F09D0C8
:10189000DFF844C102328CF800204C4A4FF0130CA0
:1018A00002F80EC08A0541BF1A7802F1010E83F8D2
:1018B00000E04FF0150E48BF00F802E0182E13D1DB
:1018C0001A784FF0160E00F802E002F1010E5FFAEE
:1018D0008EFE4FF0170C00F80EC002F1030E02321C
:1018E000D2B283F800E086540E0341BF1A78561C2A
:1018F0001E70192648BF8654CA0548BF1A78384E4C
:1019000041BF511C19701A23835400219822354875
:1019100015F079FA10F08DFD334834498046344B88
:10192000B5F84E211960334B316033491A800023DA
:10193000324AD0F800E00B70B5F894111380937020
:101940001FFA81FA0EF17902DFF8BC902C48D9F821
:101950000060DFF8B8C006F5967620F813A04CF8C2
:1019600023600133122BEFD1264E0EF1C90ED6F8AB
:1019700000C01CF4805F08BFB5F89AA1A0F806A0CB
:101980001378002B53D1937892F803A053454ED28D
:10199000002B3DD0013B3DE064300020000C0140B5
:1019A000BC190020E4060020FC06002000080020EE
:1019B0002400002035FA8E3C1C0800200AE81C4157
:1019C00000401C4630070020A8280020D510002029
:1019D000BD378635FC070020D4100020CC11002034
:1019E000F82F0020982D00200C1100205213002009
:1019F000440F0020480F00207F0E002004300020FC
:101A000040300020A4190020A4110020C80E00209E
:101A10000AF1010303EB830392F801A003EB8303B4
:101A200003F561739BB20AF1040A20F81A300432FC
:101A30007245A5D11CF0080F00F0C18095F88E31D9
:101A4000062B00F2B680DFE803F004070E35507075
:101A5000700045F2F05201E042F6F822824B1A8003
:101A600010F072FDA4E042F6F8227F4B09011A80C3
:101A70000A2391FBF3F10023A1F5B0617B4A42F800
:101A800023100133122BF9D1794A7A494020116091
:101A9000794A13700BF084F9002800F08A80012342
:101AA0004FF0070B90F9000040218DE80808734AB9
:101AB000734B78E042F6F8226B4B40201A80714A53
:101AC0006B4B1A606C4B10221A700BF069F90028EE
:101AD0006FD001234FF0000A90F9000040218DE8FB
:101AE0000804694A4FF4E1335DE042F6F8225E4BA8
:101AF00040201A80654A5E4B1A605F4B08221A70BC
:101B00000BF04EF9002854D001234FF0000C90F94F
:101B1000000040218DE808105D4A4FF4E1330BF0DE
:101B200006FB5C4BC3F8E4013FE042F6F8214E4A65
:101B3000062B118050494FF00C02DFF890E1564817
:101B40000A7010D0554900230B708EF800300370D6
:101B5000534B1B211970534B4FF4E13A1A70524BFF
:101B600005221A700EE0002101704C488EF800101A
:101B700001704B49212008704A49DFF854A10A70CE
:101B8000494A1370494A3A4B40201A600BF008F951
:101B900078B101234FF0000E90F900008DE8084065
:101BA0005346434A40210BF0C2FA003018BF0120CF
:101BB00028B908200DF0E2FA3E4A2D4B1A6033682E
:101BC0002D4A13F4804F1FBF122111703A48284943
:101BD00018BF086042F20101194099B144F6206033
:101BE00021490880980441BF0821117033482049D9
:101BF00048BF0860D90741BF0C21117030481C490B
:101C000048BF086011781806A1F10401517040F135
:101C10009B802C4B1F484FF0000BDFF8B8A0C0F89A
:101C2000E8315946152200F5F67003938AF801B0A1
:101C3000CAF804B0CAF808B015F0E5F8039B224AC8
:101C4000053B5846136003920AF09FFDD9F8003017
:101C50000220CAF80C300BF0A3F8039A9646D8BBC2
:101C600080200DF08BFA67E064080020E42E00204D
:101C7000A000002069290108342E0020112B010842
:101C8000A086010055290108652A0108412901089B
:101C9000192A0108700100207D1E00207C1E0020F2
:101CA0009F1E0020F32F0020A01E0020199900087D
:101CB00031990008C929010899290108B9290108A1
:101CC000A9290108BC1300206C070020F42F002074
:101CD00090D003004C0700209AF8013090F805C01E
:101CE000C64A0C2101FB03214978614504D0013328
:101CF000DBB2042BF4D900238AF80130DEF800307F
:101D00004FF00C0E1B7890F90000002B9AF8013070
:101D100018BF03210EFB032208BF012153780022C4
:101D20000091019202210BF002FAB54B18600028D5
:101D300096D001200AF029FDD8F80000B14B00F53B
:101D4000C5721A600AF0C8FD33680DF1640813F417
:101D5000007F5AD0AC4ADFF804A3049B4FF0100B6D
:101D6000CAF800309369A94843F001039361049BCA
:101D700010A91B888DF842B0ADF8403002238DF8D1
:101D800043300BF094FEDAF80030A0485B8810A9CD
:101D9000ADF8403004238DF842300BF088FEDAF8BD
:101DA00000300120197A0BF06DFEDAF80030984A05
:101DB0005B684046536119938DF869B000234FF07A
:101DC000010B8DF8683003938DF86AB010F0EAFFCC
:101DD000DAF80020039B527A11A88DF844200322E0
:101DE0008DF845208DF846308DF847B010F0BCFFD7
:101DF000D9F80030874A3C3B136023684FF0FF322C
:101E000043F010032360844B1A60844B844A854C52
:101E10001360854A8033136033684FF00009D9039B
:101E200084F8009040F1C3800EF050F940F22A335C
:101E3000DFF82CC24FF0010A1A4660464946CDF839
:101E400014C0049384F800A014F0DDFF6E4A4FF034
:101E5000100B91696D4841F00801916118218DF8CE
:101E6000431003218DF8421010A90392ADF840B041
:101E700008F072F8039A6D48D1696D4C41F0020187
:101E8000D1616C490968B1FBF0F12088013920F477
:101E90005C7000FA0BF020FA0BF0208089B21D2054
:101EA000A0852185A4F814A0218C21F0010101FA5C
:101EB0000BF121FA0BF12184218CB4F804E0208B82
:101EC00021F0020120F0730000FA0BF001FA0BF18F
:101ED00020FA0BF021FA0BF11FFA8EFE40F06000A1
:101EE00041EA0A01A4F804E02083A4F83490218494
:101EF000218B21F0080101FA0BF121FA0BF141F0DD
:101F000008012183B4F844106FEA41416FEA51415E
:101F100089B2A4F84410516941EA0A015161464A64
:101F20001046039207F031FE404607F003FE049B83
:101F3000039A42491C938023DDF814C01E934FF48A
:101F40008073104619911F9341464FF4005322931A
:101F5000CDF868C0CDF86CB0CDF87490CDF8809015
:101F6000CDF88490CDF88C9007F0F1FDA389039A09
:101F70009BB243F40073A381136811A843F00203DA
:101F800013608DF844B08DF845A08DF846908DF81B
:101F900047A010F0E9FE2A4B1A682A4B43F8272085
:101FA0000137202FF7D10BF08FFC0BF08DFC33683D
:101FB0005A0540F18D80244C244BD4F82C950420F4
:101FC000C3F800900AF0ECFE0421C4F830050AF0D2
:101FD000C3FE1F4B84F834050820C3F800900AF0B4
:101FE000DFFE1C4B082118600AF0B6FE1A4F84F879
:101FF0003505002138462C2234E000BF4C940108FE
:102000002C240020A00F002000100240000C0140F2
:10201000000401404407002030110020F01300208C
:10202000701F0020D10D00207024002000366E01AA
:1020300000040040FC0000206C000240340400401A
:10204000DC930108D20D002070010020B01900209F
:10205000081A0020541A0020D81900204807002030
:102060007103002014F0CFFE8E237B704FF07C0BA9
:10207000E0234FF07D0AFB7087F800B087F82BA0B3
:10208000A84F2C220021384614F0BDFE8A237B7015
:102090001020A023FB7087F800B087F82BA0C4F8AD
:1020A00038950AF07DFE1021C4F83C050AF054FE74
:1020B00084F840052020C4F844950AF071FE2021E0
:1020C000C4F848050AF048FE84F84C050FF068FD96
:1020D000954F00243B88322023F040031B041B0C47
:1020E0003B803B884FF4805923F038031B041B0CC2
:1020F0003B803B889BB243F040033B809F238DF89D
:1021000044308DF845408DF846408DF847400AF040
:1021100062FF8DF86540854C11AA0423C4F8149021
:102120003846414603F0A9FAC4F810909DF866209D
:102130009DF86530120242EA03429DF867301A4367
:102140007B4B9A427B4B17D008D87B498A420CD0F4
:1021500001F51A4102318A4209D01CE077498A42CE
:1021600005D001318A4207D015E0202200E080220C
:102170001A804FF4807202E04FF480721A805A8005
:102180009A88198812029A604A43DA606C4A0121DF
:1021900082F84D1504E000221A805A809A60DA60B5
:1021A000DF6817B3FF0AB9464FF0000ABA4509DAEB
:1021B0000AEB07046410E002414610220BF0A4FD74
:1021C0000F2807DC0AF0F2FC5D4A4FEAC923C2F887
:1021D00050350AE0002358F82320013270D1013332
:1021E000042BF8D12746A146E0E73368554A13F49B
:1021F000002318BF012313700AF0C6FE524B18606B
:102200006B79052B02BF514B4FF4C8721A80504BAB
:102210004FF47A721A804F4BC8221A804E4A1378B4
:1022200043F0080313704D4A137823F00203137030
:1022300040F60203326813406BB14949494B1960BB
:10224000494B03211970494B01211970484900235A
:102250000B8048490B80930341BF474B04221A71FE
:10226000DA7844BF42F00102DA70AB6801223360D1
:10227000424B1A70424A137863F07F03137025B003
:10228000BDE8F08F42F21073A2F8C831A2F8CA314B
:102290003C4B0325C2F8CC313B4BC2F8D0313B4B11
:1022A000C2F8D4313A4BC2F8D8313A4BC2F8DC31DB
:1022B000FFF783B9012E7FF6BEA91E46FFF790B93E
:1022C00004F1010A4C468EE701200BF005FEFEF7F3
:1022D00043BD314B00221A7000B210F021FF2F498C
:1022E00010F072FF1990B5F95A0110F019FF2B493F
:1022F00010F06AFF1A90B5F95C0110F011FF274940
:1023000010F062FF26491B9019A80CF04FFEFEF753
:10231000AABE012E7FF68FA9002689F80000FFF7DC
:1023200067B900BF0D1A002000380040000C0140C2
:1023300018BA200014000020152020001740EF00DC
:1023400070010020602B00203C080020560F002068
:102350008A30002088300020C019002093300020EF
:1023600044130020A81900200C1A0020F0000020BF
:10237000401000204210002030240020D00D00200A
:10238000643000203D5600081D55000835560008F1
:102390000D550008694F00082C00002035FA8E3CCE
:1023A000A81E00209F492DE9F04F0A689E4C02F5B7
:1023B0009C43203323609D4B89B01E780191C6B1A8
:1023C0009B4909688A4240F20381013E1E70FFE08A
:1023D000D9F80030072D98BF595D964B88BF294624
:1023E0001B6895489847032D0CD904EB4505A88038
:1023F0000136914BF5B21A78DFF86092AA4219467D
:10240000E6D820E0D9F8002005F10E0302EB8303A3
:102410009988DA880028E8D04FF47A73401A584334
:10242000531A90FBF3F040F6C90300F57A70984216
:1024300005DC40F2EE239842B8BF184601E040F6B2
:10244000CA0080B2D1E742F201087C4B1B6803EA64
:102450000808B8FA88F87A4B4FEA58181B68B8F1A0
:10246000000F06D194F8292084F82820754A507866
:10247000107094F828701FB1724A177887F001071E
:1024800094F82BB00326BBFBF6F60F2206EB4606AC
:1024900084F82A20C6EB0B06D9F8002091F800A09A
:1024A000DFF8C091F6B20025554559DA4FEA450CE0
:1024B0001FB1654931F8150000E03846918ADFF810
:1024C000A8E1814202D8D18A81421ED25EF825005D
:1024D0005549834203D25D4931F80C0019E0E8B256
:1024E00003920293049110F0C5FB032D029B039A03
:1024F0000FDC04994FF0010C91F82AE00CFA05FC6E
:102500002EEA0C0E81F82AE003E003F596714EF8EE
:102510002510B8F1000F1CD194F8BC1029F8160052
:1025200031B9BBF1020F14D93F49012081F8BC0039
:10253000B9F80210B9F800000844B9F804100844CA
:10254000434980B221F8150000B2032190FBF1F05D
:1025500080B23E4909F1060921F815000135A3E7CB
:1025600094F82A203649A2F10F077A427A4184F87A
:10257000D620384B6AB1384A1268560109D40A6825
:10258000D9689A60521AC82A1DD9012283F82120DD
:1025900019E02C4A0120507010700A689968DA60BE
:1025A0005B68521A9A4282BF2A4B002283F821208C
:1025B0000025554507DAE8B210F05CFB234B23F801
:1025C00015000135F5E794F82B30013384F82B30F2
:1025D0001A4E3368DD0405D51F4B1B68D80701D49C
:1025E0000FF08EFD019B1F681C4B1A68907A002823
:1025F0003CD01649137B013831F810001BB1C0F5EF
:102600003B60083080B200B2A0F57A70B0F57A7FF6
:10261000A8BF4FF47A7020EAE07010F081FD1049F5
:1026200059E000BF70300020540E00200030002020
:10263000FC2F0020A0000020342E0020A419002030
:10264000A411002011000020580E0020403000206E
:10265000120F002004300020D0100020F82F00209E
:1026600000007A44800E0020C80E00203368190450
:102670003AD5D4F8D810934B791A002934DB07F5F2
:102680009C412031C3F8D8108F494D798F4931F8DA
:102690001550A9B2D57A91FBF5F593F8DC1001310C
:1026A00001F00F0283F8DC201A44034682F8DD5063
:1026B000874A825C0130134410289BB2F8D11BB2C8
:1026C00093FBF0F000B26428A8BF642020EAE07019
:1026D00010F026FD7F4910F02BFE7F4910F074FDAD
:1026E00010F05EFF7D4B188033687D4D13F4807FC2
:1026F00000F00F817B4BDFF8F0919F4205D999F8EC
:10270000022012B9012289F8022099F80220002A39
:1027100000F0FF80744A95F8008092F82170C8F3A9
:1027200080087A1E57425741704A002F924611681E
:1027300018BF4FF0000BC1F38063019308BF4FF047
:10274000030B99F82020052A00F2DD80DFE802F073
:10275000034E537988A5B8F1000F3AD0D4F8F000B1
:10276000B4F8F4100AF0CDFB012809D16049614AA0
:1027700009681268C988642000FB0122C9F810208A
:10278000019B6BB15A4A126812794AB10DF00EFCE6
:10279000032289F820204FF47A72C9F81C20D0E770
:1027A000002F40F0B080534AD9F8101010684E4AFC
:1027B00088420AD902920DF0F9FB029A032182F8AD
:1027C000201040F6B831D161BBE7012182F820101A
:1027D000B7E7019B4FF4806013B10CF0BFFC01E040
:1027E0000CF0ABFC0022C9F810208CE0002F49D17E
:1027F0000DF0DCFBA5E727B1052289F82020012098
:1028000000E03846B8F1000F0CD0D4F8F0204FF0BB
:10281000020BD189384A118051809180344909686E
:102820004988D180334A1168D9F81420914202D8DE
:10283000B8F1000F64D147F23052C9F81C200322CE
:1028400021E02A7842F002022A700FF059FC294A4E
:10285000D9F81C1012680A44C9F81820042212E0A2
:10286000244A9FB11168D9F8182091424BD9234AC4
:1028700092781AB9DAF80020D30744D42A7822F0E3
:1028800002022A70052289F820205AE71268D9F836
:102890001C100A44C9F8182035E01549154A096882
:1028A0001268C988642000FB01224FF48060C9F8D7
:1028B0001020002289F8202089F803200CF03DFC2C
:1028C0003FE700BF540E0020CC1E0020DC1E00207D
:1028D000310F00200000C84200C07F4434110020A6
:1028E00093300020404B4C0004300020D0100020DA
:1028F00030290020A41100204030002011000020C9
:1029000000287FF41EAFBBF1000F02D058460AF03A
:1029100091FB8D4F07F5C370B7F84E110AF0F1FA2D
:102920000197834668B90DF035FB884B0022C3F848
:1029300000B0C3F804B0C3F808B0854B1A605A6001
:102940009A602B785F0736D53368D80633D5814B2C
:102950001B78D9062FD4804B9B789BB1019B93F8B1
:10296000DE31BBF1000F15D17BB17C4B1A68D4F876
:10297000F8309B1A002B08DA0FF0C2FB784B83F873
:10298000FCB018E0BBF1000F0DD110200AF052FB93
:1029900001230EE03BB1714A4FF47A71126801FBDA
:1029A0000323C4F8F83094F8FC3023B10AF02EFB6E
:1029B000002384F8FC30019B93F8DCA193F8DD112F
:1029C000B3F896E1B3F898C100231846654A800829
:1029D00032F9137001337745C4BF60F07F00C0B295
:1029E0006745B8BF40F04000042B9146EED194F803
:1029F000FD305B4A834205D192F8FE30F92B04D8B2
:102A0000013300E0002382F8FE30534B84F8FD00D0
:102A10009A789846544FE2B93B68DA0708D5BBF17B
:102A2000000F16D12B78DB0713D50FF0B9F910E0A2
:102A30002B7858070DD54A4B93F828304BB14B4BA8
:102A4000DB7833B911B10FF05BFB02E0BBF1000F93
:102A5000F9D094F8FE30424A142BDFF824B140F04C
:102A6000AA8098F802301AF1000A18BF4FF0010A44
:102A70006BB392F8FD305F2B11D12B7803F0040378
:102A800003F0FF0113B10FF03BFB08E00B200391B3
:102A900002920AF0CFFA029A039982F8FE10BAF174
:102AA000000F14D094F8FD307D2B10D12B7803F05B
:102AB000040303F0FF0213B10FF022FB07E00B2029
:102AC00002920AF0B7FA264B029A83F8FE202B787E
:102AD00003F0040303F0FF01002B6CD194F8FD30E8
:102AE0001F4A572B15D1224B4FF47A721A80336844
:102AF000190601D509F040FF1E4B1B685A0742BF5B
:102B00001D4A0A21118013F0080354D11B4A138077
:102B100051E03068400735D55A2B33D192F8FF3059
:102B20002BB1012382F8FF1082F8003143E092F8C4
:102B3000013183F0010382F801310BB10C2000E078
:102B40000D200AF077FA36E0CC1100200028002092
:102B5000BC280020C019002011000020A411002072
:102B6000540E002040300020D010002004300020FF
:102B70008A300020BC19002088300020BC110020C1
:102B80000C1100205D2B00F023855B2B00F02285CB
:102B90005E2B00F02185562B01D10CF0C7FB98F875
:102BA0000230002B00F0E88494F8FD306F2B40F0E9
:102BB000DD840FF0F5F833685B0736D594F8013102
:102BC000B54A93B12B7858070FD5019BB9F9061078
:102BD000B3F89631994208DD3B6813F0010302BF58
:102BE0003221A2F8041182F801313B68D9030DD5D6
:102BF00094F80621A84B2AB993F8FF2012B9322283
:102C0000A3F80421012384F806310EE094F8FF3084
:102C1000A14A53B12B7803F0040303F0FF0123B959
:102C2000012382F8FF1082F80031DBF800900023C6
:102C30003B6009F17B0809F1CB0A98F8002098F86D
:102C4000013018F8010C9A420BD241460AF010F9F3
:102C500038B118F8022C012303FA02F23B6813433F
:102C60003B6008F10408D045E7D18C4B1B784BB191
:102C70008B4BDFF844921A68984612F0020F40F02E
:102C8000308328E309F1CA0709F589783A787B7817
:102C900017F8010C9A4225D239460AF0E9F808B330
:102CA00097F804C00C21BB7801FB0C417D4A013B25
:102CB00003EB43031344D1F80C2197F803909A4295
:102CC00075480FD0C1F80C31002390F83821C1F8B5
:102CD0001031012303FA0CF322EA030381F808916F
:102CE00080F8383106374745D0D16F4BDFF8CCA19B
:102CF000D3F800806D4B4FF0000B1B68029394F8E3
:102D000028300393DAF80030002B00F0DB8293F8D0
:102D10000090B9F1000F00F0D582DAF80420029992
:102D20008A1A002A0CDB01F5FA72CAF8042094F81A
:102D30003811012202FA0BF221EA020284F838214A
:102D4000039A002A00F0BE821AF8042C5978043243
:102D5000D2B2002940F07782554931F91210554A14
:102D6000B2F8942102F1C800814201DD9F7814E09D
:102D7000C83A914202DA99784F420EE094F838212D
:102D8000012303FA0BF322EA030384F83831029B90
:102D900003F5FA73CAF8043094E294F8383143FA30
:102DA0000BF3DA0700F18E82002FCCBF0220012046
:102DB0000AF062F909F1FF32374B132A00F27A82E6
:102DC000DFE812F0140023003200440061007E00AE
:102DD000E3004801AD01E201110278024400550010
:102DE0007E00E3004801B5001A017F0198F8001049
:102DF00040460F44FA2FA8BFFA2727EAE77788F85A
:102E000000700AF01BF801201EE098F801104046FF
:102E10000F44642FA8BF642727EAE77788F801707A
:102E20000AF00CF802200FE098F8031040460F4417
:102E3000642FA8BF642727EAE77788F80370D3F8E0
:102E40003C1109F0B3FF03203946C9E198F8051099
:102E50000D2039446429A8BF642121EAE17188F872
:102E600005100AF07DF8B9F10D0F00F0238298F8F3
:102E700004100E2039446429A8BF642121EAE171BD
:102E800088F80410ACE198F806100520394481F365
:102E9000080188F80610A3E1540E002094300020A9
:102EA000D01000204498010838110020A4110020FF
:102EB00040300020CC110020BC190020600F002001
:102EC000D3F840311A78022A22D13846049310F000
:102ED00027F9A94910F02CFA049B596A059310F0C0
:102EE0006BF80021049010F00DFB059B48B9049A83
:102EF000A249104610F024FB049A059B10B19F4A8A
:102F000000E000225A620F2011460AF015F80AE08C
:102F100099780F203944C829A8BFC82121EAE17156
:102F200099700AF01DF8B9F10F0F00F0C381944BAE
:102F3000D3F8409199F80030022B1AD1384610F09E
:102F4000EFF88D4910F0F4F9D9F8201010F034F8AA
:102F50000021074610F0D6FA30B93846874910F0FC
:102F6000EFFA10B1854F00E00027C9F82070122059
:102F700059E199F8011012203944C829A8BFC82185
:102F800021EAE17189F801102AE1D3F840311A7879
:102F9000022A22D13846049310F0C2F8774910F083
:102FA000C7F9049B196B059310F006F800210490F3
:102FB00010F0A8FA059B48B9049A7049104610F021
:102FC000BFFA049A059B10B16C4A00E000221A6314
:102FD0001020114609F0B0FF0AE0197B1020394497
:102FE000C829A8BFC82121EAE171197309F0B8FF07
:102FF000B9F1100F00F05E81614BD3F8409199F860
:103000000030022B1AD1384610F08AF85B4910F0D4
:103010008FF9D9F82C100FF0CFFF0021074610F0E0
:1030200071FA30B93846554910F08AFA10B1534F49
:1030300000E00027C9F82C701320F4E099F80B1079
:1030400013203944C829A8BFC82121EAE17189F8B1
:103050000B10C5E0D3F840311A78022A22D1384645
:10306000049310F05DF8474910F062F9049BD96BA6
:1030700005930FF0A1FF0021049010F043FA059B87
:1030800048B9049A3D49104610F05AFA049A059B33
:1030900010B13A4A00E00022DA631120114609F02B
:1030A0004BFF0AE0997D11203944C829A8BFC821E7
:1030B00021EAE171997509F053FFB9F1110F00F0A0
:1030C000F9802F4BD3F8409199F80030022B1AD198
:1030D000384610F025F82B4910F02AF9D9F83810A5
:1030E0000FF06AFF0021074610F00CFA30B938469D
:1030F000224910F025FA10B1204F00E00027C9F84E
:10310000387014208FE099F8151014203944C8291C
:10311000A8BFC82121EAE17189F8151060E0D3F851
:10312000409199F80030022B1AD138460FF0F8FF81
:10313000114910F0FDF8D9F828100FF03DFF0021DB
:10314000074610F0DFF930B938460C4910F0F8F9AD
:1031500010B10A4F00E00027C9F82870092062E08A
:1031600099F8031009203944C829A8BFC82121EAC9
:10317000E17189F8031033E0000020410000C842EB
:10318000540E002000007A44D3F8409199F80030A2
:10319000022B1AD138460FF0C3FFBB4910F0C8F814
:1031A000D9F834100FF008FF0021074610F0AAF9F3
:1031B00030B93846B44910F0C3F910B1B24F00E04D
:1031C0000027C9F834700A202DE099F80D100A2064
:1031D0003944C829A8BFC82121EAE17189F80D1036
:1031E00009F0BEFE66E0D3F8409199F80030022B5A
:1031F0001DD138460FF094FFA44910F099F8D9F882
:1032000040100FF0D9FE0021074610F07BF930B9CD
:1032100038469D4910F094F910B19B4F00E000270B
:10322000C9F840700B20394609F086FE42E099F853
:1032300017100B203944C829A8BFC82121EAE17121
:1032400089F81710CCE7012934D19878904B33F9DD
:103250001230B3F5617F05DB40F633029342A8BF1D
:10326000134601E04FF46173B9F10C0F22D14FF412
:10327000966292FBF0F0A3F5617393FBF0F3854A3D
:10328000DFB21378BB4215D0042F34BF3B46022374
:103290001370019A09FB03237F4A03F2AE73136094
:1032A00003F0A3FF4846394609F05AFE781CC0B225
:1032B00009F0E2FE94F83821012303FA0BF31343DB
:1032C00084F838310BF1010BBBF1040F0AF10C0A41
:1032D0007FF418ADCCE43368DB0511D56F4BDB7898
:1032E00073B1D9F800309F070AD56D4B1B8813F0D6
:1032F00001070AD10CF04EFE01200BF02FFF04E075
:1033000001200BF01AFF012300E00023D8F8002071
:1033100050070DD563B101200BF00FFF604B1B88E8
:10332000990708D40CF036FE02200BF017FF02E0DC
:1033300002200BF002FFD9F8003013F00A0F29D059
:10334000D8F80030DA060BD5554B1B885B070AD43A
:1033500004200BF003FF534B1B88A4F8443102E018
:1033600004200BF0EAFED8F800309F0607D54C4B3E
:103370001B88580606D440200BF0F0FE02E04020E7
:103380000BF0DBFED8F80030590642BF454B1B88D6
:10339000A4F84631D9F800309A0609D4D8F800309C
:1033A0001B0540F1B2804FF480700BF0D7FEB0E007
:1033B0003D4BDFF8EC901B7813F0020F53D03B4BE2
:1033C0001B78042B4FD9D8F8003013F4007A0FD0B3
:1033D000B9F80030DF063AD410200BF0BFFE2020F1
:1033E0000BF0ABFE3248011D09F030FA02232AE04F
:1033F000B9F8007007F01007BFB22FB110200BF022
:103400009CFE012784F848A1D8F80030580512D551
:10341000D4F84C3127495A89B1F90030002BB8BF94
:103420005B42934207DAB1F90230002BB8BF5B422E
:103430009342C0F20A81B9F80030990608D52020DD
:103440000BF07BFE002384F84831012700E00027C1
:1034500094F8503193BB0E2009F0ECFD164B01227D
:1034600083F850212AE0B9F8003003F03003002B34
:1034700094D010200BF061FE20200BF05EFE0023A4
:1034800084F848311DE000BF0000C84200007A44C3
:1034900040300020002A0020381100200430002095
:1034A000841A0020BC110020C0190020C619002079
:1034B00040110020C4110020540E0020002F3FF4C2
:1034C0006DAF002214466D4B002023F814006C4BA6
:1034D000191D03F10A0721F814000021D1511744E6
:1034E0007860B96023F8140003F132075A33D151E0
:1034F000D150174413447860B96058609960143211
:10350000002C7FF44BAF0124DDE74FF480700BF00B
:1035100014FE5C4B5A791C46082A01D00E2A02D1AF
:1035200040200BF00AFE33685A0540F1A48094F85D
:1035300014321BB92B7813F0040F03E0D8F80030D5
:1035400013F4002F0BD0504B00221A703C200FF0C8
:1035500043F8002800F08F800DF08CFAF6E70EF0AB
:103560001FFB09B0BDE8F04F0EF063BFBAF1000FCA
:1035700002D07E2B3FF41DAB94F8FD30972B06D183
:10358000424B4FF4C872A3F80221FFF714BBA72BDC
:1035900006D13F4A137843F004031370FFF70BBBC7
:1035A0000022BB2B079201D1022303E0B72B04D1E9
:1035B0004FF6FE73ADF81E301FE0BE2B01D1022383
:1035C00003E0BD2B30D14FF6FE73ADF81C3014E094
:1035D000012002E0022000E003205FFA80F8019A57
:1035E00008F1FF3382F8AC370BF0FAFD03F042FE2E
:1035F000404609F041FDFFF7DEBADBF80030BDF8C8
:103600001C10B3F858200A44A3F85820BDF81E1027
:10361000B3F85A200A44A3F85A200BF087FE00237F
:1036200084F8FE30FFF7C7BA792B04D1194AD37852
:1036300023F0010306E07A2B7FF4BDAA154AD37864
:1036400043F00103D370FFF7B6BAB9F800309B0618
:103650003FF5FEAE20200BF081FD0F4B0F481A689E
:103660005B68011D4360026009F0F0F8074B012719
:1036700083F84871ECE609B0BDE8F08F8C3000208B
:10368000A60F0020CC110020392E0020540E00205F
:10369000C019002030240020C81900204811002043
:1036A000BA4B2DE9F04FB3F90610B94B91B01F6832
:1036B00001937A8991420EDBB1F5FA6FFC79BFBFB5
:1036C0008B1A6343A2F5FA6493FBF4F4ACBFC4F124
:1036D0006404643400E06424AE4BAF4A1868B2F866
:1036E00094A1054692F95E21049092B2059202934C
:1036F000002240F2E630A54B4FEA420B33F912307C
:103700000393CAEB030303F2F316864203D8002B9C
:10371000B8BF5B4201E04FF4FA73022A049E4FF0F7
:1037200064002FD096F811E1BEF1000F04D073456C
:10373000CCBFCEEB0303002393FBF0FCDFF8A0E249
:103740006FF063093EF81C8009FB0C390CF1010C89
:103750003EF91CE00FFA88FCCCEB0E0E0EFB09FEC6
:103760009EFBF0FE8D4EC64426F80BE0BE1836795F
:1037700073438B4E93FBF6F364339BB2634393FB2B
:10378000F0F02DE096F812E1BEF1000F04D0734581
:10379000CCBFCEEB0303002393FBF0F0DFF82C82C9
:1037A0006FF0630C0CFB003938F910E0013038F988
:1037B0001000002BCEEB000000FB09F999FBFCF98F
:1037C0000598CEEB090909FB00F97448B8BF5B42C4
:1037D000A0F80490B8794343714893FBF0F064304B
:1037E0006B784FF0640E434393FBFEF36D4E022A59
:1037F000B354EB7A6C4E00FB03F393FBFEF3B3542C
:103800006B7D664E00FB03F090FBFEF0674B985417
:10381000674B0FD183F802E0039B53450EDB5E4CF0
:10382000B4F89621914215DBB1F5FA6FA8BF4FF4B9
:10383000FA6110E09C54039B534504DA36F80B30D0
:103840005B4226F80B300132032A05F101057FF4B3
:1038500050AFE4E71146891A4FF47A735943C2F521
:10386000FA62B1FBF2F1642791FBF7F2DFF874E141
:103870006FF063033EF8120003FB021101323EF9C0
:10388000122003B2D21A514391FBF7F30344F380A1
:10389000484B424D1B8858063BD5474A474B10883A
:1038A0001B88181A00B20FF03BFC45490FF08CFC46
:1038B00007460BF071FB804638460BF0FAFA0746D4
:1038C000B5F902000FF02CFC8146B5F900000FF0AD
:1038D00027FC414682460FF077FC3946834648462E
:1038E0000FF072FC014658460FF064FB0FF032FEF9
:1038F0004146288048460FF067FC394680465046CE
:103900000FF062FC014640460FF056FB0FF022FE1E
:1039100068802C4F3B68990740F19F8045F2072152
:10392000294B2A4D1A686B69D31A8B4240F3958054
:103930006A6106F075FC264BDFF8AC901A78984661
:10394000032AB9F8003051D10A2B59D90023282075
:1039500088F8003009F03FFB06F062FC1D4B188828
:1039600006F048FC1C4B1A68D37890FBF3F001304A
:1039700008281A4BA8BF08201870537980B2434317
:103980002B831379584368833AE000BF403000200E
:10399000381100200C110020CC110020C41100208F
:1039A0000CFEFFFF1428002036100020782800208D
:1039B000B8280020841A00209A0F0020BC11002093
:1039C00035FA8E3CA4190020703000202810002009
:1039D0000C1A0020E41E0020A8190020F00000208E
:1039E00016260020FE250020AC1900200A2B07D83F
:1039F00003239A4A88F80030002313702B836B83CB
:103A000098F80030964A012B0CD002D3022B1BD021
:103A100023E02A8BB9F800309A421EDD012388F892
:103A200000300FE0B9F800106B8B8B4202DD0223EF
:103A300013700FE08B4B1B8B0133994202DD002387
:103A400013700AE0082006E06B8BB9F80020013300
:103A50009A42E3DC072009F0EDFA3D682A0573D5A8
:103A6000814B804F1B68FA69C2EB030845F20722BD
:103A7000904569DDFB617D4BB6F906B0D3F8009047
:103A8000B4F84E1199F80A30ABF57A7B012B784ED9
:103A900003D042D3022B20D041E0764B396A5A7BC7
:103AA000754B082033F8122091FBF0F392B2C91A3B
:103AB0008B183B6293FBF0F3BA8440F6E4429BB26E
:103AC0005343B9F80820C2EB13334FF47A725343CF
:103AD000B9F9062093FBF2F320E0684BB9F808A08F
:103AE0001B78C6F800A05B0719D5654809F009FAEC
:103AF00020B915F0100F18BF4FF0000B0BFB0BF3A4
:103B0000322293FBF2F3B9F906205B445A434FF497
:103B10007A7392FBF3F3534400E00023336033687D
:103B2000D7E90A0103FB08F84FF47A7398FBF3F81E
:103B300010EB080041EBE8710023C7E90A01514A84
:103B40000FF04EFD504B1860504E3368DF0427D500
:103B50002D0622D54E4B1B7898071ED54D4B187855
:103B600004281AD900224C4B0521D718951C4FF078
:103B70000A0E122AD154E9B287F801E004D0B0EB62
:103B8000510F2A46EFD800E014215A18322002F8CB
:103B9000010CFF225A540F2000E00A2009F04AFAD3
:103BA0003E4D2A68002A51D03D4B3E4F1868396877
:103BB000984681424AD83C4BDFF8F8901978526811
:103BC000E1B94FF0010A83F800A0B9F80030D35CE6
:103BD00023B3504609F014FA344B83F800A00FF0D9
:103BE0009FF8B9F80030CBB92B681B78053B5345DB
:103BF00014D809F0C9F92E4B18600FE04FF0000AF5
:103C000083F800A0B9F80030D35C3BB1504609F00E
:103C1000F7F9264B83F800A00FF082F82B68B9F86B
:103C200000205B6823499B5CFE2B02D100230B80A4
:103C30000CE0FF2B02D109F0E9F907E0D8F8000009
:103C40000A2505FB030301323B600A800B4D2B78EC
:103C5000590733D5184B08225A6166E0F00000205E
:103C60000C1A00202810002070300020A819002015
:103C7000B4190020CC1E0020DC1E00209330002050
:103C800052130020407E0500B8190020D0100020FB
:103C9000C0190020C61900202C2A0020342600203C
:103CA000A41100202C2600202826002028300020E7
:103CB000182D002030260020000C01403268D20769
:103CC0005CBF43F001032B709B4B9C4A1B781B0786
:103CD0005EBF2B7823F001032B70994B1B6813F008
:103CE000040F02D09749098851B99749098809B149
:103CF0009F0705D4954B1B88003318BF012333B1B0
:103D0000022313702B7823F001032B7004E0297831
:103D1000CE0758BF0223137009F036F98C4B1B688D
:103D2000C01A002801DB0EF0FBFF0DF039FF894BB4
:103D30001E780493002E00F0B480874F3B68002B60
:103D400000F02687386809F0E4FA002800F02087A0
:103D5000814B824C186809F0D9FA092801D03F2814
:103D600052D14FF000094D462668DFF8148236B173
:103D70007B48D8F80010324613F092F810B9C146CB
:103D800005B94546774B08F110089845EFD3EDB1DA
:103D9000D5F800C0D9F8008023681CF803E018F8B3
:103DA0000300704512D15A1C6D4958B92D2B09D802
:103DB000DFF8A8E1CEF800204FF0200E01F803E074
:103DC000885403E001F803E02260E5E723680BB1C3
:103DD0004D4510D064480CF053FF4D4507D855F8B9
:103DE000100B0CF04DFF09200CF042FFF5E75F4887
:103DF0000CF046FF002623689E42A3D2584B985DE4
:103E00000CF036FF0136F6E72368002B40F0A4865D
:103E1000042840F0DC86524807F008FD00F0B8BEE8
:103E2000DFF860A1DAF8000009F073FA30B3DAF8CD
:103E3000000009F06BFA4E4B83461B6893F848204C
:103E4000002A3FD1242840F0A180012283F8482095
:103E5000DFF81CA1DAF8003093F84820062A039214
:103E6000DED193F8490001F04DFD002800F0B78045
:103E70000CF04EFE3B68002283F848203D4B93F83F
:103E8000353053B158F8060006F088FF09F0C0FB42
:103E90000BF07CF9384A394BDA604C36982E00F03A
:103EA0007786DFF8E48006EB080393F84A20012ABE
:103EB000F3D12F4FDFF8CC903B6056F80830C9F8AB
:103EC0000030ADE7012A04D14D2814BF00220222A0
:103ED000BCE7022A04D13C2814BF00220322B5E724
:103EE000032A0AD140284FF000029FBF1A71DA71ED
:103EF0005871987198BF0422A8E7042A08D19A79CA
:103F000083F8490080EA020B83F806B005229DE79A
:103F1000052A9DD159791A799142997906D941405A
:103F20009971511C19711344187291E781420CBFA9
:103F3000062200228AE700BFC01900202830002096
:103F4000BC19002088300020560F00208A30002045
:103F50002C300020943000201C2A00206C240020EB
:103F60003C24002050A2010804BC010809BC01083F
:103F7000641A0020281000200400FA0500ED00E07B
:103F800070A00108681A0020982D00202B78CA4ADA
:103F900059073FF55DAF2328DAF8003012D10392BC
:103FA000049A01211170C549C5480B60C5490B63CE
:103FB0000CF066FEC4480CF063FE039A137843F0DD
:103FC00002031370C14B1B681B785B4501BFC04ADD
:103FD000C04B1A60C04A04BFC04BDA6038E7DAF859
:103FE000002092F849B0BBF14C0F00F0848400F23D
:103FF000A480BBF1350F00F0468242D8BBF12B0FF5
:1040000000F0518424D8BBF1250F00F0278405D897
:10401000BBF1230F00F0FE8100F0D5BDBBF1270FEF
:1040200000F02384BBF1290F40F0CD850CF04CFD4E
:10403000A4F87E010CF048FDA4F880010CF03AFDD4
:1040400084F882010CF040FDA4F8840100F07FBDEB
:10405000BBF12F0F00F0D08405D8BBF12D0F00F07D
:10406000268400F0B0BDBBF1310F00F0DA84BBF163
:10407000330F40F0A8850CF01DFD84F8900100F08E
:1040800066BDBBF1410F00F071841CD8BBF1390F44
:1040900000F0F88305D8BBF1370F00F0748400F00E
:1040A00092BDBBF13C0F00F0F780BBF13E0F40F03A
:1040B0008A850CF0FFFC84F8DE010CF0FBFC84F830
:1040C000DD0100F044BDBBF1440F00F0DE8427D8D1
:1040D000BBF1430F40F077850CF0ECFC0023A360AC
:1040E00060710CF0FBFCA3681843A0600CF0E2FCCC
:1040F00084F88E010CF0E8FCA4F858010CF0E4FC04
:10410000A4F85A010CF0E0FCA4F85C010CF0DCFC13
:10411000A4F87E010CF0D8FCA4F8800100F017BDD3
:10412000BBF1480F00F03183BBF14A0F40F04B85E3
:104130000CF0CAFCA08100F00ABDBBF1D10F00F069
:104140004E8328D8BBF1CC0F00F0C58113D8BBF14A
:10415000C80F70D005D8BBF14E0F00F0D98300F026
:1041600032BDBBF1C90F00F01383BBF1CA0F00F0E1
:10417000BF8000F028BDBBF1CE0F00F0F982C0F087
:10418000EE82BBF1CF0F00F0FA81BBF1D00F00F04F
:10419000DB8200F018BDBBF1D90F00F0C4820ED84D
:1041A000BBF1D30F41D02DD3BBF1D40F00F042822D
:1041B000BBF1D60F40F007854FF0000918E2BBF1C4
:1041C000F20F00F0858213D8BBF1EF0F40F0FB84B3
:1041D000DFF81891D9F800A00CF076FCAAF85A0084
:1041E000D9F800900CF070FCA9F8580000F0AFBCB2
:1041F000BBF1F30F00F06884BBF1FA0F00F0C1824D
:1042000000F0E1BC2B7803F0040303F0FF09002B5E
:1042100040F09D840CF04EFC022884F8AC0740F27C
:1042200099822F4B83F8AC9794E20CF04DFC2D4B08
:10423000188000F08CBC92F805904FEA5909B9F14A
:10424000120F03D90EF0C4F900F081BC4FF0000A40
:10425000CA4507D20CF038FC07AB23F81A000AF164
:10426000010AF5E74A4600234B4507DA07A931F86A
:1042700013001D4921F813000133F5E7122A05D078
:10428000194B002123F812100132F7E70D4B0122E0
:1042900083F8342000F05BBCDFF85090D9F800A020
:1042A0000CF008FC8AF80000D9F80030187809F002
:1042B0009DFA00F04CBC00BF933000201C2A002067
:1042C00039BC01082810002009BC01083C2E002040
:1042D000EFBEADDEF04F00200400FA0500ED00E077
:1042E000CC110020980F00202C2F00200C11002052
:1042F000C54B1A6899461278022A6ED14FF0000910
:10430000DFF804A309F1080BDAF8003003930CF08E
:10431000D1FB0EF001FFBD490FF00AF8039B43F8F3
:104320002B00DAF800B00CF0C5FB09F10A030BEB27
:10433000830B0EF0F1FEB6490EF0FAFFDAF800300A
:10434000CBF8040003930CF0B5FB0EF0E5FEB14989
:104350000EF0EEFF09F10E0B039B09F10109B9F113
:10436000030F43F82B00CBD1B9F1070FDAF800B0F7
:104370001AD10CF09FFB0EF0CFFEA4490EF0D8FF2F
:10438000CBF84400DAF800B00CF094FB0EF0C4FE59
:104390009E490EF0CDFFCBF84800DAF800B00CF0E3
:1043A00089FB8BF84C0012E00CF084FBCB448BF8BB
:1043B0000100DAF800B00CF07DFBCB448BF80B0069
:1043C000DAF800B00CF076FBCB448BF8150009F15D
:1043D0000109B9F10A0FC7D1B9E34FF0000AD9F8C2
:1043E00000B00CF067FBD3448BF80100D9F800B0A3
:1043F0000CF060FBD3448BF80B00D9F800B00CF044
:1044000059FBD3440AF1010ABAF10A0F8BF81500DF
:10441000E5D19CE30CF04EFB132883463FF612AF28
:10442000DFF8E4A1DAF800900CF044FB00237A49AD
:104430000C2202FB0312117A814220D1137809EB7E
:104440008B0989F879300CF035FB89F87A000CF08B
:1044500031FB89F87B000CF02DFB704A704B89F81A
:104460007C001A60DAF800006E4B00211860793089
:1044700008F036FD6C4B80F00100187067E30133E3
:104480001C2BD4D1DEE60CF015FB0B2881463FF641
:10449000D9AE5D4BD3F800A00CF00CFB03283FF61F
:1044A000D1AE039B03FB09AB8BF8CE000CF002FBF3
:1044B0008BF8C9000CF0FEFA8BF8CA000CF0FAFA7F
:1044C0008BF8CB000CF0F6FA8BF8CC000CF0F2FA7B
:1044D0008BF8CD003BE35379092B7FF6B3AE019BFC
:1044E000D3F800900CF0E6FA019B89F80000D3F8AD
:1044F00000900CF0DFFA89F801000CF0DBFA019B68
:1045000064281B68A8BF642018710CF0D3FA019BC3
:1045100064281B68A8BF642058710CF0CBFA019B7B
:10452000FF281B68A8BFFF2098710CF0C3FA019BFD
:104530006428D3F8009028BF642089F807000CF0A5
:10454000B9FA019B89F80200D3F800900CF0B2FA96
:10455000019B89F80300D3F800900CF0B5FADAF863
:104560000030A9F80A005B790A2B40F2F0822F4B49
:10457000D3F800900CF09EFA89F80800E7E20CF0FE
:10458000A3FA6FF4AF6283189BB2C62B98BFA4F84E
:1045900094010CF099FAA4F840010CF095FAA4F8F3
:1045A00042010CF091FAA4F844010CF08DFAA4F841
:1045B000D6010CF07FFA84F8EB010CF07BFA0CF0DA
:1045C00079FA84F8EC010CF075FA84F883010CF0A8
:1045D00071FA84F890010CF06DFA0B4BD3F800904F
:1045E0000CF072FA00EB80004000A9F8560049E197
:1045F0000CF06AFA0E4B23F8190009F10109B9F120
:10460000080FF5D1A3E200BF0C11002000002041EB
:104610000000C84200007A44B09801080C13002042
:10462000900F0020940F002013000020381100206C
:10463000022A002053790F2B7FF404AE0CF03AFAD3
:10464000072881463FF6FEAD029BD3F800A00CF090
:104650003BFA0E2303FB09F9029BCA44AAF819018D
:10466000D3F800A00CF030FACA44029BAAF81B0150
:10467000D3F800A00CF028FACA44029BAAF81D0146
:10468000D3F800A00CF016FACA44029B8AF81F0166
:10469000D3F800A00CF00EFACA44029B8AF820015D
:1046A000D3F800A00CF006FACA44029B8AF8210154
:1046B000D3F800A00CF0FEF9CA44029B8AF822014C
:1046C000D3F800A00CF00AFAD144C9F823013EE265
:1046D0000CF0F0F90F2881463FF6B4AD0CF0EAF982
:1046E000C9EBC90904EB090383F8D00003F1D00931
:1046F0000CF0E0F989F801000CF0DCF989F802000F
:104700000CF0D8F989F803000CF0D4F989F804000A
:104710000CF0D0F989F805000CF0CCF989F8060006
:1047200008F0B6FF13E20CF0CFF9A4F848010CF042
:10473000CBF9A4F84A010CF0C7F9A4F84C010CF02D
:10474000C3F9A4F84E0102E22B785B0700F1FF8168
:1047500002F070FF0AF044FD02F08CFDF7E12B78C7
:10476000580700F1F481CB4B4FF4C8721A80EEE188
:104770002B78590700F1EB81C74A137843F0040303
:104780002BE02B785A07E5D51DE208F05DFADEE153
:104790000CF090F9C04B1A7810B142F0020201E01F
:1047A00022F002021A700CF085F9BC4BDFF810936E
:1047B00018700CF093F9C9F800000CF08FF9C9F8E3
:1047C00004000CF081F9B64B18800CF07DF9B54B64
:1047D000B54A1880137843F002031370B7E10CF068
:1047E00069F903900CF07AF983460CF077F9824668
:1047F0000CF074F981460CF067F90CF065F90CF0D7
:1048000059F9039BA3B9A94B1020C3F800B0C3F812
:1048100004A00AF092FCA04A137843F0010313703D
:10482000B9F1000F00F09381A14BC3F800908EE125
:10483000102B40F08C819F4BC3F800B0C3F804A04C
:10484000B9F1000F02D09A4BC3F8009099489A4BE7
:104850000222011D1A7007F0F9FF78E1A0600CF048
:104860003DF9A3681843A06071E10CF02DF9A4F89C
:1048700058010CF029F9A4F85A010CF025F9A4F814
:104880005C0164E10CF016F984F878010CF012F97F
:1048900084F87C010CF00EF984F87B010CF00AF925
:1048A00084F87D0153E10CF005F960714FE10CF0E3
:1048B00001F984F88E010CF007F9A4F898010CF0C6
:1048C00003F9A4F894010CF0FFF8A4F896010CF099
:1048D000F1F83B6884F88F015B79DFF8E891082BE9
:1048E00040F235810CF0F0F8A9F89A010CF0ECF8E0
:1048F000A9F89C012BE10CF0DDF884F8D4010CF050
:10490000D9F884F8D5010CF0DFF8A4F8D6011EE13F
:1049100092F805900323B9FBF3F9B9F1120F3FF6B2
:1049200091ACDFF8A0A14FF0000BCB4580F00F81D8
:104930000CF0C0F88AF89E010CF0C6F840F2ED23A6
:10494000984205DD40F6CA039842A8BF184601E028
:1049500040F2EE20A0F2EE20192390FBF3F00BF1D1
:10496000010B8AF89F010AF1020ADEE781460CF08A
:10497000A1F804EB090309F10109B9F1080F83F863
:104980008601F4D1E3E053794FF0070AB3FBFAFA5A
:10499000CAEBCA029B1A13F0FF0F7FF453AC5FFA05
:1049A0008AFA0AF1FF3A5FFA8AFABAF1FF0F00F0C9
:1049B000CE800CF07FF85FFA80FB4FFA8BF008F0A6
:1049C000B7F9814600283FF43DAC80F800B00CF008
:1049D0007BF8A9F802000CF06DF889F804000CF0DF
:1049E00069F889F805000CF065F889F807000CF003
:1049F00061F889F80600D4E7DFF8C89009F1400AA9
:104A00000CF062F8A9F8A4020CF054F889F8A60298
:104A10000CF050F809F1040989F8A302D145EFD14F
:104A200095E00CF047F81F2881463FF60BAC3B6839
:104A30005B79082B7FF406AC0CF046F809F1880985
:104A400004EB890900F03F00A9F806000CF03CF8DF
:104A5000B9F80630800100F4FE501843A9F80600AA
:104A60000CF028F8000189F804000CF023F899F8FC
:104A7000043000F00F00184389F804000CF01AF815
:104A800089F805000BF022FB61E00C4B012283F852
:104A900035205CE0560F0020C0190020C619002008
:104AA000C4190020C21900203E110020401100202E
:104AB00050110020481100209C0F002028100020D9
:104AC000C8190020CC1100200BF0F4FFFF2882460B
:104AD00022D100238DF81B309DF81B30052B14D8F4
:104AE0009DF81B006D4A9DF81B30012102EBC303AA
:104AF0005B6852F83000994089B2482206F0C0F84D
:104B00009DF81B300133DBB2E4E765484FF4004108
:104B1000042206F0B5F81AE005283FF693AB002012
:104B20000CF01AF80BF0F4FF3A68106806F036F94A
:104B3000D9F800000BF09EFF504606F0AFF80A20AF
:104B400008F049FA0DF075FC3A6882F849B0002087
:104B50000CF002F8FFF78CB90C283AD00A283CD1A7
:104B6000504D51480CF08CF82846232112F081F961
:104B700008B1401B20602368002B31D14948002137
:104B80003022236012F03FF9049B1B78002B5AD18E
:104B9000464B1B689B060FD5454B46491B688A6BE5
:104BA0009A1A002A08DB444A1278042A82BF03F5C5
:104BB000123303F5F8738B63404B9B68002B69D06D
:104BC0003F48984766E00DF003FDFFF751B90C2808
:104BD00047D13C480CF054F835E00D2835D1BFE7FB
:104BE0005A1EA95C202901D11346C5E72D4A002190
:104BF0002360D154344B354DD3F80090D5F800A044
:104C0000DFF8A080504612F042F90646514632467F
:104C1000404612F045F92E4A28B918F806304B44A0
:104C20005B78580703D010359542E7D306E09542EC
:104C300004D2701CEB684044984702E025480CF011
:104C40001FF800239AE7244807E07F280DD1154A72
:104C5000013B002121482360D1540CF011F8FFF7EB
:104C600071B87F2804D1FFF76DB82F2B3FF66AA8E3
:104C7000A0F12002D2B25E2A3FF664A813B9202820
:104C80003FF460A85A1C2260064AD0540BF0F0FF93
:104C9000FFF758B811B0BDE8F08F00BFB0BF0108F2
:104CA000000801403C2400201CCA0108BC19002057
:104CB0007030002028100020C6190020A8280020ED
:104CC000641000200EBC01080001002070A0010843
:104CD00050A2010819BC010809BC010835BC010833
:104CE0009148F0B50368914A9C8AA4B2E1B211F0F0
:104CF000010F2ED0198821F400610904090C1980D4
:104D0000198889B241F480611980002111705178AD
:104D100099B1917811B9D178FF290ED10121917003
:104D20001179022901BF198889B241F40061198003
:104D3000517941F001011982E1E0517901F0FE0160
:104D40001982D378FF2B00F0DA80784BFF2119709D
:104D5000D5E08E073AD5BFF35F8F1479E4B2012C0A
:104D600013D1517889B1917879B1198821F4806192
:104D70000904090C1980BFF35F8F198B198894718E
:104D800089B241F4007119801BE0198BBFF35F8F6A
:104D900014796649022C0AD14C7844B1897831B132
:104DA000198821F480610904090C1980A1E01479A3
:104DB0005E49032C05D14C781CB18978002940F05C
:104DC0009880998889B241F4806197E04D0756D563
:104DD000012191715178002937D09178002934D080
:104DE00011791C88022911781DD924F480642404C7
:104DF000240C1C801E8A9568CCB2F6B249B26E545F
:104E0000198889B241F4007119800168A31C1370DC
:104E10000B8A0134DBB264B22B558B889BB243F40E
:104E200080638B8026E0A4B244F400741C801D8A49
:104E30009668CCB2EDB249B275541B8A611C49B276
:104E4000DBB203347354147014E09178374C09B911
:104E5000217B41B1198889B241F40071198013781E
:104E60000133137006E0198889B241F4807119800A
:104E70000123A37001680B88DB05FCD43FE001F03F
:104E8000400101F0FF05E1B114781F8A9668E5B290
:104E9000691C64B2FFB23755C9B21679117049B2B4
:104EA000CC1CA64201BF9C8824F480642404240CFA
:104EB00008BF9C8013798B4221D11C4B02351D7099
:104EC0001DE027061BD511784CB2661C0AD0156967
:104ED00001312C5DC9B21C821479117049B28C4227
:104EE0000DD106E0D17815701982517809B9117980
:104EF00029B9998821F480610904090C99801379F2
:104F000092F9004001339C4208490CD100238B7078
:104F10008B7933B101688B8823F440731B041B0C1D
:104F20008B8000231375F0BDE0270020681000205F
:104F30000A4B984205D10A4AD38A01339BB2D382E5
:104F400008E0084B984201BF054A138B01339BB21E
:104F500008BF13834FF0FF30704700BF003001409F
:104F600068100020003800406B4B6C4A2DE9F04F70
:104F70005E89D4694FEA062AB4EB0A0A9C884FF08E
:104F800000054FEA04481C894FF0000BA4FB0A6798
:104F900065EB0B0B04FB0B77F40944EA476418EB51
:104FA00004065C884FF000094FEAE7154FEAC43861
:104FB000DC8849EB050787B0CDE90467A4FB0A67E5
:104FC00004FB0B77340A44EA076418EB04064FEA43
:104FD00027259C894FF0000949EB0507CDE90067BB
:104FE000AAFB046704FB0B77F40D44EA472414F58D
:104FF000FA664FEAE75545F10007B6F5FA6F77F123
:105000000003CDE90267964666DADDE90489A4FB70
:10501000046704FB05F34FF0050C07EB4307A6FB01
:105020000C230CFB07335F104FEA3206B8EB06087F
:105030004FEA920646EA837669EB07099F10DDE99D
:105040000023921B63EB0703CDE90023DDE9026730
:10505000334A4FF0FF33964277EB0303CDE90489DF
:1050600027DA40F6AC520023A4185D4104FB05F397
:10507000A4FB04456FF0060205EB4305664202FB04
:105080000566A4FB0223334418EB020649EB030731
:10509000CDE904670B26A4FB062306FB0533DDE9F7
:1050A00000455B104FEA3202A41A65EB0305CDE917
:1050B0000045DDE902450AFB0BF3AAFB0AAB0BEB4B
:1050C000430B4FEADA7242EA4B02A41A4FEAEB733F
:1050D00065EB0305CDE90245DEF82040009B019D0C
:1050E000A4FB032304FB05334FEA525848EAC328C4
:1050F0004FEA6359DDE90423B8EB020269EB0303CD
:105100009946D30B43EA494300B1036009B1029BBE
:105110000B6007B0BDE8F08F00030020681000208E
:1051200024FAFFFF2DE9F041324C334D6289AB8CFC
:10513000B4F904809A1A2389B4F902E05A43B4F905
:105140001230D613B4F91420DB02324493FBF2F28E
:1051500032440A26E2615643A2F57A6202FB02F368
:10516000B4F90EC002FB0EFE02FB08F2B4F90C808B
:105170001B130CFB03FC03FB08F31B1403EB623251
:105180000232E388921002F5004253434CF250324F
:10519000B4F920704FEAEE2EB4F900400EEBEC2C7F
:1051A0000CEB8404BC40AD6A0234A5EBA4043A4184
:1051B00062434FEAD3384EBFB2FBF8F35400B4FB5E
:1051C000F8F340F6DE3448BF5B001A1252436243E4
:1051D0000A4C08365C43241404EB224202F6CF62E8
:1051E000361103EB221300B1036001B10E60BDE87C
:1051F000F08100BF140300206810002043E3FFFF8C
:1052000037B5104B04465D68187806216A46A847F2
:10521000A8B19DF800209DF80130012043EA022347
:1052200023809DF802209DF8033043EA0223638027
:105230009DF804209DF8053043EA0223A38003B0C3
:1052400030BD00BFF002002013B5104B04465B6870
:105250003B2006216A469847A8B19DF800209DF89A
:105260000130012043EA022323809DF802209DF8AB
:10527000033043EA022363809DF804209DF8053043
:1052800043EA0223A38002B010BD00BFF002002059
:1052900010B5224C2368998A89B211F4706F1EBF31
:1052A0001F4A012082F82C0011F4E06F2BD01A8BDA
:1052B0009A88890522F480624FEA02424FEA12423C
:1052C0009A8020D41A8892051DD41A88D0050FD54B
:1052D0001A88D105FCD41A8892B242F400721A805E
:1052E0001A889205FCD40F4B187808F0F5FD0AE0F7
:1052F0001A8892B242F400721A809A8822F440729C
:105300001204120C9A802268938A23F470631B049F
:105310001B0C9382024B00221A7510BDE02700205F
:1053200068100020E4270020054A08B513880133DF
:105330009BB21380034B187808F0CEFD002008BD07
:10534000CE100020E4270020F0B52B4D85B095F855
:105350002D30002B4DD1294C2368002B49D01A68E1
:10536000274E12B1B1690A43B2619A889868ADF8C4
:10537000002002228DF80320694604228DF80220C5
:1053800008F095FBB36943F00103B3612368197D0D
:10539000187B08F077FB23685A7D1A4B596819B1BE
:1053A000002007F081FE02E017491A705960236857
:1053B000164A1B6901265361029308230DEB030073
:1053C00000278DF80D308DF80C708DF80E600DF003
:1053D000E9FC236801A85B7D8DF806708DF8043028
:1053E00003238DF805308DF807600DF0BDFC85F8BE
:1053F0002D6005B0F0BD00BF68100020FC02002049
:1054000000100240F425002025540008000401404B
:1054100008B5FFF799FF024B4FF480521A8008BD80
:105420002400002008B50A4B1B681A69094B19684B
:10543000586910420BD0114209D05A6107F0A4FDFF
:10544000054A0649136B1063C31A53630B8008BDEA
:10545000FC0200200004014068100020961100208A
:1054600010B51E4C4000C0B2A36023611C4B60719C
:10547000E17001200021217360702271207518688D
:1054800084F82C1040B383889B0515D40388D90574
:105490000DD447F230530288920502D5013BFAD170
:1054A00012E08BB103889BB243F48073038083883E
:1054B0009BB243F44073838047F23053227D12B194
:1054C000013BFBD100E013B9BDE810402CE7034BD2
:1054D00093F82C0080F0010010BD00BF6810002080
:1054E000E027002007B5002101AB03227720FFF75A
:1054F000B7FF9DF805309DF804001B0243EA004306
:105500009DF80600184303B05DF804FB08B5FFF7EB
:10551000E9FF014B186208BD6810002008B5FFF7CD
:10552000E1FF014BD86108BD6810002007B5F621E6
:1055300001AB03227720FFF793FF9DF805309DF81C
:1055400004201B0243EA02439DF806201343054A48
:10555000B2F92020C2F10802D340034A936203B09B
:105560005DF804FB140300206810002007B5F62145
:1055700001AB02227720FFF773FF9DF804209DF80E
:10558000053043EA0223024A938403B05DF804FB2A
:105590006810002030B505460C46134629462246C1
:1055A000BDE8304068205BE713B5204B400002ACFB
:1055B000C0B2587104F8012DD970012200211A736C
:1055C00059701A711A751A4A1C6110689C6083F828
:1055D0002C1040B38288920515D40288D4050DD4CE
:1055E00047F230520188890502D5013AFAD112E01A
:1055F0008AB1028892B242F480720280828892B2AA
:1056000042F44072828047F23052197D11B1013A62
:10561000FBD100E012B9FFF787FE04E0034B93F8DB
:105620002C0080F0010002B010BD00BF6810002007
:10563000E0270020772048210122B5E77720582174
:105640000122B1E7044B772093F82020F421920146
:10565000343202F0FC02A7E7140300207720F42183
:105660002E22A1E703460A46682019469CE7FFF769
:1056700037BB0DE6FFF734BB0AE670B584894FF4FB
:105680007A74FBB112B11578013207E0FF2505E00D
:105690004FF6FF76013CA4B2B4420DD00689B6079E
:1056A000F6D5ADB285810589ED070DD44FF6FF75AE
:1056B000013CA4B2AC42F6D1FFF73AFC003018BF6F
:1056C000012070BD012070BD8589ADB209B10D709A
:1056D0000131013BD5E708B540F2E9330289920771
:1056E00004D4013B9BB2002BF8D10AE040F2E9332D
:1056F00089B281810289D20706D4013B9BB2002B7B
:10570000F8D1FFF715FC00E08089C0B208BD2DE993
:10571000F04190460F46094C094E102540F080019B
:1057200065613046FFF7D7FF3046414600223B46D1
:10573000FFF7A3FF25610120BDE8F08100080140CB
:1057400000300140F8B503460F46074C074E1025C0
:10575000194665613046FFF7BEFF30463946FFF710
:10576000BAFF25610120F8BD00080140003001406A
:10577000F7B50446FFF7E8FDB4F5807F0ED0BB2CEB
:105780000ED8612C0ED8292C0ED8132C0ED8092C2B
:105790000ED8002C14BF062600260AE0002608E0DA
:1057A000012606E0022604E0032602E0042600E0CB
:1057B0000526524D95F83870002F6DD1504C802140
:1057C00023886B2023F040031B041B0C23802388B9
:1057D00023F038031B041B0C43F030032380238881
:1057E0009BB243F040032380FFF7ACFF962007F005
:1057F000F2FB03216820FFF7A5FF962007F0EBFBE3
:1058000003216B20FFF79EFF012007F0D9FB102139
:105810006A20FFF797FF012007F0D2FB39466C2082
:10582000FFF790FF012007F0CBFB39461920FFF767
:1058300089FF012007F0C4FB18211B20FFF782FF1E
:10584000012007F0BDFB10211C20FFF77BFF01208A
:1058500007F0B6FB10213720FFF774FF012007F097
:10586000AFFB01213820FFF76DFF012007F0A8FBF7
:10587000238823F040031B041B0C2380238823F080
:1058800038031B041B0C238023889BB243F0400386
:105890002380012385F83830194A0023EB821388CE
:1058A000314623F040031B041B0C138013881A207D
:1058B00023F038031B041B0C43F0300313801388C0
:1058C0009BB243F040031380FFF73CFF012007F039
:1058D00077FB6846FFF794FC9DF90230013303D152
:1058E0009DF90030013302D0EB8A9BB223B1002333
:1058F0000620EB8207F0D8FB03B0F0BD6810002053
:10590000003001402DE9F0474B28A0B0044600F0DC
:10591000DB8500F2B380302800F04B8651D8222876
:1059200000F0268423D8032800F05E8114D80128D3
:1059300000F04E81022840F0D48604200BF00CF9D0
:1059400043200BF0D4F84C200BF0D1F846200BF09C
:10595000CEF84C2000F0ECBD042800F04E81052864
:1059600040F0BF861A200BF0F7F8002457E12828F2
:1059700000F0788515D8242800F05F85262840F0AF
:10598000B086B34C06200BF0E7F8B4F858010BF0E2
:10599000E6F8B4F85A010BF0E2F8B4F85C0100F054
:1059A0009CBE2C2800F071852E2800F0EC852A285A
:1059B00040F0978601200BF0CFF8A54B587900F006
:1059C000B7BD3D2800F010831DD8362800F0C185F2
:1059D0000AD8322800F0A685342840F08286482074
:1059E0000BF0BAF80025E5E33A2800F0B4823B2832
:1059F00000F0B783382840F0748604200BF0ACF830
:105A0000934C00F020BD452800F0438627D840285D
:105A100000F09185422840F064868D4C10200BF0F8
:105A20009BF860790BF063F8A0680BF0A1F894F88C
:105A30008E010BF05CF8B4F858010BF090F8B4F854
:105A40005A010BF08CF8B4F85C010BF088F8B4F84C
:105A50007E010BF084F8B4F8800100F03EBE4728C8
:105A600000F0F585C0F0E285492840F03A86022032
:105A70000BF072F8764B988900F02FBE702800F07A
:105A8000E68258D8692800F044822AD8652800F0B8
:105A9000F98015D84D2800F02685642840F021862D
:105AA00007200BF059F8E7200BF021F8684B5879E4
:105AB0000BF01DF800200BF01AF8042000F0F8BDE0
:105AC000672800F0AB8100F2188212200BF044F836
:105AD000604B00241B88B3F5806F8CBF082501251F
